{
  "contractName": "RideContract",
  "abi": [
    {
      "constant": true,
      "inputs": [
        {
          "name": "",
          "type": "uint256"
        },
        {
          "name": "",
          "type": "uint256"
        }
      ],
      "name": "pendingPassengers",
      "outputs": [
        {
          "name": "addr",
          "type": "address"
        },
        {
          "name": "phoneNumber",
          "type": "string"
        },
        {
          "name": "numOfPeople",
          "type": "uint256"
        },
        {
          "name": "verificationCode",
          "type": "uint256"
        },
        {
          "name": "accepted",
          "type": "bool"
        }
      ],
      "payable": false,
      "stateMutability": "view",
      "type": "function"
    },
    {
      "constant": true,
      "inputs": [
        {
          "name": "",
          "type": "uint256"
        }
      ],
      "name": "rides",
      "outputs": [
        {
          "name": "id",
          "type": "uint256"
        },
        {
          "name": "driver",
          "type": "address"
        },
        {
          "name": "startPoint",
          "type": "string"
        },
        {
          "name": "endPoint",
          "type": "string"
        },
        {
          "name": "fare",
          "type": "uint256"
        },
        {
          "name": "startTime",
          "type": "uint256"
        },
        {
          "name": "numOfSeats",
          "type": "uint256"
        },
        {
          "name": "numOfPassengers",
          "type": "uint256"
        },
        {
          "name": "isActive",
          "type": "bool"
        }
      ],
      "payable": false,
      "stateMutability": "view",
      "type": "function"
    },
    {
      "constant": true,
      "inputs": [],
      "name": "rideCount",
      "outputs": [
        {
          "name": "",
          "type": "uint256"
        }
      ],
      "payable": false,
      "stateMutability": "view",
      "type": "function"
    },
    {
      "constant": true,
      "inputs": [
        {
          "name": "",
          "type": "uint256"
        },
        {
          "name": "",
          "type": "uint256"
        }
      ],
      "name": "passengers",
      "outputs": [
        {
          "name": "addr",
          "type": "address"
        },
        {
          "name": "phoneNumber",
          "type": "string"
        },
        {
          "name": "numOfPeople",
          "type": "uint256"
        },
        {
          "name": "verificationCode",
          "type": "uint256"
        },
        {
          "name": "accepted",
          "type": "bool"
        }
      ],
      "payable": false,
      "stateMutability": "view",
      "type": "function"
    },
    {
      "inputs": [],
      "payable": false,
      "stateMutability": "nonpayable",
      "type": "constructor"
    },
    {
      "constant": true,
      "inputs": [
        {
          "name": "_driver",
          "type": "address"
        }
      ],
      "name": "getCreatedRides",
      "outputs": [
        {
          "name": "",
          "type": "uint256[]"
        }
      ],
      "payable": false,
      "stateMutability": "view",
      "type": "function"
    },
    {
      "constant": true,
      "inputs": [
        {
          "name": "_passenger",
          "type": "address"
        }
      ],
      "name": "getJoinedRides",
      "outputs": [
        {
          "name": "",
          "type": "uint256[]"
        }
      ],
      "payable": false,
      "stateMutability": "view",
      "type": "function"
    },
    {
      "constant": true,
      "inputs": [
        {
          "name": "_rideId",
          "type": "uint256"
        }
      ],
      "name": "getRideDetails",
      "outputs": [
        {
          "name": "",
          "type": "string"
        },
        {
          "name": "",
          "type": "string"
        },
        {
          "name": "",
          "type": "uint256"
        },
        {
          "name": "",
          "type": "uint256"
        },
        {
          "name": "",
          "type": "bool"
        },
        {
          "name": "",
          "type": "uint256"
        },
        {
          "name": "",
          "type": "uint256"
        }
      ],
      "payable": false,
      "stateMutability": "view",
      "type": "function"
    },
    {
      "constant": false,
      "inputs": [
        {
          "name": "_startPoint",
          "type": "string"
        },
        {
          "name": "_endPoint",
          "type": "string"
        },
        {
          "name": "_fare",
          "type": "uint256"
        },
        {
          "name": "_startTime",
          "type": "uint256"
        },
        {
          "name": "_numOfSeats",
          "type": "uint256"
        }
      ],
      "name": "createRide",
      "outputs": [],
      "payable": false,
      "stateMutability": "nonpayable",
      "type": "function"
    },
    {
      "constant": false,
      "inputs": [
        {
          "name": "_rideId",
          "type": "uint256"
        },
        {
          "name": "_addr",
          "type": "address"
        },
        {
          "name": "_phoneNumber",
          "type": "string"
        },
        {
          "name": "_numOfPeople",
          "type": "uint256"
        }
      ],
      "name": "addPassenger",
      "outputs": [],
      "payable": false,
      "stateMutability": "nonpayable",
      "type": "function"
    },
    {
      "constant": false,
      "inputs": [
        {
          "name": "_rideId",
          "type": "uint256"
        },
        {
          "name": "_phoneNumber",
          "type": "string"
        },
        {
          "name": "_numberOfPeople",
          "type": "uint256"
        }
      ],
      "name": "joinPendingRide",
      "outputs": [],
      "payable": true,
      "stateMutability": "payable",
      "type": "function"
    },
    {
      "constant": false,
      "inputs": [
        {
          "name": "_rideId",
          "type": "uint256"
        }
      ],
      "name": "joinRide",
      "outputs": [],
      "payable": true,
      "stateMutability": "payable",
      "type": "function"
    },
    {
      "constant": false,
      "inputs": [
        {
          "name": "_rideId",
          "type": "uint256"
        }
      ],
      "name": "completeRide",
      "outputs": [],
      "payable": false,
      "stateMutability": "nonpayable",
      "type": "function"
    },
    {
      "constant": true,
      "inputs": [
        {
          "name": "rideId",
          "type": "uint256"
        }
      ],
      "name": "getPassengers",
      "outputs": [
        {
          "name": "",
          "type": "address[]"
        }
      ],
      "payable": false,
      "stateMutability": "view",
      "type": "function"
    }
  ],
  "bytecode": "0x608060405234801561001057600080fd5b5060008055611ab2806100246000396000f3fe6080604052600436106100c45763ffffffff7c010000000000000000000000000000000000000000000000000000000060003504166301f3220681146100c95780631d6be93c146100e8578063276f7f77146102175780632c0dd4e5146102e65780635205f112146103c15780636d4d31f214610510578063892cca8c1461058a57806395fee328146105bd578063b47c1883146105f0578063bbacd51414610617578063c416dd0b14610647578063f446576414610671578063fa9df9da1461073b575b600080fd5b6100e6600480360360208110156100df57600080fd5b50356107ea565b005b3480156100f457600080fd5b506101126004803603602081101561010b57600080fd5b5035610a13565b6040518080602001806020018881526020018781526020018615151515815260200185815260200184815260200183810383528a818151815260200191508051906020019080838360005b8381101561017557818101518382015260200161015d565b50505050905090810190601f1680156101a25780820380516001836020036101000a031916815260200191505b5083810382528951815289516020918201918b019080838360005b838110156101d55781810151838201526020016101bd565b50505050905090810190601f1680156102025780820380516001836020036101000a031916815260200191505b50995050505050505050505060405180910390f35b34801561022357600080fd5b506102476004803603604081101561023a57600080fd5b5080359060200135610cad565b60408051600160a060020a038716815290810184905260608101839052811515608082015260a06020808301828152875192840192909252865160c084019188019080838360005b838110156102a757818101518382015260200161028f565b50505050905090810190601f1680156102d45780820380516001836020036101000a031916815260200191505b50965050505050505060405180910390f35b3480156102f257600080fd5b506100e6600480360360a081101561030957600080fd5b81019060208101813564010000000081111561032457600080fd5b82018360208201111561033657600080fd5b8035906020019184600183028401116401000000008311171561035857600080fd5b91939092909160208101903564010000000081111561037657600080fd5b82018360208201111561038857600080fd5b803590602001918460018302840111640100000000831117156103aa57600080fd5b919350915080359060208101359060400135610d94565b3480156103cd57600080fd5b506103eb600480360360208110156103e457600080fd5b5035610faf565b604051808a815260200189600160a060020a0316600160a060020a0316815260200180602001806020018881526020018781526020018681526020018581526020018415151515815260200183810383528a818151815260200191508051906020019080838360005b8381101561046c578181015183820152602001610454565b50505050905090810190601f1680156104995780820380516001836020036101000a031916815260200191505b5083810382528951815289516020918201918b019080838360005b838110156104cc5781810151838201526020016104b4565b50505050905090810190601f1680156104f95780820380516001836020036101000a031916815260200191505b509b50505050505050505050505060405180910390f35b34801561051c57600080fd5b5061053a6004803603602081101561053357600080fd5b5035611117565b60408051602080825283518183015283519192839290830191858101910280838360005b8381101561057657818101518382015260200161055e565b505050509050019250505060405180910390f35b34801561059657600080fd5b5061053a600480360360208110156105ad57600080fd5b5035600160a060020a03166111cf565b3480156105c957600080fd5b5061053a600480360360208110156105e057600080fd5b5035600160a060020a031661123a565b3480156105fc57600080fd5b506106056112a4565b60408051918252519081900360200190f35b34801561062357600080fd5b506102476004803603604081101561063a57600080fd5b50803590602001356112aa565b34801561065357600080fd5b506100e66004803603602081101561066a57600080fd5b5035611330565b34801561067d57600080fd5b506100e66004803603608081101561069457600080fd5b813591600160a060020a03602082013516918101906060810160408201356401000000008111156106c457600080fd5b8201836020820111156106d657600080fd5b803590602001918460018302840111640100000000831117156106f857600080fd5b91908080601f0160208091040260200160405190810160405280939291908181526020018383808284376000920191909152509295505091359250611555915050565b6100e66004803603606081101561075157600080fd5b8135919081019060408101602082013564010000000081111561077357600080fd5b82018360208201111561078557600080fd5b803590602001918460018302840111640100000000831117156107a757600080fd5b91908080601f0160208091040260200160405190810160405280939291908181526020018383808284376000920191909152509295505091359250611644915050565b600054811115610832576040805160e560020a62461bcd02815260206004820152600f6024820152600080516020611a67833981519152604482015290519081900360640190fd5b600081815260036020526040902060010154600160a060020a03163314156108f0576040805160e560020a62461bcd02815260206004820152604160248201527f4a6f696e20526964653a2054686973206973206472697665722061646472657360448201527f732c207468652072696465206e65656420612070617373656e676572206a6f6960648201527f6e00000000000000000000000000000000000000000000000000000000000000608482015290519081900360a40190fd5b6000818152600360205260409020600681015460079091015410610938576040805160e560020a62461bcd028152602060048201526000602482015290519081900360640190fd5b600081815260036020526040902060040154670de0b6b3a76400000234146109aa576040805160e560020a62461bcd02815260206004820152601560248201527f496e636f7272656374206661726520616d6f756e740000000000000000000000604482015290519081900360640190fd5b60008181526003602090815260408083206008810180546001818101835591865284862001805473ffffffffffffffffffffffffffffffffffffffff19163390811790915560079092018054820190559084526002835290832080549182018155835291200155565b60608060008060008060008088118015610a2f57506000548811155b1515610a73576040805160e560020a62461bcd02815260206004820152600f6024820152600080516020611a67833981519152604482015290519081900360640190fd5b610a7b6118cd565b60008981526003602090815260409182902082516101408101845281548152600180830154600160a060020a0316828501526002808401805487516101009482161594909402600019011691909104601f81018690048602830186018752808352929593949386019391929091830182828015610b395780601f10610b0e57610100808354040283529160200191610b39565b820191906000526020600020905b815481529060010190602001808311610b1c57829003601f168201915b505050918352505060038201805460408051602060026001851615610100026000190190941693909304601f8101849004840282018401909252818152938201939291830182828015610bcd5780601f10610ba257610100808354040283529160200191610bcd565b820191906000526020600020905b815481529060010190602001808311610bb057829003601f168201915b505050505081526020016004820154815260200160058201548152602001600682015481526020016007820154815260200160088201805480602002602001604051908101604052809291908181526020018280548015610c5757602002820191906000526020600020905b8154600160a060020a03168152600190910190602001808311610c39575b50505091835250506009919091015460ff16151560209091015260408101516060820151608083015160a084015161012085015160c086015160e090960151949f939e50919c509a509850919650945092505050565b600560205281600052604060002081815481101515610cc857fe5b600091825260209182902060059091020180546001808301805460408051601f6002600019968516156101000296909601909316949094049182018790048702840187019052808352600160a060020a03909316965092945092830182828015610d735780601f10610d4857610100808354040283529160200191610d73565b820191906000526020600020905b815481529060010190602001808311610d5657829003601f168201915b50505050600283015460038401546004909401549293909290915060ff1685565b60008311610dec576040805160e560020a62461bcd02815260206004820152601e60248201527f46617265206d7573742062652067726561746572207468616e207a65726f0000604482015290519081900360640190fd5b600080546001019055610dfd6118cd565b60005481523360208083019190915260408051601f8a0183900483028101830190915288815290899089908190840183828082843760009201919091525050505060408083019190915280516020601f8801819004810282018101909252868152908790879081908401838280828437600092018290525060608601949094525050506080820185905260a082018490526001610120830181905260c0830184905260e0830182905281548252600360209081526040928390208451815581850151928101805473ffffffffffffffffffffffffffffffffffffffff1916600160a060020a03909416939093179092559183015180518493610f0692600285019291019061192c565b5060608201518051610f2291600384019160209091019061192c565b506080820151600482015560a0820151600582015560c0820151600682015560e082015160078201556101008201518051610f679160088401916020909101906119aa565b5061012091909101516009909101805460ff19169115159190911790553360009081526001602081815260408320935184549283018555938352909120015550505050505050565b60036020908152600091825260409182902080546001808301546002808501805488516101009582161595909502600019011691909104601f81018790048702840187019097528683529295600160a060020a039091169491929183018282801561105b5780601f106110305761010080835404028352916020019161105b565b820191906000526020600020905b81548152906001019060200180831161103e57829003601f168201915b5050505060038301805460408051602060026001851615610100026000190190941693909304601f81018490048402820184019092528181529495949350908301828280156110eb5780601f106110c0576101008083540402835291602001916110eb565b820191906000526020600020905b8154815290600101906020018083116110ce57829003601f168201915b505050600484015460058501546006860154600787015460099097015495969295919450925060ff1689565b600054606090821115611162576040805160e560020a62461bcd02815260206004820152600f6024820152600080516020611a67833981519152604482015290519081900360640190fd5b600082815260036020908152604091829020600801805483518184028101840190945280845290918301828280156111c357602002820191906000526020600020905b8154600160a060020a031681526001909101906020018083116111a5575b50505050509050919050565b600160a060020a0381166000908152600260209081526040918290208054835181840281018401909452808452606093928301828280156111c357602002820191906000526020600020905b81548152602001906001019080831161121b5750505050509050919050565b600160a060020a0381166000908152600160209081526040918290208054835181840281018401909452808452606093928301828280156111c3576020028201919060005260206000209081548152602001906001019080831161121b5750505050509050919050565b60005481565b60046020908152600092835260408084208252918352918190208054600180830180548551600261010094831615949094026000190190911692909204601f8101879004870283018701909552848252600160a060020a039092169492939092830182828015610d735780601f10610d4857610100808354040283529160200191610d73565b600054811115611378576040805160e560020a62461bcd02815260206004820152600f6024820152600080516020611a67833981519152604482015290519081900360640190fd5b600081815260036020526040902060010154600160a060020a0316331461140f576040805160e560020a62461bcd02815260206004820152602260248201527f4f6e6c79206472697665722063616e2063616c6c20746869732066756e63746960448201527f6f6e000000000000000000000000000000000000000000000000000000000000606482015290519081900360840190fd5b6000818152600360205260409020600981015460ff16151561147b576040805160e560020a62461bcd02815260206004820152601260248201527f52696465206973206e6f74206163746976650000000000000000000000000000604482015290519081900360640190fd5b604051339060009082903031908381818185875af1925050503d80600081146114c0576040519150601f19603f3d011682016040523d82523d6000602084013e6114c5565b606091505b50509050801515611545576040805160e560020a62461bcd028152602060048201526024808201527f576974686472617720636f696e20696e2074686520636f6e747261637420666160448201527f696c656400000000000000000000000000000000000000000000000000000000606482015290519081900360840190fd5b5050600901805460ff1916905550565b600084815260036020908152604080832060070154815160a081018352600160a060020a038881168252818501888152828501889052606083018790526001608084018190528b885260048752858820948101808952948752949096208251815473ffffffffffffffffffffffffffffffffffffffff19169216919091178155945180519295919491936115f19390850192919091019061192c565b50604082810151600283015560608301516003808401919091556080909301516004909201805460ff19169215159290921790915560009687526020919091529094206007018054919091019055505050565b60005483111561168c576040805160e560020a62461bcd02815260206004820152600f6024820152600080516020611a67833981519152604482015290519081900360640190fd5b600083815260036020526040902060010154600160a060020a031633141561174a576040805160e560020a62461bcd02815260206004820152604160248201527f4a6f696e20526964653a2054686973206973206472697665722061646472657360448201527f732c207468652072696465206e65656420612070617373656e676572206a6f6960648201527f6e00000000000000000000000000000000000000000000000000000000000000608482015290519081900360a40190fd5b6000838152600360205260409020600681015460079091015410611792576040805160e560020a62461bcd028152602060048201526000602482015290519081900360640190fd5b6000838152600360205260409020600401548102670de0b6b3a7640000023414611806576040805160e560020a62461bcd02815260206004820152601560248201527f496e636f7272656374206661726520616d6f756e740000000000000000000000604482015290519081900360640190fd5b6000838152600560208181526040808420815160a08101835233815280840188815292810187905260608101869052608081018690528154600180820180855593885296859020825191909602909501805473ffffffffffffffffffffffffffffffffffffffff1916600160a060020a039096169590951785559151805191959294936118989385019291019061192c565b5060408201516002820155606082015160038201556080909101516004909101805460ff191691151591909117905550505050565b61014060405190810160405280600081526020016000600160a060020a03168152602001606081526020016060815260200160008152602001600081526020016000815260200160008152602001606081526020016000151581525090565b828054600181600116156101000203166002900490600052602060002090601f016020900481019282601f1061196d57805160ff191683800117855561199a565b8280016001018555821561199a579182015b8281111561199a57825182559160200191906001019061197f565b506119a6929150611a18565b5090565b828054828255906000526020600020908101928215611a0c579160200282015b82811115611a0c578251825473ffffffffffffffffffffffffffffffffffffffff1916600160a060020a039091161782556020909201916001909101906119ca565b506119a6929150611a35565b611a3291905b808211156119a65760008155600101611a1e565b90565b611a3291905b808211156119a657805473ffffffffffffffffffffffffffffffffffffffff19168155600101611a3b56fe496e76616c696420726964652049440000000000000000000000000000000000a165627a7a72305820cdfdf294f0cfa360e6269bce43ff68bd52a5b4d835e8d09e6816fddfd7ef4f7f0029",
  "source": "// SPDX-License-Identifier: MIT\n//pragma solidity >=0.4.22 <0.9.0;\npragma solidity ^0.5.0;\n\ncontract RideContract {\n    uint public rideCount;\n    \n\n    struct Ride {\n        uint id; \n        address payable driver; \n        string startPoint; //departure\n        string endPoint;    //destination\n        uint256 fare;   \n        uint256 startTime;\n        uint numOfSeats; \n        uint numOfPassengers; \n        address payable[] passengers;\n        bool isActive;\n    }\n  \n    //cấu trúc thông tin khách hàng\n    struct Passenger {\n        address payable addr; \n        string phoneNumber;\n        uint numOfPeople ; // một người có thể đặt cho nhiều người\n        uint256 verificationCode;\n        bool accepted; \n\n    }\n\n    mapping(address => uint[]) private createdRides; // Lưu trữ danh sách các chuyến đi đã được tạo bởi mỗi tài xế\n    mapping(address => uint[]) private joinedRides; // Lưu trữ danh sách các chuyến đi đã tham gia của mỗi hành khách\n    mapping(uint => Ride) public rides;\n    mapping(uint => mapping(uint => Passenger)) public passengers;\n    mapping(uint => Passenger []) public pendingPassengers;\n\n   \n    constructor() public {\n        // createRide(\"Start Point\", \"End Point\", 100); // Tạo một chuyến xe mẫu khi khởi tạo\n        rideCount = 0;\n       \n       \n    }\n    // Hàm trả về danh sách các chuyến đi đã được tạo bởi một tài xế cụ thể\n    function getCreatedRides(address _driver) external view returns (uint[] memory) {\n        return createdRides[_driver];\n    }\n\n    // Hàm trả về danh sách các chuyến đi mà một hành khách cụ thể đã tham gia\n    function getJoinedRides(address _passenger) external view returns (uint[] memory) {\n        return joinedRides[_passenger];\n    }\n     // Hàm để lấy thông tin của một chuyến đi cụ thể\n    function getRideDetails(uint _rideId) external view returns (string memory, string memory, uint256, uint256, bool, uint256, uint256) {\n        require(_rideId > 0 && _rideId <= rideCount, \"Invalid ride ID\");\n        Ride memory ride = rides[_rideId];\n        return (ride.startPoint, ride.endPoint, ride.fare, ride.startTime, ride.isActive, ride.numOfSeats, ride.numOfPassengers);\n    }\n    // hàm hoàn tiền về cho hành khách khi bị huỷ \n    function withdrawFunds(address payable _receiver, uint256 _amount) internal {\n    (bool success, ) = _receiver.call.value(_amount)(\"\");\n    require(success, \"Transfer failed.\");\n    }\n\n\n    function createRide(string calldata _startPoint, string calldata _endPoint, uint256 _fare, uint256 _startTime, uint _numOfSeats) external {\n        require(_fare > 0, \"Fare must be greater than zero\");\n        rideCount++; // Tăng số lượng chuyến xe\n\n        // Tạo một chuyến xe mới\n        Ride memory newRide;\n        newRide.id = rideCount;\n        newRide.driver = msg.sender;\n        newRide.startPoint = _startPoint;\n        newRide.endPoint = _endPoint;\n        newRide.fare = _fare;\n        newRide.startTime = _startTime;\n        newRide.isActive = true;\n        newRide.numOfSeats = _numOfSeats; \n        newRide.passengers ;\n        newRide.numOfPassengers = 0;\n        // Lưu trữ chuyến xe vào mapping\n        rides[rideCount] = newRide;\n        // Thêm chuyến xe vào danh sách chuyến đi đã tạo của tài xế\n        createdRides[msg.sender].push(newRide.id);\n    }\n    //Thêm thông tin hành khách vào chuyến xe\n    function addPassenger(uint _rideId, address payable _addr, string memory _phoneNumber, uint _numOfPeople) public {\n        uint256 passengerID = rides[_rideId].numOfPassengers + 1 ;\n        passengers[_rideId][passengerID] = Passenger ({\n            addr: _addr ,\n            phoneNumber:  _phoneNumber,\n            numOfPeople: _numOfPeople,\n            verificationCode:0,\n            accepted: true\n        });\n        // Cập nhật số lượng hành khách tham gia chuyến xe\n        rides[_rideId].numOfPassengers += _numOfPeople;\n    }\n\n    // Hàm sinh mã xác nhận ngẫu nhiên\n    function generateVerificationCode() private view returns (uint256) {\n        return uint256(keccak256(abi.encodePacked(block.timestamp, block.difficulty))) % 9000 + 1000;\n    }\n    // 1. Khi hành khách join chuyến (nhập thông tin và thanh toán )\n    function joinPendingRide(uint _rideId, string memory _phoneNumber, uint256 _numberOfPeople) public payable{\n        require(_rideId <= rideCount, \"Invalid ride ID\");\n        require(msg.sender != rides[_rideId].driver, \"Join Ride: This is driver address, the ride need a passenger join\");\n        //kiểm tra nếu còn đủ chỗ để thêm hành khách vapf \n        require(rides[_rideId].numOfPassengers < rides[_rideId].numOfSeats, \"\");\n        require(msg.value == _numberOfPeople*rides[_rideId].fare*1e18, \"Incorrect fare amount\");\n        pendingPassengers[_rideId].push(Passenger(msg.sender, _phoneNumber, _numberOfPeople, 0, false));\n    }\n    //2. Hàm tài xế chấp nhận hành khách và tạo mã xác nhận\n    // function acceptPassenger(uint _rideId, address _passenger) public {\n    //     Passenger storage passenger = pendingPassengers[_passenger][_rideId];\n    //     require(!passenger.accepted, \"Passenger already accepted\");\n    //     passenger.verificationCode = generateVerificationCode();\n    //     passenger.accepted = true;\n    // }\n    //3. Driver từ chối hành khách\n    // function rejectPendingPassenger(uint _rideId, address payable _passenger) public {\n    //     // Kiểm tra xem người gọi hàm có phải là tài xế của chuyến đi không\n    //     require(msg.sender == rides[_rideId].driver, \"Only driver can reject pending passenger\");\n\n    //     // Kiểm tra xem hành khách có tồn tại trong danh sách hàng đợi không\n    //     require(pendingPassengers[_passenger][_rideId].id == _rideId, \"Passenger not found in pending list\");\n\n    //     // Hoàn trả tiền đã gửi của hành khách\n    //     uint256 fareAmount = pendingPassengers[_passenger][_rideId].numOfPeople * rides[_rideId].fare * 1e18;\n    //    withdrawFunds(_passenger, fareAmount);\n\n    //     // Xóa hành khách khỏi danh sách hàng đợi\n    //     delete pendingPassengers[_passenger][_rideId];\n    // }\n\n    //4. Hàm hành khách nhập mã xác nhận và tham gia chuyến đi\n    // function enterVerificationCode(uint _rideId, uint256 _verificationCode) public {\n    //     Passenger storage passenger = pendingPassengers[msg.sender][_rideId];\n    //     require(passenger.accepted, \"Passenger not accepted yet\");\n    //     require(passenger.verificationCode == _verificationCode, \"Incorrect verification code\");\n    //     // Thêm hành khách vào danh sách của chuyến đi\n    //     addPassenger(_rideId, passenger.phoneNumber, passenger.numOfPeople);\n    //     // Xóa thông tin hành khách khỏi danh sách pending\n    //     delete pendingPassengers[msg.sender][_rideId];\n    // }\n\n    \n\n    //khi người dùng nhấn join vào chuyến có thể đi\n    function joinRide(uint256 _rideId) external payable {\n        require(_rideId <= rideCount, \"Invalid ride ID\");\n        require(msg.sender != rides[_rideId].driver, \"Join Ride: This is driver address, the ride need a passenger join\");\n        //kiểm tra nếu còn đủ chỗ để thêm hành khách vapf \n        require(rides[_rideId].numOfPassengers < rides[_rideId].numOfSeats, \"\");\n        require(msg.value == rides[_rideId].fare*1e18, \"Incorrect fare amount\");\n        \n        // thêm tài khoản của hành khách vào danh sách hành khách của chuyến\n        rides[_rideId].passengers.push(msg.sender);\n        rides[_rideId].numOfPassengers ++ ; \n\n       \n        // Thêm chuyến xe vào danh sách chuyến đi đã tham gia của hành khách\n        joinedRides[msg.sender].push(_rideId);\n\n    }\n\n\n    //khi chuyến đi kết thúc, tài xế thực hiện lấy tiền của hành khách\n    function completeRide(uint256 _rideId) external  {\n        require(_rideId <= rideCount, \"Invalid ride ID\");\n        require(msg.sender == rides[_rideId].driver, \"Only driver can call this function\");\n        Ride storage ride = rides[_rideId];\n        require(ride.isActive, \"Ride is not active\");\n\n        //rút tiền từ hợp đồng về tài khoản\n        address payable recipient = address(uint160(msg.sender)); // Chuyển msg.sender thành address payable\n        (bool callSuccess, ) = recipient.call.value(address(this).balance)(\"\");\n        require(callSuccess, \"Withdraw coin in the contract failed\");\n\n\n        // Deactivate ride\n        ride.isActive = false;\n\n    }\n    \n    function getPassengers(uint rideId) external view returns (address payable[] memory) {\n        require(rideId <= rideCount, \"Invalid ride ID\");\n        return rides[rideId].passengers;\n    }\n}\n",
  "sourcePath": "/Users/dattran/OneDrive - Hanoi University of Science and Technology/Documents/IT3931 Project II/project-II-blockchain-carpooling-system/contracts/RideContract.sol",
  "compiler": {
    "name": "solc",
    "version": "0.5.0+commit.1d4f565a.Emscripten.clang"
  },
  "schemaVersion": "3.0.1",
  "updatedAt": "2024-04-07T03:17:03.922Z",
  "devdoc": {
    "methods": {}
  },
  "userdoc": {
    "methods": {}
  }
}