{
  "contractName": "RideContract",
  "abi": [
    {
      "constant": true,
      "inputs": [
        {
          "name": "",
          "type": "uint256"
        },
        {
          "name": "",
          "type": "uint256"
        }
      ],
      "name": "pendingPassengers",
      "outputs": [
        {
          "name": "addr",
          "type": "address"
        },
        {
          "name": "phoneNumber",
          "type": "string"
        },
        {
          "name": "numOfPeople",
          "type": "uint256"
        },
        {
          "name": "verificationCode",
          "type": "uint256"
        },
        {
          "name": "accepted",
          "type": "bool"
        }
      ],
      "payable": false,
      "stateMutability": "view",
      "type": "function",
      "signature": "0x276f7f77"
    },
    {
      "constant": true,
      "inputs": [
        {
          "name": "",
          "type": "uint256"
        }
      ],
      "name": "rides",
      "outputs": [
        {
          "name": "id",
          "type": "uint256"
        },
        {
          "name": "driver",
          "type": "address"
        },
        {
          "name": "startPoint",
          "type": "string"
        },
        {
          "name": "endPoint",
          "type": "string"
        },
        {
          "name": "fare",
          "type": "uint256"
        },
        {
          "name": "startTime",
          "type": "uint256"
        },
        {
          "name": "numOfSeats",
          "type": "uint256"
        },
        {
          "name": "numOfPassengers",
          "type": "uint256"
        },
        {
          "name": "isActive",
          "type": "bool"
        }
      ],
      "payable": false,
      "stateMutability": "view",
      "type": "function",
      "signature": "0x5205f112"
    },
    {
      "constant": true,
      "inputs": [],
      "name": "rideCount",
      "outputs": [
        {
          "name": "",
          "type": "uint256"
        }
      ],
      "payable": false,
      "stateMutability": "view",
      "type": "function",
      "signature": "0xb47c1883"
    },
    {
      "constant": true,
      "inputs": [
        {
          "name": "",
          "type": "uint256"
        },
        {
          "name": "",
          "type": "uint256"
        }
      ],
      "name": "passengers",
      "outputs": [
        {
          "name": "addr",
          "type": "address"
        },
        {
          "name": "phoneNumber",
          "type": "string"
        },
        {
          "name": "numOfPeople",
          "type": "uint256"
        },
        {
          "name": "verificationCode",
          "type": "uint256"
        },
        {
          "name": "accepted",
          "type": "bool"
        }
      ],
      "payable": false,
      "stateMutability": "view",
      "type": "function",
      "signature": "0xbbacd514"
    },
    {
      "constant": true,
      "inputs": [
        {
          "name": "",
          "type": "uint256"
        }
      ],
      "name": "numOfPendings",
      "outputs": [
        {
          "name": "",
          "type": "uint256"
        }
      ],
      "payable": false,
      "stateMutability": "view",
      "type": "function",
      "signature": "0xc9412410"
    },
    {
      "inputs": [],
      "payable": false,
      "stateMutability": "nonpayable",
      "type": "constructor",
      "signature": "constructor"
    },
    {
      "constant": true,
      "inputs": [
        {
          "name": "_driver",
          "type": "address"
        }
      ],
      "name": "getCreatedRides",
      "outputs": [
        {
          "name": "",
          "type": "uint256[]"
        }
      ],
      "payable": false,
      "stateMutability": "view",
      "type": "function",
      "signature": "0x95fee328"
    },
    {
      "constant": true,
      "inputs": [
        {
          "name": "_passenger",
          "type": "address"
        }
      ],
      "name": "getJoinedRides",
      "outputs": [
        {
          "name": "",
          "type": "uint256[]"
        }
      ],
      "payable": false,
      "stateMutability": "view",
      "type": "function",
      "signature": "0x892cca8c"
    },
    {
      "constant": true,
      "inputs": [
        {
          "name": "_rideId",
          "type": "uint256"
        }
      ],
      "name": "getRideDetails",
      "outputs": [
        {
          "name": "",
          "type": "string"
        },
        {
          "name": "",
          "type": "string"
        },
        {
          "name": "",
          "type": "uint256"
        },
        {
          "name": "",
          "type": "uint256"
        },
        {
          "name": "",
          "type": "bool"
        },
        {
          "name": "",
          "type": "uint256"
        },
        {
          "name": "",
          "type": "uint256"
        }
      ],
      "payable": false,
      "stateMutability": "view",
      "type": "function",
      "signature": "0x1d6be93c"
    },
    {
      "constant": false,
      "inputs": [
        {
          "name": "_startPoint",
          "type": "string"
        },
        {
          "name": "_endPoint",
          "type": "string"
        },
        {
          "name": "_fare",
          "type": "uint256"
        },
        {
          "name": "_startTime",
          "type": "uint256"
        },
        {
          "name": "_numOfSeats",
          "type": "uint256"
        }
      ],
      "name": "createRide",
      "outputs": [],
      "payable": false,
      "stateMutability": "nonpayable",
      "type": "function",
      "signature": "0x2c0dd4e5"
    },
    {
      "constant": false,
      "inputs": [
        {
          "name": "_rideId",
          "type": "uint256"
        },
        {
          "name": "_addr",
          "type": "address"
        },
        {
          "name": "_phoneNumber",
          "type": "string"
        },
        {
          "name": "_numOfPeople",
          "type": "uint256"
        }
      ],
      "name": "addPassenger",
      "outputs": [],
      "payable": false,
      "stateMutability": "nonpayable",
      "type": "function",
      "signature": "0xf4465764"
    },
    {
      "constant": false,
      "inputs": [
        {
          "name": "_rideId",
          "type": "uint256"
        },
        {
          "name": "_phoneNumber",
          "type": "string"
        },
        {
          "name": "_numberOfPeople",
          "type": "uint256"
        }
      ],
      "name": "joinPendingRide",
      "outputs": [],
      "payable": true,
      "stateMutability": "payable",
      "type": "function",
      "signature": "0xfa9df9da"
    },
    {
      "constant": false,
      "inputs": [
        {
          "name": "_rideId",
          "type": "uint256"
        }
      ],
      "name": "joinRide",
      "outputs": [],
      "payable": true,
      "stateMutability": "payable",
      "type": "function",
      "signature": "0x01f32206"
    },
    {
      "constant": false,
      "inputs": [
        {
          "name": "_rideId",
          "type": "uint256"
        }
      ],
      "name": "completeRide",
      "outputs": [],
      "payable": false,
      "stateMutability": "nonpayable",
      "type": "function",
      "signature": "0xc416dd0b"
    },
    {
      "constant": true,
      "inputs": [
        {
          "name": "rideId",
          "type": "uint256"
        }
      ],
      "name": "getPassengers",
      "outputs": [
        {
          "name": "",
          "type": "address[]"
        }
      ],
      "payable": false,
      "stateMutability": "view",
      "type": "function",
      "signature": "0x6d4d31f2"
    }
  ],
  "bytecode": "0x608060405234801561001057600080fd5b5060008055611b19806100246000396000f3fe6080604052600436106100cf5763ffffffff7c010000000000000000000000000000000000000000000000000000000060003504166301f3220681146100d45780631d6be93c146100e9578063276f7f77146101255780632c0dd4e5146101565780635205f112146101765780636d4d31f2146101ab578063892cca8c146101d857806395fee32814610205578063b47c188314610225578063bbacd51414610247578063c416dd0b14610267578063c941241014610287578063f4465764146102a7578063fa9df9da146102c7575b600080fd5b6100e76100e23660046113f1565b6102da565b005b3480156100f557600080fd5b506101096101043660046113f1565b610424565b60405161011c9796959493929190611888565b60405180910390f35b34801561013157600080fd5b506101456101403660046114ed565b61069b565b60405161011c959493929190611813565b34801561016257600080fd5b506100e7610171366004611344565b610782565b34801561018257600080fd5b506101966101913660046113f1565b61097b565b60405161011c99989796959493929190611990565b3480156101b757600080fd5b506101cb6101c63660046113f1565b610ae3565b60405161011c9190611866565b3480156101e457600080fd5b506101f86101f336600461131e565b610b78565b60405161011c9190611877565b34801561021157600080fd5b506101f861022036600461131e565b610be3565b34801561023157600080fd5b5061023a610c4d565b60405161011c9190611982565b34801561025357600080fd5b506101456102623660046114ed565b610c53565b34801561027357600080fd5b506100e76102823660046113f1565b610cd9565b34801561029357600080fd5b5061023a6102a23660046113f1565b610df1565b3480156102b357600080fd5b506100e76102c236600461140f565b610e03565b6100e76102d5366004611488565b610ef2565b6000548111156103085760405160e560020a62461bcd0281526004016102ff906118fc565b60405180910390fd5b600081815260036020526040902060010154600160a060020a03163314156103455760405160e560020a62461bcd0281526004016102ff90611972565b600081815260036020526040902060068101546007909101541061037e5760405160e560020a62461bcd0281526004016102ff90611922565b600081815260036020526040902060040154670de0b6b3a76400000234146103bb5760405160e560020a62461bcd0281526004016102ff90611962565b60008181526003602090815260408083206008810180546001818101835591865284862001805473ffffffffffffffffffffffffffffffffffffffff19163390811790915560079092018054820190559084526002835290832080549182018155835291200155565b6060806000806000806000808811801561044057506000548811155b15156104615760405160e560020a62461bcd0281526004016102ff906118fc565b6104696110c9565b60008981526003602090815260409182902082516101408101845281548152600180830154600160a060020a0316828501526002808401805487516101009482161594909402600019011691909104601f810186900486028301860187528083529295939493860193919290918301828280156105275780601f106104fc57610100808354040283529160200191610527565b820191906000526020600020905b81548152906001019060200180831161050a57829003601f168201915b505050918352505060038201805460408051602060026001851615610100026000190190941693909304601f81018490048402820184019092528181529382019392918301828280156105bb5780601f10610590576101008083540402835291602001916105bb565b820191906000526020600020905b81548152906001019060200180831161059e57829003601f168201915b50505050508152602001600482015481526020016005820154815260200160068201548152602001600782015481526020016008820180548060200260200160405190810160405280929190818152602001828054801561064557602002820191906000526020600020905b8154600160a060020a03168152600190910190602001808311610627575b50505091835250506009919091015460ff16151560209091015260408101516060820151608083015160a084015161012085015160c086015160e090960151949f939e50919c509a509850919650945092505050565b6005602052816000526040600020818154811015156106b657fe5b600091825260209182902060059091020180546001808301805460408051601f6002600019968516156101000296909601909316949094049182018790048702840187019052808352600160a060020a039093169650929450928301828280156107615780601f1061073657610100808354040283529160200191610761565b820191906000526020600020905b81548152906001019060200180831161074457829003601f168201915b50505050600283015460038401546004909401549293909290915060ff1685565b600083116107a55760405160e560020a62461bcd0281526004016102ff90611932565b6000805460010190556107b66110c9565b60005481523360208083019190915260408051601f8a0183900483028101830190915288815290899089908190840183828082843760009201919091525050505060408083019190915280516020601f8801819004810282018101909252868152908790879081908401838280828437600092018290525060608601949094525050506080820185905260a082018490526001610120830181905260c0830184905260e0830182905281548252600360209081526040928390208451815581850151928101805473ffffffffffffffffffffffffffffffffffffffff1916600160a060020a039094169390931790925591830151805184936108bf926002850192910190611128565b50606082015180516108db916003840191602090910190611128565b506080820151600482015560a0820151600582015560c0820151600682015560e0820151600782015561010082015180516109209160088401916020909101906111a6565b5061012091909101516009909101805460ff1916911515919091179055336000908152600160208181526040808420945185549384018655948452818420909201939093558154825260069092529081205550505050505050565b60036020908152600091825260409182902080546001808301546002808501805488516101009582161595909502600019011691909104601f81018790048702840187019097528683529295600160a060020a0390911694919291830182828015610a275780601f106109fc57610100808354040283529160200191610a27565b820191906000526020600020905b815481529060010190602001808311610a0a57829003601f168201915b5050505060038301805460408051602060026001851615610100026000190190941693909304601f8101849004840282018401909252818152949594935090830182828015610ab75780601f10610a8c57610100808354040283529160200191610ab7565b820191906000526020600020905b815481529060010190602001808311610a9a57829003601f168201915b505050600484015460058501546006860154600787015460099097015495969295919450925060ff1689565b600054606090821115610b0b5760405160e560020a62461bcd0281526004016102ff906118fc565b60008281526003602090815260409182902060080180548351818402810184019094528084529091830182828015610b6c57602002820191906000526020600020905b8154600160a060020a03168152600190910190602001808311610b4e575b50505050509050919050565b600160a060020a038116600090815260026020908152604091829020805483518184028101840190945280845260609392830182828015610b6c57602002820191906000526020600020905b815481526020019060010190808311610bc45750505050509050919050565b600160a060020a038116600090815260016020908152604091829020805483518184028101840190945280845260609392830182828015610b6c5760200282019190600052602060002090815481526020019060010190808311610bc45750505050509050919050565b60005481565b60046020908152600092835260408084208252918352918190208054600180830180548551600261010094831615949094026000190190911692909204601f8101879004870283018701909552848252600160a060020a0390921694929390928301828280156107615780601f1061073657610100808354040283529160200191610761565b600054811115610cfe5760405160e560020a62461bcd0281526004016102ff906118fc565b600081815260036020526040902060010154600160a060020a03163314610d3a5760405160e560020a62461bcd0281526004016102ff90611942565b6000818152600360205260409020600981015460ff161515610d715760405160e560020a62461bcd0281526004016102ff90611952565b604051339060009082903031908381818185875af1925050503d8060008114610db6576040519150601f19603f3d011682016040523d82523d6000602084013e610dbb565b606091505b50509050801515610de15760405160e560020a62461bcd0281526004016102ff90611912565b5050600901805460ff1916905550565b60066020526000908152604090205481565b600084815260036020908152604080832060070154815160a081018352600160a060020a038881168252818501888152828501889052606083018790526001608084018190528b885260048752858820948101808952948752949096208251815473ffffffffffffffffffffffffffffffffffffffff1916921691909117815594518051929591949193610e9f93908501929190910190611128565b50604082810151600283015560608301516003808401919091556080909301516004909201805460ff19169215159290921790915560009687526020919091529094206007018054919091019055505050565b600054831115610f175760405160e560020a62461bcd0281526004016102ff906118fc565b600083815260036020526040902060010154600160a060020a0316331415610f545760405160e560020a62461bcd0281526004016102ff90611972565b6000838152600360205260409020600681015460079091015410610f8d5760405160e560020a62461bcd0281526004016102ff90611922565b6000838152600360205260409020600401548102670de0b6b3a7640000023414610fcc5760405160e560020a62461bcd0281526004016102ff90611962565b6000838152600560208181526040808420815160a08101835233815280840188815292810187905260608101869052608081018690528154600180820180855593885296859020825191909602909501805473ffffffffffffffffffffffffffffffffffffffff1916600160a060020a0390961695909517855591518051919592949361105e93850192910190611128565b50604082810151600283810191909155606084015160038401556080909301516004909201805460ff19169215159290921790915560008681526006602090815282822080546001908101909155338352938152918120805493840181558152200193909355505050565b61014060405190810160405280600081526020016000600160a060020a03168152602001606081526020016060815260200160008152602001600081526020016000815260200160008152602001606081526020016000151581525090565b828054600181600116156101000203166002900490600052602060002090601f016020900481019282601f1061116957805160ff1916838001178555611196565b82800160010185558215611196579182015b8281111561119657825182559160200191906001019061117b565b506111a2929150611214565b5090565b828054828255906000526020600020908101928215611208579160200282015b82811115611208578251825473ffffffffffffffffffffffffffffffffffffffff1916600160a060020a039091161782556020909201916001909101906111c6565b506111a2929150611231565b61122e91905b808211156111a2576000815560010161121a565b90565b61122e91905b808211156111a257805473ffffffffffffffffffffffffffffffffffffffff19168155600101611237565b600061126e8235611a7d565b9392505050565b600080601f8301841361128757600080fd5b50813567ffffffffffffffff81111561129f57600080fd5b6020830191508360018202830111156112b757600080fd5b9250929050565b6000601f820183136112cf57600080fd5b81356112e26112dd82611a4b565b611a24565b915080825260208301602083018583830111156112fe57600080fd5b611309838284611a99565b50505092915050565b600061126e823561122e565b60006020828403121561133057600080fd5b600061133c8484611262565b949350505050565b600080600080600080600060a0888a03121561135f57600080fd5b873567ffffffffffffffff81111561137657600080fd5b6113828a828b01611275565b9750975050602088013567ffffffffffffffff8111156113a157600080fd5b6113ad8a828b01611275565b955095505060406113c08a828b01611312565b93505060606113d18a828b01611312565b92505060806113e28a828b01611312565b91505092959891949750929550565b60006020828403121561140357600080fd5b600061133c8484611312565b6000806000806080858703121561142557600080fd5b60006114318787611312565b945050602061144287828801611262565b935050604085013567ffffffffffffffff81111561145f57600080fd5b61146b878288016112be565b925050606061147c87828801611312565b91505092959194509250565b60008060006060848603121561149d57600080fd5b60006114a98686611312565b935050602084013567ffffffffffffffff8111156114c657600080fd5b6114d2868287016112be565b92505060406114e386828701611312565b9150509250925092565b6000806040838503121561150057600080fd5b600061150c8585611312565b925050602061151d85828601611312565b9150509250929050565b61153081611a7d565b82525050565b600061154182611a79565b80845260208401935061155383611a73565b60005b8281101561158357611569868351611527565b61157282611a73565b602096909601959150600101611556565b5093949350505050565b600061159882611a79565b8084526020840193506115aa83611a73565b60005b82811015611583576115c086835161180a565b6115c982611a73565b6020969096019591506001016115ad565b61153081611a88565b60006115ee82611a79565b808452611602816020860160208601611aa5565b61160b81611ad5565b9093016020019392505050565b600f81527f496e76616c696420726964652049440000000000000000000000000000000000602082015260400190565b602481527f576974686472617720636f696e20696e2074686520636f6e747261637420666160208201527f696c656400000000000000000000000000000000000000000000000000000000604082015260600190565b6000815260200190565b601e81527f46617265206d7573742062652067726561746572207468616e207a65726f0000602082015260400190565b602281527f4f6e6c79206472697665722063616e2063616c6c20746869732066756e63746960208201527f6f6e000000000000000000000000000000000000000000000000000000000000604082015260600190565b601281527f52696465206973206e6f74206163746976650000000000000000000000000000602082015260400190565b601581527f496e636f7272656374206661726520616d6f756e740000000000000000000000602082015260400190565b604181527f4a6f696e20526964653a2054686973206973206472697665722061646472657360208201527f732c207468652072696465206e65656420612070617373656e676572206a6f6960408201527f6e00000000000000000000000000000000000000000000000000000000000000606082015260800190565b6115308161122e565b60a081016118218288611527565b818103602083015261183381876115e3565b9050611842604083018661180a565b61184f606083018561180a565b61185c60808301846115da565b9695505050505050565b6020808252810161126e8184611536565b6020808252810161126e818461158d565b60e08082528101611899818a6115e3565b905081810360208301526118ad81896115e3565b90506118bc604083018861180a565b6118c9606083018761180a565b6118d660808301866115da565b6118e360a083018561180a565b6118f060c083018461180a565b98975050505050505050565b6020808252810161190c81611618565b92915050565b6020808252810161190c81611648565b6020808252810161190c8161169e565b6020808252810161190c816116a8565b6020808252810161190c816116d8565b6020808252810161190c8161172e565b6020808252810161190c8161175e565b6020808252810161190c8161178e565b6020810161190c828461180a565b610120810161199f828c61180a565b6119ac602083018b611527565b81810360408301526119be818a6115e3565b905081810360608301526119d281896115e3565b90506119e1608083018861180a565b6119ee60a083018761180a565b6119fb60c083018661180a565b611a0860e083018561180a565b611a166101008301846115da565b9a9950505050505050505050565b60405181810167ffffffffffffffff81118282101715611a4357600080fd5b604052919050565b600067ffffffffffffffff821115611a6257600080fd5b506020601f91909101601f19160190565b60200190565b5190565b600061190c82611a8d565b151590565b600160a060020a031690565b82818337506000910152565b60005b83811015611ac0578181015183820152602001611aa8565b83811115611acf576000848401525b50505050565b601f01601f19169056fea265627a7a72305820c724819408e7e67e8dfa6a069ed3912d8fd85f6381668d6e90b231a2eb4630506c6578706572696d656e74616cf50037",
  "source": "// SPDX-License-Identifier: MIT\n//pragma solidity >=0.4.22 <0.9.0;\npragma solidity ^0.5.0;\npragma experimental ABIEncoderV2;\ncontract RideContract {\n    uint public rideCount;\n    \n\n    struct Ride {\n        uint id; \n        address payable driver; \n        string startPoint; //departure\n        string endPoint;    //destination\n        uint256 fare;   \n        uint256 startTime;\n        uint numOfSeats; \n        uint numOfPassengers; \n        address payable[] passengers;\n        bool isActive;\n    }\n  \n    //cu trc thng tin khch hng\n    struct Passenger {\n        address payable addr; \n        string phoneNumber;\n        uint numOfPeople ; // mt ngi c th t cho nhiu ngi\n        uint256 verificationCode;\n        bool accepted; \n\n    }\n\n    mapping(address => uint[]) private createdRides; // Lu tr danh sch cc chuyn i  c to bi mi ti x\n    mapping(address => uint[]) private joinedRides; // Lu tr danh sch cc chuyn i  tham gia ca mi hnh khch\n    mapping(uint => Ride) public rides;\n    mapping(uint => mapping(uint => Passenger)) public passengers;\n    mapping(uint => Passenger[]) public pendingPassengers;\n    mapping(uint => uint) public numOfPendings; // s lng pending ca mi chuyn\n   \n    constructor() public {\n        // createRide(\"Start Point\", \"End Point\", 100); // To mt chuyn xe mu khi khi to\n        rideCount = 0;\n       \n       \n    }\n    // Hm tr v danh sch cc chuyn i  c to bi mt ti x c th\n    function getCreatedRides(address _driver) external view returns (uint[] memory) {\n        return createdRides[_driver];\n    }\n\n    // Hm tr v danh sch cc chuyn i m mt hnh khch c th  tham gia\n    function getJoinedRides(address _passenger) external view returns (uint[] memory) {\n        return joinedRides[_passenger];\n    }\n     // Hm  ly thng tin ca mt chuyn i c th\n    function getRideDetails(uint _rideId) external view returns (string memory, string memory, uint256, uint256, bool, uint256, uint256) {\n        require(_rideId > 0 && _rideId <= rideCount, \"Invalid ride ID\");\n        Ride memory ride = rides[_rideId];\n        return (ride.startPoint, ride.endPoint, ride.fare, ride.startTime, ride.isActive, ride.numOfSeats, ride.numOfPassengers);\n    }\n    \n    // hm hon tin v cho hnh khch khi b hu \n    function withdrawFunds(address payable _receiver, uint256 _amount) internal {\n    (bool success, ) = _receiver.call.value(_amount)(\"\");\n    require(success, \"Transfer failed.\");\n    }\n\n\n    function createRide(string calldata _startPoint, string calldata _endPoint, uint256 _fare, uint256 _startTime, uint _numOfSeats) external {\n        require(_fare > 0, \"Fare must be greater than zero\");\n        rideCount++; // Tng s lng chuyn xe\n\n        // To mt chuyn xe mi\n        Ride memory newRide;\n        newRide.id = rideCount;\n        newRide.driver = msg.sender;\n        newRide.startPoint = _startPoint;\n        newRide.endPoint = _endPoint;\n        newRide.fare = _fare;\n        newRide.startTime = _startTime;\n        newRide.isActive = true;\n        newRide.numOfSeats = _numOfSeats; \n        newRide.passengers ;\n        newRide.numOfPassengers = 0;\n        // Lu tr chuyn xe vo mapping\n        rides[rideCount] = newRide;\n        // Thm chuyn xe vo danh sch chuyn i  to ca ti x\n        createdRides[msg.sender].push(newRide.id);\n\n        numOfPendings[rideCount] = 0;\n    }\n    //Thm thng tin hnh khch vo chuyn xe\n    function addPassenger(uint _rideId, address payable _addr, string memory _phoneNumber, uint _numOfPeople) public {\n        uint256 passengerID = rides[_rideId].numOfPassengers + 1 ;\n        passengers[_rideId][passengerID] = Passenger ({\n            addr: _addr ,\n            phoneNumber:  _phoneNumber,\n            numOfPeople: _numOfPeople,\n            verificationCode:0,\n            accepted: true\n        });\n        // Cp nht s lng hnh khch tham gia chuyn xe\n        rides[_rideId].numOfPassengers += _numOfPeople;\n    }\n\n    // Hm sinh m xc nhn ngu nhin\n    function generateVerificationCode() private view returns (uint256) {\n        return uint256(keccak256(abi.encodePacked(block.timestamp, block.difficulty))) % 9000 + 1000;\n    }\n    // 1. Khi hnh khch join chuyn (nhp thng tin v thanh ton )\n    function joinPendingRide(uint _rideId, string memory _phoneNumber, uint256 _numberOfPeople) public payable{\n        require(_rideId <= rideCount, \"Invalid ride ID\");\n        require(msg.sender != rides[_rideId].driver, \"Join Ride: This is driver address, the ride need a passenger join\");\n        //kim tra nu cn  ch  thm hnh khch vapf \n        require(rides[_rideId].numOfPassengers < rides[_rideId].numOfSeats, \"\");\n        require(msg.value == _numberOfPeople*rides[_rideId].fare*1e18, \"Incorrect fare amount\");\n        pendingPassengers[_rideId].push(Passenger(msg.sender, _phoneNumber, _numberOfPeople, 0, false));\n        numOfPendings[_rideId]++;\n        //Them chuyen xe vao danh sach chuyen xe da tham gia\n        joinedRides[msg.sender].push(_rideId);\n    }\n    //2. Hm ti x chp nhn hnh khch v to m xc nhn\n    // function acceptPassenger(uint _rideId, address _passenger) public {\n    //     Passenger storage passenger = pendingPassengers[_passenger][_rideId];\n    //     require(!passenger.accepted, \"Passenger already accepted\");\n    //     passenger.verificationCode = generateVerificationCode();\n    //     passenger.accepted = true;\n    // }\n    //3. Driver t chi hnh khch\n    // function rejectPendingPassenger(uint _rideId, address payable _passenger) public {\n    //     // Kim tra xem ngi gi hm c phi l ti x ca chuyn i khng\n    //     require(msg.sender == rides[_rideId].driver, \"Only driver can reject pending passenger\");\n\n    //     // Kim tra xem hnh khch c tn ti trong danh sch hng i khng\n    //     require(pendingPassengers[_passenger][_rideId].id == _rideId, \"Passenger not found in pending list\");\n\n    //     // Hon tr tin  gi ca hnh khch\n    //     uint256 fareAmount = pendingPassengers[_passenger][_rideId].numOfPeople * rides[_rideId].fare * 1e18;\n    //    withdrawFunds(_passenger, fareAmount);\n\n    //     // Xa hnh khch khi danh sch hng i\n    //     delete pendingPassengers[_passenger][_rideId];\n    // }\n\n    //4. Hm hnh khch nhp m xc nhn v tham gia chuyn i\n    // function enterVerificationCode(uint _rideId, uint256 _verificationCode) public {\n    //     Passenger storage passenger = pendingPassengers[msg.sender][_rideId];\n    //     require(passenger.accepted, \"Passenger not accepted yet\");\n    //     require(passenger.verificationCode == _verificationCode, \"Incorrect verification code\");\n    //     // Thm hnh khch vo danh sch ca chuyn i\n    //     addPassenger(_rideId, passenger.phoneNumber, passenger.numOfPeople);\n    //     // Xa thng tin hnh khch khi danh sch pending\n    //     delete pendingPassengers[msg.sender][_rideId];\n    // }\n\n    \n\n    //khi ngi dng nhn join vo chuyn c th i\n    function joinRide(uint256 _rideId) external payable {\n        require(_rideId <= rideCount, \"Invalid ride ID\");\n        require(msg.sender != rides[_rideId].driver, \"Join Ride: This is driver address, the ride need a passenger join\");\n        //kim tra nu cn  ch  thm hnh khch vapf \n        require(rides[_rideId].numOfPassengers < rides[_rideId].numOfSeats, \"\");\n        require(msg.value == rides[_rideId].fare*1e18, \"Incorrect fare amount\");\n        \n        // thm ti khon ca hnh khch vo danh sch hnh khch ca chuyn\n        rides[_rideId].passengers.push(msg.sender);\n        rides[_rideId].numOfPassengers ++ ; \n\n       \n        // Thm chuyn xe vo danh sch chuyn i  tham gia ca hnh khch\n        joinedRides[msg.sender].push(_rideId);\n\n    }\n\n\n    //khi chuyn i kt thc, ti x thc hin ly tin ca hnh khch\n    function completeRide(uint256 _rideId) external  {\n        require(_rideId <= rideCount, \"Invalid ride ID\");\n        require(msg.sender == rides[_rideId].driver, \"Only driver can call this function\");\n        Ride storage ride = rides[_rideId];\n        require(ride.isActive, \"Ride is not active\");\n\n        //rt tin t hp ng v ti khon\n        address payable recipient = address(uint160(msg.sender)); // Chuyn msg.sender thnh address payable\n        (bool callSuccess, ) = recipient.call.value(address(this).balance)(\"\");\n        require(callSuccess, \"Withdraw coin in the contract failed\");\n\n\n        // Deactivate ride\n        ride.isActive = false;\n\n    }\n    \n    function getPassengers(uint rideId) external view returns (address payable[] memory) {\n        require(rideId <= rideCount, \"Invalid ride ID\");\n        return rides[rideId].passengers;\n    }\n\n \n\n}\n",
  "sourcePath": "/Users/dattran/OneDrive - Hanoi University of Science and Technology/Documents/IT3931 Project II/project-II-blockchain-carpooling-system/contracts/RideContract.sol",
  "compiler": {
    "name": "solc",
    "version": "0.5.0+commit.1d4f565a.Emscripten.clang"
  },
  "schemaVersion": "3.0.1",
  "updatedAt": "2024-04-07T08:19:30.014Z",
  "devdoc": {
    "methods": {}
  },
  "userdoc": {
    "methods": {}
  }
}