{
  "contractName": "RideContract",
  "abi": [
    {
      "constant": true,
      "inputs": [
        {
          "name": "",
          "type": "address"
        },
        {
          "name": "",
          "type": "uint256"
        }
      ],
      "name": "balanceChangeHistory",
      "outputs": [
        {
          "name": "",
          "type": "uint256"
        }
      ],
      "payable": false,
      "stateMutability": "view",
      "type": "function",
      "signature": "0x0252f904"
    },
    {
      "constant": true,
      "inputs": [
        {
          "name": "",
          "type": "uint256"
        },
        {
          "name": "",
          "type": "uint256"
        }
      ],
      "name": "pendingPassengers",
      "outputs": [
        {
          "name": "addr",
          "type": "address"
        },
        {
          "name": "phoneNumber",
          "type": "string"
        },
        {
          "name": "numOfPeople",
          "type": "uint256"
        },
        {
          "name": "verificationCode",
          "type": "uint256"
        },
        {
          "name": "arrived",
          "type": "bool"
        }
      ],
      "payable": false,
      "stateMutability": "view",
      "type": "function",
      "signature": "0x276f7f77"
    },
    {
      "constant": true,
      "inputs": [
        {
          "name": "",
          "type": "uint256"
        }
      ],
      "name": "rides",
      "outputs": [
        {
          "name": "id",
          "type": "uint256"
        },
        {
          "name": "driver",
          "type": "address"
        },
        {
          "name": "startPoint",
          "type": "string"
        },
        {
          "name": "endPoint",
          "type": "string"
        },
        {
          "name": "fare",
          "type": "uint256"
        },
        {
          "name": "startTime",
          "type": "uint256"
        },
        {
          "name": "numOfSeats",
          "type": "uint256"
        },
        {
          "name": "numOfPassengers",
          "type": "uint256"
        },
        {
          "name": "isActive",
          "type": "bool"
        },
        {
          "name": "startLongitude",
          "type": "int256"
        },
        {
          "name": "startLatitude",
          "type": "int256"
        },
        {
          "name": "endLongitude",
          "type": "int256"
        },
        {
          "name": "endLatitude",
          "type": "int256"
        }
      ],
      "payable": false,
      "stateMutability": "view",
      "type": "function",
      "signature": "0x5205f112"
    },
    {
      "constant": true,
      "inputs": [],
      "name": "balanceChangeCounter",
      "outputs": [
        {
          "name": "",
          "type": "uint256"
        }
      ],
      "payable": false,
      "stateMutability": "view",
      "type": "function",
      "signature": "0x76ad1e1e"
    },
    {
      "constant": true,
      "inputs": [
        {
          "name": "",
          "type": "uint256"
        }
      ],
      "name": "balanceChanges",
      "outputs": [
        {
          "name": "user",
          "type": "address"
        },
        {
          "name": "amount",
          "type": "int256"
        },
        {
          "name": "timestamp",
          "type": "uint256"
        },
        {
          "name": "description",
          "type": "string"
        }
      ],
      "payable": false,
      "stateMutability": "view",
      "type": "function",
      "signature": "0xb4230b0a"
    },
    {
      "constant": true,
      "inputs": [],
      "name": "rideCount",
      "outputs": [
        {
          "name": "",
          "type": "uint256"
        }
      ],
      "payable": false,
      "stateMutability": "view",
      "type": "function",
      "signature": "0xb47c1883"
    },
    {
      "constant": true,
      "inputs": [
        {
          "name": "",
          "type": "uint256"
        },
        {
          "name": "",
          "type": "uint256"
        }
      ],
      "name": "passengers",
      "outputs": [
        {
          "name": "addr",
          "type": "address"
        },
        {
          "name": "phoneNumber",
          "type": "string"
        },
        {
          "name": "numOfPeople",
          "type": "uint256"
        },
        {
          "name": "verificationCode",
          "type": "uint256"
        },
        {
          "name": "arrived",
          "type": "bool"
        }
      ],
      "payable": false,
      "stateMutability": "view",
      "type": "function",
      "signature": "0xbbacd514"
    },
    {
      "constant": true,
      "inputs": [
        {
          "name": "",
          "type": "uint256"
        }
      ],
      "name": "numOfPendings",
      "outputs": [
        {
          "name": "",
          "type": "uint256"
        }
      ],
      "payable": false,
      "stateMutability": "view",
      "type": "function",
      "signature": "0xc9412410"
    },
    {
      "inputs": [],
      "payable": false,
      "stateMutability": "nonpayable",
      "type": "constructor",
      "signature": "constructor"
    },
    {
      "anonymous": false,
      "inputs": [
        {
          "indexed": true,
          "name": "rideId",
          "type": "uint256"
        },
        {
          "indexed": true,
          "name": "driver",
          "type": "address"
        },
        {
          "indexed": false,
          "name": "startPoint",
          "type": "string"
        },
        {
          "indexed": false,
          "name": "endPoint",
          "type": "string"
        },
        {
          "indexed": false,
          "name": "fare",
          "type": "uint256"
        },
        {
          "indexed": false,
          "name": "startTime",
          "type": "uint256"
        },
        {
          "indexed": false,
          "name": "numOfSeats",
          "type": "uint256"
        }
      ],
      "name": "RideCreated",
      "type": "event",
      "signature": "0x7b45b809d122c6b4864ce8d0a9993c19667affbaf8f6b77c760021e10a016f7e"
    },
    {
      "anonymous": false,
      "inputs": [
        {
          "indexed": true,
          "name": "rideId",
          "type": "uint256"
        },
        {
          "indexed": true,
          "name": "passenger",
          "type": "address"
        },
        {
          "indexed": false,
          "name": "phoneNumber",
          "type": "string"
        },
        {
          "indexed": false,
          "name": "numOfPeople",
          "type": "uint256"
        },
        {
          "indexed": true,
          "name": "driver",
          "type": "address"
        }
      ],
      "name": "PassengerJoined",
      "type": "event",
      "signature": "0x868f82ae3b0855659ed04d599593110f19d37fc77e584523d642130e8ef38f97"
    },
    {
      "anonymous": false,
      "inputs": [
        {
          "indexed": true,
          "name": "rideId",
          "type": "uint256"
        },
        {
          "indexed": true,
          "name": "passenger",
          "type": "address"
        }
      ],
      "name": "PassengerCancelled",
      "type": "event",
      "signature": "0x58d54330062419cad3cec1ba663980edde85e9d3f52f990fb2b4bc773ac3dd95"
    },
    {
      "anonymous": false,
      "inputs": [
        {
          "indexed": true,
          "name": "rideId",
          "type": "uint256"
        },
        {
          "indexed": true,
          "name": "driver",
          "type": "address"
        }
      ],
      "name": "RideCompleted",
      "type": "event",
      "signature": "0x293561dd13070ed4d83fa8683b4a93e939f52e0bb5fa61b0d25cc576bf437873"
    },
    {
      "anonymous": false,
      "inputs": [
        {
          "indexed": true,
          "name": "rideId",
          "type": "uint256"
        },
        {
          "indexed": true,
          "name": "passenger",
          "type": "address"
        }
      ],
      "name": "PassengerArrived",
      "type": "event",
      "signature": "0xe7ea48a4921ce71d402b33c9540d78121bb3bf692233144599ecbdd102c0d852"
    },
    {
      "anonymous": false,
      "inputs": [
        {
          "indexed": true,
          "name": "rideId",
          "type": "uint256"
        },
        {
          "indexed": true,
          "name": "passenger",
          "type": "address"
        }
      ],
      "name": "PassengerAccepted",
      "type": "event",
      "signature": "0x9b8c206290be4fb6bf89e37fc9ac8e18ab1894b3fd8c9bf1993b00d40d6dd033"
    },
    {
      "anonymous": false,
      "inputs": [
        {
          "indexed": true,
          "name": "rideId",
          "type": "uint256"
        },
        {
          "indexed": true,
          "name": "passenger",
          "type": "address"
        }
      ],
      "name": "PassengerDeclined",
      "type": "event",
      "signature": "0x26405425e7d10e372e99f656c9d921664b31c50157b9f477d5524451f23b9bcf"
    },
    {
      "anonymous": false,
      "inputs": [
        {
          "indexed": true,
          "name": "account",
          "type": "address"
        },
        {
          "indexed": false,
          "name": "amount",
          "type": "int256"
        }
      ],
      "name": "BalanceChanged",
      "type": "event",
      "signature": "0x3ff2d899473ac1b863e774d16dcdcdcbe0b40d9909794367ccbea198f37a7976"
    },
    {
      "constant": true,
      "inputs": [
        {
          "name": "_driver",
          "type": "address"
        }
      ],
      "name": "getCreatedRides",
      "outputs": [
        {
          "name": "",
          "type": "uint256[]"
        }
      ],
      "payable": false,
      "stateMutability": "view",
      "type": "function",
      "signature": "0x95fee328"
    },
    {
      "constant": true,
      "inputs": [
        {
          "name": "_passenger",
          "type": "address"
        }
      ],
      "name": "getJoinedRides",
      "outputs": [
        {
          "name": "",
          "type": "uint256[]"
        }
      ],
      "payable": false,
      "stateMutability": "view",
      "type": "function",
      "signature": "0x892cca8c"
    },
    {
      "constant": true,
      "inputs": [
        {
          "name": "_rideId",
          "type": "uint256"
        }
      ],
      "name": "getRideDetails",
      "outputs": [
        {
          "name": "",
          "type": "string"
        },
        {
          "name": "",
          "type": "string"
        },
        {
          "name": "",
          "type": "uint256"
        },
        {
          "name": "",
          "type": "uint256"
        },
        {
          "name": "",
          "type": "bool"
        },
        {
          "name": "",
          "type": "uint256"
        },
        {
          "name": "",
          "type": "uint256"
        }
      ],
      "payable": false,
      "stateMutability": "view",
      "type": "function",
      "signature": "0x1d6be93c"
    },
    {
      "constant": true,
      "inputs": [
        {
          "name": "_account",
          "type": "address"
        }
      ],
      "name": "getHistory",
      "outputs": [
        {
          "name": "",
          "type": "uint256[]"
        }
      ],
      "payable": false,
      "stateMutability": "view",
      "type": "function",
      "signature": "0x80396811"
    },
    {
      "constant": true,
      "inputs": [
        {
          "name": "_address",
          "type": "address"
        }
      ],
      "name": "getBalanceChangeHistory",
      "outputs": [
        {
          "name": "",
          "type": "uint256[]"
        }
      ],
      "payable": false,
      "stateMutability": "view",
      "type": "function",
      "signature": "0x45fb2200"
    },
    {
      "constant": false,
      "inputs": [
        {
          "name": "_startPoint",
          "type": "string"
        },
        {
          "name": "_endPoint",
          "type": "string"
        },
        {
          "name": "_fare",
          "type": "uint256"
        },
        {
          "name": "_startTime",
          "type": "uint256"
        },
        {
          "name": "_numOfSeats",
          "type": "uint256"
        },
        {
          "name": "_startLongitude",
          "type": "int256"
        },
        {
          "name": "_startLatitude",
          "type": "int256"
        },
        {
          "name": "_endLongitude",
          "type": "int256"
        },
        {
          "name": "_endLatitude",
          "type": "int256"
        }
      ],
      "name": "createRide",
      "outputs": [],
      "payable": false,
      "stateMutability": "nonpayable",
      "type": "function",
      "signature": "0x0c2fd280"
    },
    {
      "constant": false,
      "inputs": [
        {
          "name": "_rideId",
          "type": "uint256"
        },
        {
          "name": "_phoneNumber",
          "type": "string"
        },
        {
          "name": "_numberOfPeople",
          "type": "uint256"
        }
      ],
      "name": "joinPendingRide",
      "outputs": [],
      "payable": true,
      "stateMutability": "payable",
      "type": "function",
      "signature": "0xfa9df9da"
    },
    {
      "constant": false,
      "inputs": [
        {
          "name": "_rideId",
          "type": "uint256"
        },
        {
          "name": "_passengerIndex",
          "type": "uint256"
        }
      ],
      "name": "acceptPassenger",
      "outputs": [],
      "payable": false,
      "stateMutability": "nonpayable",
      "type": "function",
      "signature": "0xeac5ddd7"
    },
    {
      "constant": false,
      "inputs": [
        {
          "name": "_rideId",
          "type": "uint256"
        },
        {
          "name": "_passengerIndex",
          "type": "uint256"
        }
      ],
      "name": "declinePassenger",
      "outputs": [],
      "payable": false,
      "stateMutability": "nonpayable",
      "type": "function",
      "signature": "0xec2011ad"
    },
    {
      "constant": false,
      "inputs": [
        {
          "name": "_rideId",
          "type": "uint256"
        },
        {
          "name": "_pendingPassenger",
          "type": "address"
        }
      ],
      "name": "cancelRide",
      "outputs": [],
      "payable": false,
      "stateMutability": "nonpayable",
      "type": "function",
      "signature": "0x4fc3877d"
    },
    {
      "constant": false,
      "inputs": [
        {
          "name": "_rideId",
          "type": "uint256"
        }
      ],
      "name": "completeRide",
      "outputs": [],
      "payable": false,
      "stateMutability": "nonpayable",
      "type": "function",
      "signature": "0xc416dd0b"
    },
    {
      "constant": false,
      "inputs": [
        {
          "name": "_rideId",
          "type": "uint256"
        }
      ],
      "name": "confirmDeclined",
      "outputs": [],
      "payable": false,
      "stateMutability": "nonpayable",
      "type": "function",
      "signature": "0xa38b80f0"
    },
    {
      "constant": false,
      "inputs": [
        {
          "name": "_rideId",
          "type": "uint256"
        }
      ],
      "name": "arrive",
      "outputs": [],
      "payable": false,
      "stateMutability": "nonpayable",
      "type": "function",
      "signature": "0x9b4f9419"
    },
    {
      "constant": false,
      "inputs": [
        {
          "name": "_rideId",
          "type": "uint256"
        }
      ],
      "name": "joinRide",
      "outputs": [],
      "payable": true,
      "stateMutability": "payable",
      "type": "function",
      "signature": "0x01f32206"
    },
    {
      "constant": true,
      "inputs": [
        {
          "name": "rideId",
          "type": "uint256"
        }
      ],
      "name": "getPassengers",
      "outputs": [
        {
          "name": "",
          "type": "address[]"
        }
      ],
      "payable": false,
      "stateMutability": "view",
      "type": "function",
      "signature": "0x6d4d31f2"
    },
    {
      "constant": true,
      "inputs": [
        {
          "name": "_rideId",
          "type": "uint256"
        },
        {
          "name": "_passengerAddress",
          "type": "address"
        }
      ],
      "name": "isPassengerInPendingList",
      "outputs": [
        {
          "name": "",
          "type": "uint256"
        }
      ],
      "payable": false,
      "stateMutability": "view",
      "type": "function",
      "signature": "0x8160f048"
    },
    {
      "constant": true,
      "inputs": [
        {
          "name": "_rideId",
          "type": "uint256"
        },
        {
          "name": "_passengerAddress",
          "type": "address"
        }
      ],
      "name": "isPassengerInList",
      "outputs": [
        {
          "name": "",
          "type": "uint256"
        }
      ],
      "payable": false,
      "stateMutability": "view",
      "type": "function",
      "signature": "0x0670a6db"
    }
  ],
  "bytecode": "0x608060405234801561001057600080fd5b506000808055600155613621806100286000396000f3fe6080604052600436106101485763ffffffff7c010000000000000000000000000000000000000000000000000000000060003504166301f32206811461014d5780630252f9041461016c5780630670a6db146101b75780630c2fd280146101f05780631d6be93c146102e4578063276f7f771461041357806345fb2200146104e25780634fc3877d146105655780635205f1121461059e5780636d4d31f21461070957806376ad1e1e1461073357806380396811146107485780638160f0481461077b578063892cca8c146107b457806395fee328146107e75780639b4f94191461081a578063a38b80f014610844578063b4230b0a1461086e578063b47c188314610937578063bbacd5141461094c578063c416dd0b1461097c578063c9412410146109a6578063eac5ddd7146109d0578063ec2011ad14610a00578063fa9df9da14610a30575b600080fd5b61016a6004803603602081101561016357600080fd5b5035610adf565b005b34801561017857600080fd5b506101a56004803603604081101561018f57600080fd5b50600160a060020a038135169060200135610cfb565b60408051918252519081900360200190f35b3480156101c357600080fd5b506101a5600480360360408110156101da57600080fd5b5080359060200135600160a060020a0316610d2b565b3480156101fc57600080fd5b5061016a600480360361012081101561021457600080fd5b81019060208101813564010000000081111561022f57600080fd5b82018360208201111561024157600080fd5b8035906020019184600183028401116401000000008311171561026357600080fd5b91939092909160208101903564010000000081111561028157600080fd5b82018360208201111561029357600080fd5b803590602001918460018302840111640100000000831117156102b557600080fd5b919350915080359060208101359060408101359060608101359060808101359060a08101359060c00135610da9565b3480156102f057600080fd5b5061030e6004803603602081101561030757600080fd5b5035611153565b6040518080602001806020018881526020018781526020018615151515815260200185815260200184815260200183810383528a818151815260200191508051906020019080838360005b83811015610371578181015183820152602001610359565b50505050905090810190601f16801561039e5780820380516001836020036101000a031916815260200191505b5083810382528951815289516020918201918b019080838360005b838110156103d15781810151838201526020016103b9565b50505050905090810190601f1680156103fe5780820380516001836020036101000a031916815260200191505b50995050505050505050505060405180910390f35b34801561041f57600080fd5b506104436004803603604081101561043657600080fd5b508035906020013561141e565b60408051600160a060020a038716815290810184905260608101839052811515608082015260a06020808301828152875192840192909252865160c084019188019080838360005b838110156104a357818101518382015260200161048b565b50505050905090810190601f1680156104d05780820380516001836020036101000a031916815260200191505b50965050505050505060405180910390f35b3480156104ee57600080fd5b506105156004803603602081101561050557600080fd5b5035600160a060020a0316611505565b60408051602080825283518183015283519192839290830191858101910280838360005b83811015610551578181015183820152602001610539565b505050509050019250505060405180910390f35b34801561057157600080fd5b5061016a6004803603604081101561058857600080fd5b5080359060200135600160a060020a0316611571565b3480156105aa57600080fd5b506105c8600480360360208110156105c157600080fd5b5035611858565b604051808e81526020018d600160a060020a0316600160a060020a0316815260200180602001806020018c81526020018b81526020018a81526020018981526020018815151515815260200187815260200186815260200185815260200184815260200183810383528e818151815260200191508051906020019080838360005b83811015610661578181015183820152602001610649565b50505050905090810190601f16801561068e5780820380516001836020036101000a031916815260200191505b5083810382528d5181528d516020918201918f019080838360005b838110156106c15781810151838201526020016106a9565b50505050905090810190601f1680156106ee5780820380516001836020036101000a031916815260200191505b509f5050505050505050505050505050505060405180910390f35b34801561071557600080fd5b506105156004803603602081101561072c57600080fd5b50356119dd565b34801561073f57600080fd5b506101a5611a94565b34801561075457600080fd5b506105156004803603602081101561076b57600080fd5b5035600160a060020a0316611a9a565b34801561078757600080fd5b506101a56004803603604081101561079e57600080fd5b5080359060200135600160a060020a0316611b04565b3480156107c057600080fd5b50610515600480360360208110156107d757600080fd5b5035600160a060020a0316611b76565b3480156107f357600080fd5b506105156004803603602081101561080a57600080fd5b5035600160a060020a0316611be0565b34801561082657600080fd5b5061016a6004803603602081101561083d57600080fd5b5035611c4a565b34801561085057600080fd5b5061016a6004803603602081101561086757600080fd5b5035611d55565b34801561087a57600080fd5b506108986004803603602081101561089157600080fd5b5035611d71565b6040518085600160a060020a0316600160a060020a0316815260200184815260200183815260200180602001828103825283818151815260200191508051906020019080838360005b838110156108f95781810151838201526020016108e1565b50505050905090810190601f1680156109265780820380516001836020036101000a031916815260200191505b509550505050505060405180910390f35b34801561094357600080fd5b506101a5611e2f565b34801561095857600080fd5b506104436004803603604081101561096f57600080fd5b5080359060200135611e35565b34801561098857600080fd5b5061016a6004803603602081101561099f57600080fd5b5035611e50565b3480156109b257600080fd5b506101a5600480360360208110156109c957600080fd5b503561250e565b3480156109dc57600080fd5b5061016a600480360360408110156109f357600080fd5b5080359060200135612520565b348015610a0c57600080fd5b5061016a60048036036040811015610a2357600080fd5b5080359060200135612941565b61016a60048036036060811015610a4657600080fd5b81359190810190604081016020820135640100000000811115610a6857600080fd5b820183602082011115610a7a57600080fd5b80359060200191846001830284011164010000000083111715610a9c57600080fd5b91908080601f0160208091040260200160405190810160405280939291908181526020018383808284376000920191909152509295505091359250612d77915050565b600054811115610b27576040805160e560020a62461bcd02815260206004820152600f60248201526000805160206135d6833981519152604482015290519081900360640190fd5b600081815260056020526040902060010154600160a060020a0316331415610be5576040805160e560020a62461bcd02815260206004820152604160248201527f4a6f696e20526964653a2054686973206973206472697665722061646472657360448201527f732c207468652072696465206e65656420612070617373656e676572206a6f6960648201527f6e00000000000000000000000000000000000000000000000000000000000000608482015290519081900360a40190fd5b6000818152600560205260409020600681015460079091015410610c2d576040805160e560020a62461bcd028152602060048201526000602482015290519081900360640190fd5b600081815260056020526040902060040154670de0b6b3a7640000023414610c9f576040805160e560020a62461bcd02815260206004820152601560248201527f496e636f7272656374206661726520616d6f756e740000000000000000000000604482015290519081900360640190fd5b600081815260056020908152604080832060088101805460018181018355918652848620018054600160a060020a0319163390811790915560079092018054820190559084526003835290832080549182018155835291200155565b600960205281600052604060002081815481101515610d1657fe5b90600052602060002001600091509150505481565b6000805b600084815260066020526040902054811015610d9d5760008481526006602052604090208054600160a060020a038516919083908110610d6b57fe5b6000918252602090912060059091020154600160a060020a03161415610d95576001019050610da3565b600101610d2f565b60009150505b92915050565b60008711610e01576040805160e560020a62461bcd02815260206004820152601e60248201527f46617265206d7573742062652067726561746572207468616e207a65726f0000604482015290519081900360640190fd5b600080546001019055610e12613346565b60005481523360208083019190915260408051601f8e018390048302810183019091528c8152908d908d908190840183828082843760009201919091525050505060408083019190915280516020601f8c018190048102820181019092528a8152908b908b9081908401838280828437600092018290525060608601949094525050506080820189905260a082018890526001610120830181905260c0830188905260e08301829052610160830186905261014083018790526101a083018490526101808301859052815482526005602090815260409283902084518155818501519281018054600160a060020a031916600160a060020a03909416939093179092559183015180518493610f2e9260028501929101906133c1565b5060608201518051610f4a9160038401916020909101906133c1565b506080820151600482015560a0820151600582015560c0820151600682015560e082015160078201556101008201518051610f8f91600884019160209091019061343f565b5061012082015160098201805460ff1916911515919091179055610140820151600a820155610160820151600b820155610180820151600c8201556101a090910151600d90910155336000818152600260209081526040808320855181546001810183559185528385209091015582548352600882528083208390558451858201516060808801516080808a015160a0808c015160c0808e01518a519a8b01859052968a01829052938901869052818952865191890191909152855196997f7b45b809d122c6b4864ce8d0a9993c19667affbaf8f6b77c760021e10a016f7e999698949792969195949384938484019391850192918b01918190849084905b838110156110a657818101518382015260200161108e565b50505050905090810190601f1680156110d35780820380516001836020036101000a031916815260200191505b50838103825287518152875160209182019189019080838360005b838110156111065781810151838201526020016110ee565b50505050905090810190601f1680156111335780820380516001836020036101000a031916815260200191505b5097505050505050505060405180910390a3505050505050505050505050565b6060806000806000806000808811801561116f57506000548811155b15156111b3576040805160e560020a62461bcd02815260206004820152600f60248201526000805160206135d6833981519152604482015290519081900360640190fd5b6111bb613346565b60008981526005602090815260409182902082516101c08101845281548152600180830154600160a060020a0316828501526002808401805487516101009482161594909402600019011691909104601f810186900486028301860187528083529295939493860193919290918301828280156112795780601f1061124e57610100808354040283529160200191611279565b820191906000526020600020905b81548152906001019060200180831161125c57829003601f168201915b505050918352505060038201805460408051602060026001851615610100026000190190941693909304601f810184900484028201840190925281815293820193929183018282801561130d5780601f106112e25761010080835404028352916020019161130d565b820191906000526020600020905b8154815290600101906020018083116112f057829003601f168201915b50505050508152602001600482015481526020016005820154815260200160068201548152602001600782015481526020016008820180548060200260200160405190810160405280929190818152602001828054801561139757602002820191906000526020600020905b8154600160a060020a03168152600190910190602001808311611379575b5050509183525050600982015460ff1615156020820152600a820154604080830191909152600b830154606080840191909152600c840154608080850191909152600d9094015460a0938401529084015190840151928401519184015161012085015160c086015160e090960151929f949e50929c509a5090985091965090945092505050565b60076020528160005260406000208181548110151561143957fe5b600091825260209182902060059091020180546001808301805460408051601f6002600019968516156101000296909601909316949094049182018790048702840187019052808352600160a060020a039093169650929450928301828280156114e45780601f106114b9576101008083540402835291602001916114e4565b820191906000526020600020905b8154815290600101906020018083116114c757829003601f168201915b50505050600283015460038401546004909401549293909290915060ff1685565b600160a060020a03811660009081526009602090815260409182902080548351818402810184019094528084526060939283018282801561156557602002820191906000526020600020905b815481526020019060010190808311611551575b50505050509050919050565b600061157d8383611b04565b90508015156115fc576040805160e560020a62461bcd02815260206004820152602560248201527f50617373656e676572206973206e6f7420696e207468652070656e64696e672060448201527f6c69737420000000000000000000000000000000000000000000000000000000606482015290519081900360840190fd5b60008381526007602052604081208054600019840190811061161a57fe5b600091825260208083206005928302016002015487845291905260408083206004015490519102670de0b6b3a764000002925033916108fc841502918491818181858888f19350505050158015611675573d6000803e3d6000fd5b506116b633826040805190810160405280601b81526020017f43616e63656c2072696465206a6f696e696e67207265717565737400000000008152506131b0565b604051339085907f58d54330062419cad3cec1ba663980edde85e9d3f52f990fb2b4bc773ac3dd9590600090a360008481526008602090815260408083208054600019908101909155600790925290912080549091810190811061171657fe5b9060005260206000209060050201600760008681526020019081526020016000206001840381548110151561174757fe5b6000918252602090912082546005909202018054600160a060020a031916600160a060020a039092169190911781556001808301805461179e928085019291600260001992821615610100029290920116046134a0565b5060028281015490820155600380830154908201556004918201549101805460ff191660ff9092161515919091179055600084815260076020526040902080548015156117e757fe5b6000828152602081206005600019909301928302018054600160a060020a0319168155906118186001830182613515565b5060006002820181905560038083018290556004909201805460ff1916905591909255338152602091909152604090206118529085613294565b50505050565b60056020908152600091825260409182902080546001808301546002808501805488516101009582161595909502600019011691909104601f81018790048702840187019097528683529295600160a060020a03909116949192918301828280156119045780601f106118d957610100808354040283529160200191611904565b820191906000526020600020905b8154815290600101906020018083116118e757829003601f168201915b5050505060038301805460408051602060026001851615610100026000190190941693909304601f81018490048402820184019092528181529495949350908301828280156119945780601f1061196957610100808354040283529160200191611994565b820191906000526020600020905b81548152906001019060200180831161197757829003601f168201915b50505060048401546005850154600686015460078701546009880154600a890154600b8a0154600c8b0154600d909b0154999a9699959850939650919460ff909116939192918d565b600054606090821115611a28576040805160e560020a62461bcd02815260206004820152600f60248201526000805160206135d6833981519152604482015290519081900360640190fd5b6000828152600560209081526040918290206008018054835181840281018401909452808452909183018282801561156557602002820191906000526020600020905b8154600160a060020a03168152600190910190602001808311611a6b5750505050509050919050565b60015481565b600160a060020a03811660009081526004602090815260409182902080548351818402810184019094528084526060939283018282801561156557602002820191906000526020600020908154815260200190600101908083116115515750505050509050919050565b6000805b600084815260076020526040902054811015610d9d5760008481526007602052604090208054600160a060020a038516919083908110611b4457fe5b6000918252602090912060059091020154600160a060020a03161415611b6e576001019050610da3565b600101611b08565b600160a060020a03811660009081526003602090815260409182902080548351818402810184019094528084526060939283018282801561156557602002820191906000526020600020908154815260200190600101908083116115515750505050509050919050565b600160a060020a03811660009081526002602090815260409182902080548351818402810184019094528084526060939283018282801561156557602002820191906000526020600020908154815260200190600101908083116115515750505050509050919050565b60005b600082815260056020526040902060080154811015611cec576000828152600660205260409020805433919083908110611c8357fe5b6000918252602090912060059091020154600160a060020a03161415611ce457600082815260066020526040902080546001919083908110611cc157fe5b60009182526020909120600590910201600401805460ff19169115159190911790555b600101611c4d565b50336000908152600360205260409020611d069082613294565b33600081815260046020908152604080832080546001810182559084529183209091018490555183917fe7ea48a4921ce71d402b33c9540d78121bb3bf692233144599ecbdd102c0d85291a350565b336000908152600360205260409020611d6e9082613294565b50565b600a60209081526000918252604091829020805460018083015460028085015460038601805489516101009682161596909602600019011692909204601f8101889004880285018801909852878452600160a060020a03909416969195939493909190830182828015611e255780601f10611dfa57610100808354040283529160200191611e25565b820191906000526020600020905b815481529060010190602001808311611e0857829003601f168201915b5050505050905084565b60005481565b60066020528160005260406000208181548110151561143957fe5b600054811115611e98576040805160e560020a62461bcd02815260206004820152600f60248201526000805160206135d6833981519152604482015290519081900360640190fd5b600081815260056020526040902060010154600160a060020a03163314611f2f576040805160e560020a62461bcd02815260206004820152602260248201527f4f6e6c79206472697665722063616e2063616c6c20746869732066756e63746960448201527f6f6e000000000000000000000000000000000000000000000000000000000000606482015290519081900360840190fd5b6000818152600560205260409020600981015460ff161515611f9b576040805160e560020a62461bcd02815260206004820152601260248201527f52696465206973206e6f74206163746976650000000000000000000000000000604482015290519081900360640190fd5b60098101805460ff19169055336000908152600260205260409020611fc09083613294565b6000805b600883015481101561219b576000848152600660205260409020805482908110611fea57fe5b600091825260209091206004600590920201015460ff161561203b57600084815260066020526040902080548290811061202057fe5b90600052602060002090600502016002015482019150612141565b600084815260066020526040812080548390811061205557fe5b600091825260208083206005909202909101548783526006909152604082208054600160a060020a039092169350908490811061208e57fe5b906000526020600020906005020160020154600560008881526020019081526020016000206004015402670de0b6b3a764000002905081600160a060020a03166108fc829081150290604051600060405180830381858888f193505050501580156120fd573d6000803e3d6000fd5b5061213e82826040805190810160405280601e81526020017f4a6f696e20636f6d706c6574656420776974686f7574206172726976616c00008152506131b0565b50505b600084815260066020526040812080546121939260039290918590811061216457fe5b60009182526020808320600590920290910154600160a060020a03168352820192909252604001902085613294565b600101611fc4565b5060005b60008481526007602052604090205481101561243a5760008481526007602052604081208054839081106121cf57fe5b6000918252602080832060059283020154888452918152604080842060040154600790925283208054600160a060020a03909316945090918590811061221157fe5b90600052602060002090600502016002015402670de0b6b3a764000002905081600160a060020a03166108fc829081150290604051600060405180830381858888f19350505050158015612269573d6000803e3d6000fd5b506122aa82826040805190810160405280600e81526020017f4a6f696e20636f6d706c657465640000000000000000000000000000000000008152506131b0565b6000868152600860209081526040808320805460001990810190915560079092529091208054909181019081106122dd57fe5b9060005260206000209060050201600760008881526020019081526020016000208481548110151561230b57fe5b6000918252602090912082546005909202018054600160a060020a031916600160a060020a0390921691909117815560018083018054612362928085019291600260001992821615610100029290920116046134a0565b5060028281015490820155600380830154908201556004918201549101805460ff191660ff9092161515919091179055600086815260076020526040902080548015156123ab57fe5b6000828152602081206005600019909301928302018054600160a060020a0319168155906123dc6001830182613515565b50600060028201819055600382018190556004909101805460ff191690559155604051600160a060020a0384169188917f26405425e7d10e372e99f656c9d921664b31c50157b9f477d5524451f23b9bcf9190a3505060010161219f565b506004820154604051908202670de0b6b3a7640000029033906108fc8315029083906000818181858888f1935050505015801561247b573d6000803e3d6000fd5b506124bc33826040805190810160405280601281526020017f57697468647261772072696465206661726500000000000000000000000000008152506131b0565b33600081815260046020908152604080832080546001810182559084529183209091018790555186917f293561dd13070ed4d83fa8683b4a93e939f52e0bb5fa61b0d25cc576bf43787391a350505050565b60086020526000908152604090205481565b6000828152600760205260409020548110612585576040805160e560020a62461bcd02815260206004820152601c60248201527f50617373656e67657220696e646578206f7574206f662072616e676500000000604482015290519081900360640190fd5b61258d613559565b60008381526007602052604090208054839081106125a757fe5b60009182526020918290206040805160a08101825260059093029091018054600160a060020a03168352600180820180548451601f600260001995841615610100029590950190921693909304908101879004870283018701909452838252939491938583019391929091908301828280156126645780601f1061263957610100808354040283529160200191612664565b820191906000526020600020905b81548152906001019060200180831161264757829003601f168201915b50505091835250506002820154602080830191909152600383015460408084019190915260049093015460ff16151560609283015282514281830152336c010000000000000000000000000281850152605480820189905284518083039091018152607490910184528051908201209184018290526000878152600580835284822086516008909101805460018082018355918552858520018054600160a060020a0319908116600160a060020a03948516179091558b855260068652968420805480830180835591865294869020895195909402909301805490971693909116929092178555858301518051969750939590948794909361276b938501929101906133c1565b506040828101516002830155606083015160038301556080909201516004909101805460ff191691151591909117905583810151600087815260056020908152838220600790810180549094019093556008815283822080546000199081019091559290529190912080549092509081019081106127e557fe5b9060005260206000209060050201600760008681526020019081526020016000208481548110151561281357fe5b6000918252602090912082546005909202018054600160a060020a031916600160a060020a039092169190911781556001808301805461286a928085019291600260001992821615610100029290920116046134a0565b5060028281015490820155600380830154908201556004918201549101805460ff191660ff9092161515919091179055600084815260076020526040902080548015156128b357fe5b6000828152602081206005600019909301928302018054600160a060020a0319168155906128e46001830182613515565b50600060028201819055600382018190556004909101805460ff1916905591558251604051600160a060020a039091169186917f9b8c206290be4fb6bf89e37fc9ac8e18ab1894b3fd8c9bf1993b00d40d6dd0339190a350505050565b600054821115612989576040805160e560020a62461bcd02815260206004820152600f60248201526000805160206135d6833981519152604482015290519081900360640190fd5b600082815260056020526040902060010154600160a060020a03163314612a20576040805160e560020a62461bcd02815260206004820152602260248201527f4f6e6c79206472697665722063616e2063616c6c20746869732066756e63746960448201527f6f6e000000000000000000000000000000000000000000000000000000000000606482015290519081900360840190fd5b612a28613559565b6000838152600760205260409020805483908110612a4257fe5b60009182526020918290206040805160a08101825260059093029091018054600160a060020a03168352600180820180548451601f60026000199584161561010002959095019092169390930490810187900487028301870190945283825293949193858301939192909190830182828015612aff5780601f10612ad457610100808354040283529160200191612aff565b820191906000526020600020905b815481529060010190602001808311612ae257829003601f168201915b5050505050815260200160028201548152602001600382015481526020016004820160009054906101000a900460ff161515151581525050905060008160000151905060006005600086815260200190815260200160002060040154836040015102670de0b6b3a764000002905081600160a060020a03166108fc829081150290604051600060405180830381858888f19350505050158015612ba6573d6000803e3d6000fd5b50612be782826040805190810160405280601881526020017f4a6f696e696e672072657175657374206465636c696e656400000000000000008152506131b0565b600085815260086020908152604080832080546000199081019091556007909252909120805490918101908110612c1a57fe5b90600052602060002090600502016007600087815260200190815260200160002085815481101515612c4857fe5b6000918252602090912082546005909202018054600160a060020a031916600160a060020a0390921691909117815560018083018054612c9f928085019291600260001992821615610100029290920116046134a0565b5060028281015490820155600380830154908201556004918201549101805460ff191660ff909216151591909117905560008581526007602052604090208054801515612ce857fe5b6000828152602081206005600019909301928302018054600160a060020a031916815590612d196001830182613515565b50600060028201819055600382018190556004909101805460ff1916905591558351604051600160a060020a039091169187917f26405425e7d10e372e99f656c9d921664b31c50157b9f477d5524451f23b9bcf9190a35050505050565b600054831115612dbf576040805160e560020a62461bcd02815260206004820152600f60248201526000805160206135d6833981519152604482015290519081900360640190fd5b600083815260056020526040902060010154600160a060020a0316331415612e7d576040805160e560020a62461bcd02815260206004820152604160248201527f4a6f696e20526964653a2054686973206973206472697665722061646472657360448201527f732c207468652072696465206e65656420612070617373656e676572206a6f6960648201527f6e00000000000000000000000000000000000000000000000000000000000000608482015290519081900360a40190fd5b6000838152600560205260409020600681015460079091015410612ec5576040805160e560020a62461bcd028152602060048201526000602482015290519081900360640190fd5b6000612ed18433611b04565b14612f4c576040805160e560020a62461bcd02815260206004820152602f60248201527f4a6f696e20526964653a2050617373656e67657220697320616c72656164792060448201527f696e2070656e64696e67206c6973740000000000000000000000000000000000606482015290519081900360840190fd5b6000838152600560205260409020600401548102670de0b6b3a7640000023414612fc0576040805160e560020a62461bcd02815260206004820152601560248201527f496e636f7272656374206661726520616d6f756e740000000000000000000000604482015290519081900360640190fd5b60008381526008602090815260408083208054600190810190915560078352818420825160a081018452338152808501888152938101879052606081018690526080810186905281548084018084559287529585902081516005909702018054600160a060020a031916600160a060020a039097169690961786559251805191959394613052938501929101906133c1565b5060408281015160028301556060808401516003808501919091556080909401516004909301805460ff1916931515939093179092553360008181526020948552828120805460018181018355918352868320018a905589825260058652838220015483518087018990528481528951948101949094528851600160a060020a039091169650919489947f868f82ae3b0855659ed04d599593110f19d37fc77e584523d642130e8ef38f97948a948a949193849384019290870191908190849084905b8381101561312d578181015183820152602001613115565b50505050905090810190601f16801561315a5780820380516001836020036101000a031916815260200191505b50935050505060405180910390a46131ab33346000036040805190810160405280601881526020017f5265717565737420666f72206a6f696e696e67207269646500000000000000008152506131b0565b505050565b600180548101808255600160a060020a0385811660008181526009602090815260408083208054808901825590845282842001959095558451608081018652928352828101888152428487019081526060850189815288548552600a84529690932084518154600160a060020a03191696169590951785555195840195909555516002830155915180519293919261324e92600385019201906133c1565b5050604080518481529051600160a060020a03861692507f3ff2d899473ac1b863e774d16dcdcdcbe0b40d9909794367ccbea198f37a79769181900360200190a2505050565b60005b82548110156131ab578183828154811015156132af57fe5b9060005260206000200154141561333e578254839060001981019081106132d257fe5b906000526020600020015483828154811015156132eb57fe5b60009182526020909120015582548390600019810190811061330957fe5b906000526020600020016000905582805480151561332357fe5b600190038181906000526020600020016000905590556131ab565b600101613297565b6101c060405190810160405280600081526020016000600160a060020a0316815260200160608152602001606081526020016000815260200160008152602001600081526020016000815260200160608152602001600015158152602001600081526020016000815260200160008152602001600081525090565b828054600181600116156101000203166002900490600052602060002090601f016020900481019282601f1061340257805160ff191683800117855561342f565b8280016001018555821561342f579182015b8281111561342f578251825591602001919060010190613414565b5061343b929150613594565b5090565b828054828255906000526020600020908101928215613494579160200282015b828111156134945782518254600160a060020a031916600160a060020a0390911617825560209092019160019091019061345f565b5061343b9291506135b1565b828054600181600116156101000203166002900490600052602060002090601f016020900481019282601f106134d9578054855561342f565b8280016001018555821561342f57600052602060002091601f016020900482015b8281111561342f5782548255916001019190600101906134fa565b50805460018160011615610100020316600290046000825580601f1061353b5750611d6e565b601f016020900490600052602060002090810190611d6e9190613594565b60a0604051908101604052806000600160a060020a031681526020016060815260200160008152602001600081526020016000151581525090565b6135ae91905b8082111561343b576000815560010161359a565b90565b6135ae91905b8082111561343b578054600160a060020a03191681556001016135b756fe496e76616c696420726964652049440000000000000000000000000000000000a165627a7a723058202e3a4773c6da7a8cd26d59ae8a1c8d7eb3d3f3afade75682cdcd019440abe57f0029",
  "source": "// SPDX-License-Identifier: MIT\n//pragma solidity >=0.4.22 <0.9.0;\npragma solidity ^0.5.0;\ncontract RideContract {\n    uint public rideCount;\n    uint public balanceChangeCounter;\n\n    struct Ride {\n        uint id; \n        address payable driver; \n        string startPoint; //departure\n        string endPoint;    //destination\n        uint256 fare;   \n        uint256 startTime;\n        uint numOfSeats; \n        uint numOfPassengers; \n        address payable[] passengers;\n        bool isActive;\n        //to  cho cc im u cui \n        int256 startLongitude;\n        int256 startLatitude;\n        int256 endLongitude;\n        int256 endLatitude;\n    }\n  \n    //cu trc thng tin khch hng\n    struct Passenger {\n        address payable addr; \n        string phoneNumber;\n        uint numOfPeople ; // mt ngi c th t cho nhiu ngi\n        uint256 verificationCode;\n        bool arrived; \n      \n\n    }\n\n    // Cu trc d liu cho mt s thay i s d\n    struct BalanceChange {\n        address user;           // Ngi dng nh hng\n        int256 amount;          // S d thay i (c th l dng hoc m)\n  \n        uint256 timestamp;      // Thi gian xy ra s thay i\n        string description;     // M t ngn v s thay i\n    }\n\n\n    mapping(address => uint[]) private createdRides; // Lu tr danh sch cc chuyn i  c to bi mi ti x\n    mapping(address => uint[]) private joinedRides; // Lu tr danh sch cc chuyn i  tham gia ca mi hnh khch\n    mapping(address => uint[]) private history;\n    mapping(uint => Ride) public rides;\n    mapping(uint =>  Passenger []) public passengers;\n    mapping(uint => Passenger[]) public pendingPassengers;\n    mapping(uint => uint) public numOfPendings; // s lng pending ca mi chuyn\n    // Mapping tng a ch ti khon n lch s cc s thay i s d\n    mapping(address => uint[]) public balanceChangeHistory;\n    mapping (uint => BalanceChange) public balanceChanges;\n   \n\n\n    event RideCreated(uint indexed rideId, address indexed driver, string startPoint, string endPoint, uint256 fare, uint256 startTime, uint numOfSeats);\n    event PassengerJoined(uint indexed rideId, address indexed passenger, string phoneNumber, uint numOfPeople, address indexed driver);\n    event PassengerCancelled(uint indexed rideId, address indexed passenger);\n    event RideCompleted(uint indexed rideId, address indexed driver);\n    event PassengerArrived(uint indexed rideId, address indexed passenger);\n    event PassengerAccepted(uint indexed rideId, address indexed passenger);\n    event PassengerDeclined(uint indexed rideId, address indexed passenger);\n    // Khai bo s kin\n    event BalanceChanged(address indexed account, int256 amount);\n\n\n\n    constructor() public {\n        // createRide(\"Start Point\", \"End Point\", 100); // To mt chuyn xe mu khi khi to\n        rideCount = 0;\n        balanceChangeCounter = 0;\n       \n       \n    }\n    // Hm tr v danh sch cc chuyn i  c to bi mt ti x c th\n    function getCreatedRides(address _driver) external view returns (uint[] memory) {\n        return createdRides[_driver];\n    }\n\n    // Hm tr v danh sch cc chuyn i m mt hnh khch c th  tham gia\n    function getJoinedRides(address _passenger) external view returns (uint[] memory) {\n        return joinedRides[_passenger];\n    }\n     // Hm  ly thng tin ca mt chuyn i c th\n    function getRideDetails(uint _rideId) external view returns (string memory, string memory, uint256, uint256, bool, uint256, uint256) {\n        require(_rideId > 0 && _rideId <= rideCount, \"Invalid ride ID\");\n        Ride memory ride = rides[_rideId];\n        return (ride.startPoint, ride.endPoint, ride.fare, ride.startTime, ride.isActive, ride.numOfSeats, ride.numOfPassengers);\n    }\n    // // Hm tr v danh sch cc chuyn i  c to bi mt ti x c th\n    function getHistory(address _account) external view returns (uint[] memory) {\n        return history[_account];\n    }\n\n     // Hm tr v danh sch bin ng s d ca mt ti khon\n    function getBalanceChangeHistory(address _address) external view returns (uint[] memory) {\n        return balanceChangeHistory[_address];\n    }\n\n    // // hm hon tin v cho hnh khch khi b hu \n    // function withdrawFunds(address payable _receiver, uint256 _amount) internal {\n    // (bool success, ) = _receiver.call.value(_amount)(\"\");\n    // require(success, \"Transfer failed.\");\n    // }\n\n    // u tin, driver to chuyn i mi\n    function createRide(string calldata _startPoint, string calldata _endPoint, uint256 _fare, uint256 _startTime, uint _numOfSeats, int256 _startLongitude, int256 _startLatitude, int256  _endLongitude, int256 _endLatitude) external {\n        require(_fare > 0, \"Fare must be greater than zero\");\n        rideCount++; // Tng s lng chuyn xe\n\n        // To mt chuyn xe mi\n        Ride memory newRide;\n        newRide.id = rideCount;\n        newRide.driver = msg.sender;\n        newRide.startPoint = _startPoint;\n        newRide.endPoint = _endPoint;\n        newRide.fare = _fare;\n        newRide.startTime = _startTime;\n        newRide.isActive = true;\n        newRide.numOfSeats = _numOfSeats; \n        newRide.passengers ;\n        newRide.numOfPassengers = 0;\n        newRide.startLatitude = _startLatitude;\n        newRide.startLongitude = _startLongitude;\n        newRide.endLatitude = _endLatitude;\n        newRide.endLongitude = _endLongitude;\n        // Lu tr chuyn xe vo mapping\n        rides[rideCount] = newRide;\n        // Thm chuyn xe vo danh sch chuyn i  to ca ti x\n        createdRides[msg.sender].push(newRide.id);\n\n        numOfPendings[rideCount] = 0;\n        emit RideCreated(newRide.id, msg.sender, newRide.startPoint, newRide.endPoint, newRide.fare, newRide.startTime, newRide.numOfSeats);\n\n       \n    }\n    // Hnh khch tm kim mt chuyn xe -> join vo pending ch ti x chp nhn (lc join vo hnh khch thanh ton lun)\n    function joinPendingRide(uint _rideId, string memory _phoneNumber, uint256 _numberOfPeople ) public payable{\n        require(_rideId <= rideCount, \"Invalid ride ID\");\n        require(msg.sender != rides[_rideId].driver, \"Join Ride: This is driver address, the ride need a passenger join\");\n        //kim tra nu cn  ch  thm hnh khch vo pending\n        require(rides[_rideId].numOfPassengers < rides[_rideId].numOfSeats, \"\");\n        //kim tra thm hnh khch   nm trong danh sch pending ca chuyn  cha\n        require(isPassengerInPendingList(_rideId, msg.sender)==uint(0), \"Join Ride: Passenger is already in pending list\");\n        require(msg.value == _numberOfPeople*rides[_rideId].fare*1e18, \"Incorrect fare amount\");\n         numOfPendings[_rideId]++; //tng lng khch trong danh sch ch \n        pendingPassengers[_rideId].push(Passenger(msg.sender, _phoneNumber, _numberOfPeople, 0, false));\n       \n        //Them chuyen xe vao danh sach chuyen xe da tham gia\n        joinedRides[msg.sender].push(_rideId);\n        emit PassengerJoined(_rideId, msg.sender, _phoneNumber, _numberOfPeople,rides[_rideId].driver);\n        addBalanceChange(msg.sender, -int256(msg.value), \"Request for joining ride\");\n\n      \n    }\n  \n    //chp nhn mt hnh khch vo chuyn -> chuyn t pending ln danh sch passengers\n    function acceptPassenger(uint _rideId, uint _passengerIndex) public {\n        require(_passengerIndex < pendingPassengers[_rideId].length, \"Passenger index out of range\");\n        \n        // Ly thng tin hnh khch t danh sch ch\n        Passenger memory passenger = pendingPassengers[_rideId][_passengerIndex];\n        //i m code\n        uint256 randomCode = uint256(keccak256(abi.encodePacked(block.timestamp, msg.sender, _rideId)));\n        passenger.verificationCode = randomCode;\n        // Thm hnh khch vo danh sch hnh khch ca chuyn i\n        rides[_rideId].passengers.push(passenger.addr);\n        passengers[_rideId].push(passenger);\n        rides[_rideId].numOfPassengers += passenger.numOfPeople;\n         //xo hnh khch  khi pendings\n        numOfPendings[_rideId]--;\n        // Gn gi tr ca phn t cn xa bng gi tr ca phn t cui cng trong mng\n        pendingPassengers[_rideId][_passengerIndex] = pendingPassengers[_rideId][pendingPassengers[_rideId].length - 1];\n        // Gim  di ca mng i mt\n        pendingPassengers[_rideId].pop();\n        emit PassengerAccepted(_rideId, passenger.addr);\n    }\n\n    //t chi mt khch -> tr ph lun cho ngi ta, xo khi danh sch ch\n    function declinePassenger(uint _rideId, uint _passengerIndex) public {\n        require(_rideId <= rideCount, \"Invalid ride ID\");\n        require(msg.sender == rides[_rideId].driver, \"Only driver can call this function\");\n        //hon li tin cho hnh khch \n        Passenger memory passenger = pendingPassengers[_rideId][_passengerIndex];\n        address payable passengerAddr = passenger.addr;\n        uint totalFare = passenger.numOfPeople*rides[_rideId].fare*1e18;\n        passengerAddr.transfer(totalFare);\n         //thm vo lch s bin ng s d\n        addBalanceChange(passengerAddr, int256(totalFare), \"Joining request declined\");\n        //xo hnh khch  khi pendings\n        numOfPendings[_rideId]--;\n        // Gn gi tr ca phn t cn xa bng gi tr ca phn t cui cng trong mng\n        pendingPassengers[_rideId][_passengerIndex] = pendingPassengers[_rideId][pendingPassengers[_rideId].length - 1];\n        // Gim  di ca mng i mt\n        pendingPassengers[_rideId].pop();\n        emit PassengerDeclined(_rideId, passenger.addr);\n  \n        \n    }\n\n    //Mt hnh khch hu chuyn i \n    function cancelRide(uint256 _rideId,  address payable _pendingPassenger) external {\n        //Hnh khch  cn nm trong pending, ngha l cha c ti x chp nhn\n        uint pendingPassengerId = isPassengerInPendingList(_rideId, _pendingPassenger);\n        require(pendingPassengerId != uint(0), \"Passenger is not in the pending list \"); \n         //tr li tin cho hnh khch \n         uint256  totalFare = rides[_rideId].fare*pendingPassengers[_rideId][pendingPassengerId-1].numOfPeople*1e18;\n        (msg.sender).transfer(totalFare);\n        \n        //thm vo lch s bin ng s d\n        addBalanceChange(msg.sender, int256(totalFare), \"Cancel ride joining request\");\n       //pht s kin hnh khch hu chuyn\n        emit PassengerCancelled(_rideId, msg.sender);\n         //xo hnh khch  khi pendings\n        numOfPendings[_rideId]--;\n        // Gn gi tr ca phn t cn xa bng gi tr ca phn t cui cng trong mng\n        pendingPassengers[_rideId][pendingPassengerId-1] = pendingPassengers[_rideId][pendingPassengers[_rideId].length - 1];\n        // Gim  di ca mng i mt\n        pendingPassengers[_rideId].pop();\n\n        // Xo chuyn i khi danh sch tham gia\n        removeRideFromList(joinedRides[msg.sender], _rideId);\n\n\n\n    }\n    //khi chuyn i kt thc, ti x thc hin ly tin ca hnh khch\n    function completeRide(uint256 _rideId) external {\n        require(_rideId <= rideCount, \"Invalid ride ID\");\n        require(msg.sender == rides[_rideId].driver, \"Only driver can call this function\");\n        Ride storage ride = rides[_rideId];\n        require(ride.isActive, \"Ride is not active\");\n\n        \n\n        // Deactivate ride\n        ride.isActive = false;\n\n        // Xo chuyn i khi danh sch  to ca ti x v tng hnh khch\n        removeRideFromList(createdRides[msg.sender], _rideId);\n        \n        uint numOfArrivals = 0;\n        for (uint i = 0; i < ride.passengers.length; i++) {\n           if (passengers[_rideId][i].arrived) numOfArrivals +=passengers[_rideId][i].numOfPeople ;\n           else {\n                // Hon tr tin cho hnh khch trong chuyn xe nhng khng bm arrive\n                address payable passengerAddr = passengers[_rideId][i].addr;\n                uint totalFare = rides[_rideId].fare*passengers[_rideId][i].numOfPeople*1e18;\n                passengerAddr.transfer(totalFare);\n                //thm vo lch s bin ng s d\n                addBalanceChange(passengerAddr, int256(totalFare), \"Join completed without arrival\");\n\n           }\n           removeRideFromList(joinedRides[passengers[_rideId][i].addr], _rideId);\n        }\n        // Hon tin cho hnh khch cn trong pending\n        for(uint i = 0 ; i < pendingPassengers[_rideId].length ; i++){\n            address payable passengerAddr = pendingPassengers[_rideId][i].addr;\n            uint totalFare = pendingPassengers[_rideId][i].numOfPeople*rides[_rideId].fare*1e18;\n            passengerAddr.transfer(totalFare);\n            //thm vo lch s bin ng s d\n            addBalanceChange(passengerAddr, int256(totalFare), \"Join completed\");\n            //xo hnh khch  khi pendings\n            numOfPendings[_rideId]--;\n            // Gn gi tr ca phn t cn xa bng gi tr ca phn t cui cng trong mng\n            pendingPassengers[_rideId][i] = pendingPassengers[_rideId][pendingPassengers[_rideId].length - 1];\n            // Gim  di ca mng i mt\n            pendingPassengers[_rideId].pop();\n            emit PassengerDeclined(_rideId, passengerAddr);\n\n        }\n\n        uint256 totalFare = ride.fare * numOfArrivals *1e18;\n       // Chuyn s tin t hp ng v ti khon ca ti x\n        msg.sender.transfer(totalFare); \n        //Thm vo bin ng s d\n        addBalanceChange(msg.sender, int256(totalFare), \"Withdraw ride fare\");\n        \n        //Thm vo lch s\n        history[msg.sender].push(_rideId);\n        emit RideCompleted(_rideId, msg.sender);\n\n    }\n    //Khch hng confirm l  b declined -> xo khi danh sch  tham gia\n    function confirmDeclined(uint _rideId) external {\n        removeRideFromList(joinedRides[msg.sender], _rideId);\n    }\n    //Mt hnh khch arrive \n    function arrive(uint256 _rideId) external {\n        \n        //nh du  n ni \n        for (uint i = 0; i < rides[_rideId].passengers.length; i++){\n            if(passengers[_rideId][i].addr == msg.sender){\n                passengers[_rideId][i].arrived =true;\n            }\n        }\n        \n        // Xo chuyn i khi danh sch tham gia\n        removeRideFromList(joinedRides[msg.sender], _rideId);\n\n\n        //Thm vo lch s\n        history[msg.sender].push(_rideId);\n       \n        emit PassengerArrived(_rideId, msg.sender);\n\n\n    }\n\n    //Phn di khng quan trng\n    // Cha cn dng\n    // Hm sinh m xc nhn ngu nhin\n    function generateVerificationCode() private view returns (uint256) {\n        return uint256(keccak256(abi.encodePacked(block.timestamp, block.difficulty))) % 9000 + 1000;\n    }\n    \n    //2. Hm ti x chp nhn hnh khch v to m xc nhn\n    // function acceptPassenger(uint _rideId, address _passenger) public {\n    //     Passenger storage passenger = pendingPassengers[_passenger][_rideId];\n    //     require(!passenger.accepted, \"Passenger already accepted\");\n    //     passenger.verificationCode = generateVerificationCode();\n    //     passenger.accepted = true;\n    // }\n    //3. Driver t chi hnh khch\n    // function rejectPendingPassenger(uint _rideId, address payable _passenger) public {\n    //     // Kim tra xem ngi gi hm c phi l ti x ca chuyn i khng\n    //     require(msg.sender == rides[_rideId].driver, \"Only driver can reject pending passenger\");\n\n    //     // Kim tra xem hnh khch c tn ti trong danh sch hng i khng\n    //     require(pendingPassengers[_passenger][_rideId].id == _rideId, \"Passenger not found in pending list\");\n\n    //     // Hon tr tin  gi ca hnh khch\n    //     uint256 fareAmount = pendingPassengers[_passenger][_rideId].numOfPeople * rides[_rideId].fare * 1e18;\n    //    withdrawFunds(_passenger, fareAmount);\n\n    //     // Xa hnh khch khi danh sch hng i\n    //     delete pendingPassengers[_passenger][_rideId];\n    // }\n\n    //4. Hm hnh khch nhp m xc nhn v tham gia chuyn i\n    // function enterVerificationCode(uint _rideId, uint256 _verificationCode) public {\n    //     Passenger storage passenger = pendingPassengers[msg.sender][_rideId];\n    //     require(passenger.accepted, \"Passenger not accepted yet\");\n    //     require(passenger.verificationCode == _verificationCode, \"Incorrect verification code\");\n    //     // Thm hnh khch vo danh sch ca chuyn i\n    //     addPassenger(_rideId, passenger.phoneNumber, passenger.numOfPeople);\n    //     // Xa thng tin hnh khch khi danh sch pending\n    //     delete pendingPassengers[msg.sender][_rideId];\n    // }\n\n    \n    // Hm ny b\n    //khi ngi dng nhn join vo chuyn c th i\n    function joinRide(uint256 _rideId) external payable {\n        require(_rideId <= rideCount, \"Invalid ride ID\");\n        require(msg.sender != rides[_rideId].driver, \"Join Ride: This is driver address, the ride need a passenger join\");\n        //kim tra nu cn  ch  thm hnh khch vapf \n        require(rides[_rideId].numOfPassengers < rides[_rideId].numOfSeats, \"\");\n        require(msg.value == rides[_rideId].fare*1e18, \"Incorrect fare amount\");\n        \n        // thm ti khon ca hnh khch vo danh sch hnh khch ca chuyn\n        rides[_rideId].passengers.push(msg.sender);\n        rides[_rideId].numOfPassengers ++ ; \n\n       \n        // Thm chuyn xe vo danh sch chuyn i  tham gia ca hnh khch\n        joinedRides[msg.sender].push(_rideId);\n        \n\n\n    }\n\n    \n    function getPassengers(uint rideId) external view returns (address payable[] memory) {\n        require(rideId <= rideCount, \"Invalid ride ID\");\n        return rides[rideId].passengers;\n    }\n\n    // Hm  xo mt chuyn i khi mt danh sch chuyn i\n    function removeRideFromList(uint[] storage list, uint256 _rideId) private {\n        for (uint i = 0; i < list.length; i++) {\n            if (list[i] == _rideId) {\n                list[i] = list[list.length - 1];\n                delete list[list.length - 1];\n                list.pop();\n                break;\n            }\n        }\n    }\n\n    // Kim tra xem mt hnh khch  nm trong danh sch pending ca chuyn i  cha  trnh join 2 ln\n    function isPassengerInPendingList(uint _rideId, address _passengerAddress) public view returns(uint) {\n        uint i;\n        for ( i = 0; i < pendingPassengers[_rideId].length; i++) {\n            if (pendingPassengers[_rideId][i].addr== _passengerAddress) {\n                return i+1; // Hnh khch  nm trong danh sch pending\n            }\n        }\n        return uint(0); // Hnh khch cha nm trong danh sch pending\n    }\n    \n    // Kim tra xem mt hnh khch  nm trong danh sch khch ca chuyn i \n    function isPassengerInList(uint _rideId, address _passengerAddress) public view returns(uint) {\n        uint i;\n        for ( i = 0; i < passengers[_rideId].length; i++) {\n            if (passengers[_rideId][i].addr== _passengerAddress) {\n                return i+1; // Hnh khch  nm trong danh sch pending\n            }\n        }\n        return uint(0); // Hnh khch cha nm trong danh sch pending\n    }\n\n    // Hm  thm lch s thay i s d\n    function addBalanceChange(address _user, int256 _amount, string memory _description) internal {\n\n        \n        balanceChangeCounter ++;\n        // Ghi li lch s thay i s d\n        balanceChangeHistory[_user].push(balanceChangeCounter);\n        balanceChanges[balanceChangeCounter] =  BalanceChange({\n            user: _user,\n            amount: _amount,\n            timestamp: block.timestamp,\n            description: _description\n           \n        });\n        emit BalanceChanged(_user, _amount);\n    }\n    \n    \n}\n",
  "sourcePath": "/Users/dattran/Documents/project-II-blockchain-carpooling-system/contracts/RideContract.sol",
  "compiler": {
    "name": "solc",
    "version": "0.5.0+commit.1d4f565a.Emscripten.clang"
  },
  "schemaVersion": "3.0.1",
  "updatedAt": "2024-06-03T15:52:57.576Z",
  "devdoc": {
    "methods": {}
  },
  "userdoc": {
    "methods": {}
  }
}