{
  "contractName": "RideContract",
  "abi": [
    {
      "constant": true,
      "inputs": [
        {
          "name": "",
          "type": "address"
        },
        {
          "name": "",
          "type": "uint256"
        }
      ],
      "name": "balanceChangeHistory",
      "outputs": [
        {
          "name": "",
          "type": "uint256"
        }
      ],
      "payable": false,
      "stateMutability": "view",
      "type": "function",
      "signature": "0x0252f904"
    },
    {
      "constant": true,
      "inputs": [
        {
          "name": "",
          "type": "uint256"
        },
        {
          "name": "",
          "type": "uint256"
        }
      ],
      "name": "pendingPassengers",
      "outputs": [
        {
          "name": "addr",
          "type": "address"
        },
        {
          "name": "phoneNumber",
          "type": "string"
        },
        {
          "name": "numOfPeople",
          "type": "uint256"
        },
        {
          "name": "verificationCode",
          "type": "uint256"
        },
        {
          "name": "arrived",
          "type": "bool"
        }
      ],
      "payable": false,
      "stateMutability": "view",
      "type": "function",
      "signature": "0x276f7f77"
    },
    {
      "constant": true,
      "inputs": [
        {
          "name": "",
          "type": "address"
        }
      ],
      "name": "balances",
      "outputs": [
        {
          "name": "",
          "type": "int256"
        }
      ],
      "payable": false,
      "stateMutability": "view",
      "type": "function",
      "signature": "0x27e235e3"
    },
    {
      "constant": true,
      "inputs": [
        {
          "name": "",
          "type": "uint256"
        }
      ],
      "name": "rides",
      "outputs": [
        {
          "name": "id",
          "type": "uint256"
        },
        {
          "name": "driver",
          "type": "address"
        },
        {
          "name": "startPoint",
          "type": "string"
        },
        {
          "name": "endPoint",
          "type": "string"
        },
        {
          "name": "fare",
          "type": "uint256"
        },
        {
          "name": "startTime",
          "type": "uint256"
        },
        {
          "name": "numOfSeats",
          "type": "uint256"
        },
        {
          "name": "numOfPassengers",
          "type": "uint256"
        },
        {
          "name": "isActive",
          "type": "bool"
        }
      ],
      "payable": false,
      "stateMutability": "view",
      "type": "function",
      "signature": "0x5205f112"
    },
    {
      "constant": true,
      "inputs": [],
      "name": "balanceChangeCounter",
      "outputs": [
        {
          "name": "",
          "type": "uint256"
        }
      ],
      "payable": false,
      "stateMutability": "view",
      "type": "function",
      "signature": "0x76ad1e1e"
    },
    {
      "constant": true,
      "inputs": [
        {
          "name": "",
          "type": "uint256"
        }
      ],
      "name": "balanceChanges",
      "outputs": [
        {
          "name": "user",
          "type": "address"
        },
        {
          "name": "amount",
          "type": "int256"
        },
        {
          "name": "balanceBefore",
          "type": "int256"
        },
        {
          "name": "balanceAfter",
          "type": "int256"
        },
        {
          "name": "timestamp",
          "type": "uint256"
        },
        {
          "name": "description",
          "type": "string"
        }
      ],
      "payable": false,
      "stateMutability": "view",
      "type": "function",
      "signature": "0xb4230b0a"
    },
    {
      "constant": true,
      "inputs": [],
      "name": "rideCount",
      "outputs": [
        {
          "name": "",
          "type": "uint256"
        }
      ],
      "payable": false,
      "stateMutability": "view",
      "type": "function",
      "signature": "0xb47c1883"
    },
    {
      "constant": true,
      "inputs": [
        {
          "name": "",
          "type": "uint256"
        },
        {
          "name": "",
          "type": "uint256"
        }
      ],
      "name": "passengers",
      "outputs": [
        {
          "name": "addr",
          "type": "address"
        },
        {
          "name": "phoneNumber",
          "type": "string"
        },
        {
          "name": "numOfPeople",
          "type": "uint256"
        },
        {
          "name": "verificationCode",
          "type": "uint256"
        },
        {
          "name": "arrived",
          "type": "bool"
        }
      ],
      "payable": false,
      "stateMutability": "view",
      "type": "function",
      "signature": "0xbbacd514"
    },
    {
      "constant": true,
      "inputs": [
        {
          "name": "",
          "type": "uint256"
        }
      ],
      "name": "numOfPendings",
      "outputs": [
        {
          "name": "",
          "type": "uint256"
        }
      ],
      "payable": false,
      "stateMutability": "view",
      "type": "function",
      "signature": "0xc9412410"
    },
    {
      "inputs": [],
      "payable": false,
      "stateMutability": "nonpayable",
      "type": "constructor",
      "signature": "constructor"
    },
    {
      "anonymous": false,
      "inputs": [
        {
          "indexed": true,
          "name": "rideId",
          "type": "uint256"
        },
        {
          "indexed": true,
          "name": "driver",
          "type": "address"
        },
        {
          "indexed": false,
          "name": "startPoint",
          "type": "string"
        },
        {
          "indexed": false,
          "name": "endPoint",
          "type": "string"
        },
        {
          "indexed": false,
          "name": "fare",
          "type": "uint256"
        },
        {
          "indexed": false,
          "name": "startTime",
          "type": "uint256"
        },
        {
          "indexed": false,
          "name": "numOfSeats",
          "type": "uint256"
        }
      ],
      "name": "RideCreated",
      "type": "event",
      "signature": "0x7b45b809d122c6b4864ce8d0a9993c19667affbaf8f6b77c760021e10a016f7e"
    },
    {
      "anonymous": false,
      "inputs": [
        {
          "indexed": true,
          "name": "rideId",
          "type": "uint256"
        },
        {
          "indexed": true,
          "name": "passenger",
          "type": "address"
        },
        {
          "indexed": false,
          "name": "phoneNumber",
          "type": "string"
        },
        {
          "indexed": false,
          "name": "numOfPeople",
          "type": "uint256"
        },
        {
          "indexed": true,
          "name": "driver",
          "type": "address"
        }
      ],
      "name": "PassengerJoined",
      "type": "event",
      "signature": "0x868f82ae3b0855659ed04d599593110f19d37fc77e584523d642130e8ef38f97"
    },
    {
      "anonymous": false,
      "inputs": [
        {
          "indexed": true,
          "name": "rideId",
          "type": "uint256"
        },
        {
          "indexed": true,
          "name": "passenger",
          "type": "address"
        }
      ],
      "name": "PassengerCancelled",
      "type": "event",
      "signature": "0x58d54330062419cad3cec1ba663980edde85e9d3f52f990fb2b4bc773ac3dd95"
    },
    {
      "anonymous": false,
      "inputs": [
        {
          "indexed": true,
          "name": "rideId",
          "type": "uint256"
        },
        {
          "indexed": true,
          "name": "driver",
          "type": "address"
        }
      ],
      "name": "RideCompleted",
      "type": "event",
      "signature": "0x293561dd13070ed4d83fa8683b4a93e939f52e0bb5fa61b0d25cc576bf437873"
    },
    {
      "anonymous": false,
      "inputs": [
        {
          "indexed": true,
          "name": "rideId",
          "type": "uint256"
        },
        {
          "indexed": true,
          "name": "passenger",
          "type": "address"
        }
      ],
      "name": "PassengerArrived",
      "type": "event",
      "signature": "0xe7ea48a4921ce71d402b33c9540d78121bb3bf692233144599ecbdd102c0d852"
    },
    {
      "anonymous": false,
      "inputs": [
        {
          "indexed": true,
          "name": "rideId",
          "type": "uint256"
        },
        {
          "indexed": true,
          "name": "passenger",
          "type": "address"
        }
      ],
      "name": "PassengerAccepted",
      "type": "event",
      "signature": "0x9b8c206290be4fb6bf89e37fc9ac8e18ab1894b3fd8c9bf1993b00d40d6dd033"
    },
    {
      "anonymous": false,
      "inputs": [
        {
          "indexed": true,
          "name": "rideId",
          "type": "uint256"
        },
        {
          "indexed": true,
          "name": "passenger",
          "type": "address"
        }
      ],
      "name": "PassengerDeclined",
      "type": "event",
      "signature": "0x26405425e7d10e372e99f656c9d921664b31c50157b9f477d5524451f23b9bcf"
    },
    {
      "anonymous": false,
      "inputs": [
        {
          "indexed": true,
          "name": "account",
          "type": "address"
        },
        {
          "indexed": false,
          "name": "amount",
          "type": "int256"
        }
      ],
      "name": "BalanceChanged",
      "type": "event",
      "signature": "0x3ff2d899473ac1b863e774d16dcdcdcbe0b40d9909794367ccbea198f37a7976"
    },
    {
      "constant": true,
      "inputs": [
        {
          "name": "_driver",
          "type": "address"
        }
      ],
      "name": "getCreatedRides",
      "outputs": [
        {
          "name": "",
          "type": "uint256[]"
        }
      ],
      "payable": false,
      "stateMutability": "view",
      "type": "function",
      "signature": "0x95fee328"
    },
    {
      "constant": true,
      "inputs": [
        {
          "name": "_passenger",
          "type": "address"
        }
      ],
      "name": "getJoinedRides",
      "outputs": [
        {
          "name": "",
          "type": "uint256[]"
        }
      ],
      "payable": false,
      "stateMutability": "view",
      "type": "function",
      "signature": "0x892cca8c"
    },
    {
      "constant": true,
      "inputs": [
        {
          "name": "_rideId",
          "type": "uint256"
        }
      ],
      "name": "getRideDetails",
      "outputs": [
        {
          "name": "",
          "type": "string"
        },
        {
          "name": "",
          "type": "string"
        },
        {
          "name": "",
          "type": "uint256"
        },
        {
          "name": "",
          "type": "uint256"
        },
        {
          "name": "",
          "type": "bool"
        },
        {
          "name": "",
          "type": "uint256"
        },
        {
          "name": "",
          "type": "uint256"
        }
      ],
      "payable": false,
      "stateMutability": "view",
      "type": "function",
      "signature": "0x1d6be93c"
    },
    {
      "constant": true,
      "inputs": [
        {
          "name": "_account",
          "type": "address"
        }
      ],
      "name": "getHistory",
      "outputs": [
        {
          "name": "",
          "type": "uint256[]"
        }
      ],
      "payable": false,
      "stateMutability": "view",
      "type": "function",
      "signature": "0x80396811"
    },
    {
      "constant": true,
      "inputs": [
        {
          "name": "_address",
          "type": "address"
        }
      ],
      "name": "getBalanceChangeHistory",
      "outputs": [
        {
          "name": "",
          "type": "uint256[]"
        }
      ],
      "payable": false,
      "stateMutability": "view",
      "type": "function",
      "signature": "0x45fb2200"
    },
    {
      "constant": false,
      "inputs": [
        {
          "name": "_startPoint",
          "type": "string"
        },
        {
          "name": "_endPoint",
          "type": "string"
        },
        {
          "name": "_fare",
          "type": "uint256"
        },
        {
          "name": "_startTime",
          "type": "uint256"
        },
        {
          "name": "_numOfSeats",
          "type": "uint256"
        },
        {
          "name": "balance",
          "type": "int256"
        }
      ],
      "name": "createRide",
      "outputs": [],
      "payable": false,
      "stateMutability": "nonpayable",
      "type": "function",
      "signature": "0xbcea27bd"
    },
    {
      "constant": false,
      "inputs": [
        {
          "name": "_rideId",
          "type": "uint256"
        },
        {
          "name": "_phoneNumber",
          "type": "string"
        },
        {
          "name": "_numberOfPeople",
          "type": "uint256"
        },
        {
          "name": "balance",
          "type": "int256"
        }
      ],
      "name": "joinPendingRide",
      "outputs": [],
      "payable": true,
      "stateMutability": "payable",
      "type": "function",
      "signature": "0x71ca207c"
    },
    {
      "constant": false,
      "inputs": [
        {
          "name": "_rideId",
          "type": "uint256"
        },
        {
          "name": "_passengerIndex",
          "type": "uint256"
        }
      ],
      "name": "acceptPassenger",
      "outputs": [],
      "payable": false,
      "stateMutability": "nonpayable",
      "type": "function",
      "signature": "0xeac5ddd7"
    },
    {
      "constant": false,
      "inputs": [
        {
          "name": "_rideId",
          "type": "uint256"
        },
        {
          "name": "_passengerIndex",
          "type": "uint256"
        }
      ],
      "name": "declinePassenger",
      "outputs": [],
      "payable": false,
      "stateMutability": "nonpayable",
      "type": "function",
      "signature": "0xec2011ad"
    },
    {
      "constant": false,
      "inputs": [
        {
          "name": "_rideId",
          "type": "uint256"
        },
        {
          "name": "_pendingPassenger",
          "type": "address"
        }
      ],
      "name": "cancelRide",
      "outputs": [],
      "payable": false,
      "stateMutability": "nonpayable",
      "type": "function",
      "signature": "0x4fc3877d"
    },
    {
      "constant": false,
      "inputs": [
        {
          "name": "_rideId",
          "type": "uint256"
        }
      ],
      "name": "completeRide",
      "outputs": [],
      "payable": false,
      "stateMutability": "nonpayable",
      "type": "function",
      "signature": "0xc416dd0b"
    },
    {
      "constant": false,
      "inputs": [
        {
          "name": "_rideId",
          "type": "uint256"
        }
      ],
      "name": "confirmDeclined",
      "outputs": [],
      "payable": false,
      "stateMutability": "nonpayable",
      "type": "function",
      "signature": "0xa38b80f0"
    },
    {
      "constant": false,
      "inputs": [
        {
          "name": "_rideId",
          "type": "uint256"
        }
      ],
      "name": "arrive",
      "outputs": [],
      "payable": false,
      "stateMutability": "nonpayable",
      "type": "function",
      "signature": "0x9b4f9419"
    },
    {
      "constant": false,
      "inputs": [
        {
          "name": "_rideId",
          "type": "uint256"
        }
      ],
      "name": "joinRide",
      "outputs": [],
      "payable": true,
      "stateMutability": "payable",
      "type": "function",
      "signature": "0x01f32206"
    },
    {
      "constant": true,
      "inputs": [
        {
          "name": "rideId",
          "type": "uint256"
        }
      ],
      "name": "getPassengers",
      "outputs": [
        {
          "name": "",
          "type": "address[]"
        }
      ],
      "payable": false,
      "stateMutability": "view",
      "type": "function",
      "signature": "0x6d4d31f2"
    },
    {
      "constant": true,
      "inputs": [
        {
          "name": "_rideId",
          "type": "uint256"
        },
        {
          "name": "_passengerAddress",
          "type": "address"
        }
      ],
      "name": "isPassengerInPendingList",
      "outputs": [
        {
          "name": "",
          "type": "uint256"
        }
      ],
      "payable": false,
      "stateMutability": "view",
      "type": "function",
      "signature": "0x8160f048"
    },
    {
      "constant": true,
      "inputs": [
        {
          "name": "_rideId",
          "type": "uint256"
        },
        {
          "name": "_passengerAddress",
          "type": "address"
        }
      ],
      "name": "isPassengerInList",
      "outputs": [
        {
          "name": "",
          "type": "uint256"
        }
      ],
      "payable": false,
      "stateMutability": "view",
      "type": "function",
      "signature": "0x0670a6db"
    }
  ],
  "bytecode": "0x608060405234801561001057600080fd5b5060008080556001556135f8806100286000396000f3fe6080604052600436106101535763ffffffff7c010000000000000000000000000000000000000000000000000000000060003504166301f3220681146101585780630252f904146101775780630670a6db146101c25780631d6be93c146101fb578063276f7f771461032a57806327e235e3146103f957806345fb22001461042c5780634fc3877d146104af5780635205f112146104e85780636d4d31f21461063757806371ca207c1461066157806376ad1e1e1461071357806380396811146107285780638160f0481461075b578063892cca8c1461079457806395fee328146107c75780639b4f9419146107fa578063a38b80f014610824578063b4230b0a1461084e578063b47c188314610925578063bbacd5141461093a578063bcea27bd1461096a578063c416dd0b14610a4b578063c941241014610a75578063eac5ddd714610a9f578063ec2011ad14610acf575b600080fd5b6101756004803603602081101561016e57600080fd5b5035610aff565b005b34801561018357600080fd5b506101b06004803603604081101561019a57600080fd5b50600160a060020a038135169060200135610d1b565b60408051918252519081900360200190f35b3480156101ce57600080fd5b506101b0600480360360408110156101e557600080fd5b5080359060200135600160a060020a0316610d4b565b34801561020757600080fd5b506102256004803603602081101561021e57600080fd5b5035610dc9565b6040518080602001806020018881526020018781526020018615151515815260200185815260200184815260200183810383528a818151815260200191508051906020019080838360005b83811015610288578181015183820152602001610270565b50505050905090810190601f1680156102b55780820380516001836020036101000a031916815260200191505b5083810382528951815289516020918201918b019080838360005b838110156102e85781810151838201526020016102d0565b50505050905090810190601f1680156103155780820380516001836020036101000a031916815260200191505b50995050505050505050505060405180910390f35b34801561033657600080fd5b5061035a6004803603604081101561034d57600080fd5b5080359060200135611063565b60408051600160a060020a038716815290810184905260608101839052811515608082015260a06020808301828152875192840192909252865160c084019188019080838360005b838110156103ba5781810151838201526020016103a2565b50505050905090810190601f1680156103e75780820380516001836020036101000a031916815260200191505b50965050505050505060405180910390f35b34801561040557600080fd5b506101b06004803603602081101561041c57600080fd5b5035600160a060020a031661114a565b34801561043857600080fd5b5061045f6004803603602081101561044f57600080fd5b5035600160a060020a031661115c565b60408051602080825283518183015283519192839290830191858101910280838360005b8381101561049b578181015183820152602001610483565b505050509050019250505060405180910390f35b3480156104bb57600080fd5b50610175600480360360408110156104d257600080fd5b5080359060200135600160a060020a03166111c8565b3480156104f457600080fd5b506105126004803603602081101561050b57600080fd5b50356114af565b604051808a815260200189600160a060020a0316600160a060020a0316815260200180602001806020018881526020018781526020018681526020018581526020018415151515815260200183810383528a818151815260200191508051906020019080838360005b8381101561059357818101518382015260200161057b565b50505050905090810190601f1680156105c05780820380516001836020036101000a031916815260200191505b5083810382528951815289516020918201918b019080838360005b838110156105f35781810151838201526020016105db565b50505050905090810190601f1680156106205780820380516001836020036101000a031916815260200191505b509b50505050505050505050505060405180910390f35b34801561064357600080fd5b5061045f6004803603602081101561065a57600080fd5b5035611617565b6101756004803603608081101561067757600080fd5b8135919081019060408101602082013564010000000081111561069957600080fd5b8201836020820111156106ab57600080fd5b803590602001918460018302840111640100000000831117156106cd57600080fd5b91908080601f01602080910402602001604051908101604052809392919081815260200183838082843760009201919091525092955050823593505050602001356116ce565b34801561071f57600080fd5b506101b0611b17565b34801561073457600080fd5b5061045f6004803603602081101561074b57600080fd5b5035600160a060020a0316611b1d565b34801561076757600080fd5b506101b06004803603604081101561077e57600080fd5b5080359060200135600160a060020a0316611b87565b3480156107a057600080fd5b5061045f600480360360208110156107b757600080fd5b5035600160a060020a0316611bf9565b3480156107d357600080fd5b5061045f600480360360208110156107ea57600080fd5b5035600160a060020a0316611c63565b34801561080657600080fd5b506101756004803603602081101561081d57600080fd5b5035611ccd565b34801561083057600080fd5b506101756004803603602081101561084757600080fd5b5035611dd8565b34801561085a57600080fd5b506108786004803603602081101561087157600080fd5b5035611df4565b6040518087600160a060020a0316600160a060020a0316815260200186815260200185815260200184815260200183815260200180602001828103825283818151815260200191508051906020019080838360005b838110156108e55781810151838201526020016108cd565b50505050905090810190601f1680156109125780820380516001836020036101000a031916815260200191505b5097505050505050505060405180910390f35b34801561093157600080fd5b506101b0611ec0565b34801561094657600080fd5b5061035a6004803603604081101561095d57600080fd5b5080359060200135611ec6565b34801561097657600080fd5b50610175600480360360c081101561098d57600080fd5b8101906020810181356401000000008111156109a857600080fd5b8201836020820111156109ba57600080fd5b803590602001918460018302840111640100000000831117156109dc57600080fd5b9193909290916020810190356401000000008111156109fa57600080fd5b820183602082011115610a0c57600080fd5b80359060200191846001830284011164010000000083111715610a2e57600080fd5b919350915080359060208101359060408101359060600135611ee1565b348015610a5757600080fd5b5061017560048036036020811015610a6e57600080fd5b503561224c565b348015610a8157600080fd5b506101b060048036036020811015610a9857600080fd5b503561290a565b348015610aab57600080fd5b5061017560048036036040811015610ac257600080fd5b508035906020013561291c565b348015610adb57600080fd5b5061017560048036036040811015610af257600080fd5b5080359060200135612d3d565b600054811115610b47576040805160e560020a62461bcd02815260206004820152600f60248201526000805160206135ad833981519152604482015290519081900360640190fd5b600081815260056020526040902060010154600160a060020a0316331415610c05576040805160e560020a62461bcd02815260206004820152604160248201527f4a6f696e20526964653a2054686973206973206472697665722061646472657360448201527f732c207468652072696465206e65656420612070617373656e676572206a6f6960648201527f6e00000000000000000000000000000000000000000000000000000000000000608482015290519081900360a40190fd5b6000818152600560205260409020600681015460079091015410610c4d576040805160e560020a62461bcd028152602060048201526000602482015290519081900360640190fd5b600081815260056020526040902060040154670de0b6b3a7640000023414610cbf576040805160e560020a62461bcd02815260206004820152601560248201527f496e636f7272656374206661726520616d6f756e740000000000000000000000604482015290519081900360640190fd5b600081815260056020908152604080832060088101805460018181018355918652848620018054600160a060020a0319163390811790915560079092018054820190559084526003835290832080549182018155835291200155565b600960205281600052604060002081815481101515610d3657fe5b90600052602060002001600091509150505481565b6000805b600084815260066020526040902054811015610dbd5760008481526006602052604090208054600160a060020a038516919083908110610d8b57fe5b6000918252602090912060059091020154600160a060020a03161415610db5576001019050610dc3565b600101610d4f565b60009150505b92915050565b60608060008060008060008088118015610de557506000548811155b1515610e29576040805160e560020a62461bcd02815260206004820152600f60248201526000805160206135ad833981519152604482015290519081900360640190fd5b610e31613339565b60008981526005602090815260409182902082516101408101845281548152600180830154600160a060020a0316828501526002808401805487516101009482161594909402600019011691909104601f81018690048602830186018752808352929593949386019391929091830182828015610eef5780601f10610ec457610100808354040283529160200191610eef565b820191906000526020600020905b815481529060010190602001808311610ed257829003601f168201915b505050918352505060038201805460408051602060026001851615610100026000190190941693909304601f8101849004840282018401909252818152938201939291830182828015610f835780601f10610f5857610100808354040283529160200191610f83565b820191906000526020600020905b815481529060010190602001808311610f6657829003601f168201915b50505050508152602001600482015481526020016005820154815260200160068201548152602001600782015481526020016008820180548060200260200160405190810160405280929190818152602001828054801561100d57602002820191906000526020600020905b8154600160a060020a03168152600190910190602001808311610fef575b50505091835250506009919091015460ff16151560209091015260408101516060820151608083015160a084015161012085015160c086015160e090960151949f939e50919c509a509850919650945092505050565b60076020528160005260406000208181548110151561107e57fe5b600091825260209182902060059091020180546001808301805460408051601f6002600019968516156101000296909601909316949094049182018790048702840187019052808352600160a060020a039093169650929450928301828280156111295780601f106110fe57610100808354040283529160200191611129565b820191906000526020600020905b81548152906001019060200180831161110c57829003601f168201915b50505050600283015460038401546004909401549293909290915060ff1685565b600b6020526000908152604090205481565b600160a060020a0381166000908152600960209081526040918290208054835181840281018401909452808452606093928301828280156111bc57602002820191906000526020600020905b8154815260200190600101908083116111a8575b50505050509050919050565b60006111d48383611b87565b9050801515611253576040805160e560020a62461bcd02815260206004820152602560248201527f50617373656e676572206973206e6f7420696e207468652070656e64696e672060448201527f6c69737420000000000000000000000000000000000000000000000000000000606482015290519081900360840190fd5b60008381526007602052604081208054600019840190811061127157fe5b600091825260208083206005928302016002015487845291905260408083206004015490519102670de0b6b3a764000002925033916108fc841502918491818181858888f193505050501580156112cc573d6000803e3d6000fd5b5061130d33826040805190810160405280601b81526020017f43616e63656c2072696465206a6f696e696e6720726571756573740000000000815250613173565b604051339085907f58d54330062419cad3cec1ba663980edde85e9d3f52f990fb2b4bc773ac3dd9590600090a360008481526008602090815260408083208054600019908101909155600790925290912080549091810190811061136d57fe5b9060005260206000209060050201600760008681526020019081526020016000206001840381548110151561139e57fe5b6000918252602090912082546005909202018054600160a060020a031916600160a060020a03909216919091178155600180830180546113f592808501929160026000199282161561010002929092011604613398565b5060028281015490820155600380830154908201556004918201549101805460ff191660ff90921615159190911790556000848152600760205260409020805480151561143e57fe5b6000828152602081206005600019909301928302018054600160a060020a03191681559061146f600183018261341d565b5060006002820181905560038083018290556004909201805460ff1916905591909255338152602091909152604090206114a99085613282565b50505050565b60056020908152600091825260409182902080546001808301546002808501805488516101009582161595909502600019011691909104601f81018790048702840187019097528683529295600160a060020a039091169491929183018282801561155b5780601f106115305761010080835404028352916020019161155b565b820191906000526020600020905b81548152906001019060200180831161153e57829003601f168201915b5050505060038301805460408051602060026001851615610100026000190190941693909304601f81018490048402820184019092528181529495949350908301828280156115eb5780601f106115c0576101008083540402835291602001916115eb565b820191906000526020600020905b8154815290600101906020018083116115ce57829003601f168201915b505050600484015460058501546006860154600787015460099097015495969295919450925060ff1689565b600054606090821115611662576040805160e560020a62461bcd02815260206004820152600f60248201526000805160206135ad833981519152604482015290519081900360640190fd5b600082815260056020908152604091829020600801805483518184028101840190945280845290918301828280156111bc57602002820191906000526020600020905b8154600160a060020a031681526001909101906020018083116116a55750505050509050919050565b600054841115611716576040805160e560020a62461bcd02815260206004820152600f60248201526000805160206135ad833981519152604482015290519081900360640190fd5b600084815260056020526040902060010154600160a060020a03163314156117d4576040805160e560020a62461bcd02815260206004820152604160248201527f4a6f696e20526964653a2054686973206973206472697665722061646472657360448201527f732c207468652072696465206e65656420612070617373656e676572206a6f6960648201527f6e00000000000000000000000000000000000000000000000000000000000000608482015290519081900360a40190fd5b600084815260056020526040902060068101546007909101541061181c576040805160e560020a62461bcd028152602060048201526000602482015290519081900360640190fd5b60006118288533611b87565b146118a3576040805160e560020a62461bcd02815260206004820152602f60248201527f4a6f696e20526964653a2050617373656e67657220697320616c72656164792060448201527f696e2070656e64696e67206c6973740000000000000000000000000000000000606482015290519081900360840190fd5b6000848152600560205260409020600401548202670de0b6b3a7640000023414611917576040805160e560020a62461bcd02815260206004820152601560248201527f496e636f7272656374206661726520616d6f756e740000000000000000000000604482015290519081900360640190fd5b60008481526008602090815260408083208054600190810190915560078352818420825160a081018452338152808501898152938101889052606081018690526080810186905281548084018084559287529585902081516005909702018054600160a060020a031916600160a060020a0390971696909617865592518051919593946119a993850192910190613461565b5060408281015160028301556060808401516003808501919091556080909401516004909301805460ff1916931515939093179092553360008181526020948552828120805460018181018355918352868320018b90558a825260058652838220015483518087018a90528481528a51948101949094528951600160a060020a03909116965091948a947f868f82ae3b0855659ed04d599593110f19d37fc77e584523d642130e8ef38f97948b948b949193849384019290870191908190849084905b83811015611a84578181015183820152602001611a6c565b50505050905090810190601f168015611ab15780820380516001836020036101000a031916815260200191505b50935050505060405180910390a4611b0233346000036040805190810160405280601881526020017f5265717565737420666f72206a6f696e696e6720726964650000000000000000815250613173565b336000908152600b6020526040902055505050565b60015481565b600160a060020a0381166000908152600460209081526040918290208054835181840281018401909452808452606093928301828280156111bc57602002820191906000526020600020908154815260200190600101908083116111a85750505050509050919050565b6000805b600084815260076020526040902054811015610dbd5760008481526007602052604090208054600160a060020a038516919083908110611bc757fe5b6000918252602090912060059091020154600160a060020a03161415611bf1576001019050610dc3565b600101611b8b565b600160a060020a0381166000908152600360209081526040918290208054835181840281018401909452808452606093928301828280156111bc57602002820191906000526020600020908154815260200190600101908083116111a85750505050509050919050565b600160a060020a0381166000908152600260209081526040918290208054835181840281018401909452808452606093928301828280156111bc57602002820191906000526020600020908154815260200190600101908083116111a85750505050509050919050565b60005b600082815260056020526040902060080154811015611d6f576000828152600660205260409020805433919083908110611d0657fe5b6000918252602090912060059091020154600160a060020a03161415611d6757600082815260066020526040902080546001919083908110611d4457fe5b60009182526020909120600590910201600401805460ff19169115159190911790555b600101611cd0565b50336000908152600360205260409020611d899082613282565b33600081815260046020908152604080832080546001810182559084529183209091018490555183917fe7ea48a4921ce71d402b33c9540d78121bb3bf692233144599ecbdd102c0d85291a350565b336000908152600360205260409020611df19082613282565b50565b600a602090815260009182526040918290208054600180830154600280850154600386015460048701546005880180548b516101009882161598909802600019011694909404601f81018a90048a0287018a01909a52898652600160a060020a0390961698939791969095949093909291830182828015611eb65780601f10611e8b57610100808354040283529160200191611eb6565b820191906000526020600020905b815481529060010190602001808311611e9957829003601f168201915b5050505050905086565b60005481565b60066020528160005260406000208181548110151561107e57fe5b60008411611f39576040805160e560020a62461bcd02815260206004820152601e60248201527f46617265206d7573742062652067726561746572207468616e207a65726f0000604482015290519081900360640190fd5b600080546001019055611f4a613339565b60005481523360208083019190915260408051601f8b01839004830281018301909152898152908a908a908190840183828082843760009201919091525050505060408083019190915280516020601f8901819004810282018101909252878152908890889081908401838280828437600092018290525060608601949094525050506080820186905260a082018590526001610120830181905260c0830185905260e08301829052815482526005602090815260409283902084518155818501519281018054600160a060020a031916600160a060020a03909416939093179092559183015180518493612046926002850192910190613461565b5060608201518051612062916003840191602090910190613461565b506080820151600482015560a0820151600582015560c0820151600682015560e0820151600782015561010082015180516120a79160088401916020909101906134cf565b5061012091909101516009909101805460ff1916911515919091179055336000818152600260209081526040808320855181546001810183559185528385209091015582548352600882528083208390558451858201516060808801516080808a015160a0808c015160c0808e01518a519a8b01859052968a01829052938901869052818952865191890191909152855196997f7b45b809d122c6b4864ce8d0a9993c19667affbaf8f6b77c760021e10a016f7e999698949792969195949384938484019391850192918b01918190849084905b8381101561219357818101518382015260200161217b565b50505050905090810190601f1680156121c05780820380516001836020036101000a031916815260200191505b50838103825287518152875160209182019189019080838360005b838110156121f35781810151838201526020016121db565b50505050905090810190601f1680156122205780820380516001836020036101000a031916815260200191505b5097505050505050505060405180910390a350336000908152600b602052604090205550505050505050565b600054811115612294576040805160e560020a62461bcd02815260206004820152600f60248201526000805160206135ad833981519152604482015290519081900360640190fd5b600081815260056020526040902060010154600160a060020a0316331461232b576040805160e560020a62461bcd02815260206004820152602260248201527f4f6e6c79206472697665722063616e2063616c6c20746869732066756e63746960448201527f6f6e000000000000000000000000000000000000000000000000000000000000606482015290519081900360840190fd5b6000818152600560205260409020600981015460ff161515612397576040805160e560020a62461bcd02815260206004820152601260248201527f52696465206973206e6f74206163746976650000000000000000000000000000604482015290519081900360640190fd5b60098101805460ff191690553360009081526002602052604090206123bc9083613282565b6000805b60088301548110156125975760008481526006602052604090208054829081106123e657fe5b600091825260209091206004600590920201015460ff161561243757600084815260066020526040902080548290811061241c57fe5b9060005260206000209060050201600201548201915061253d565b600084815260066020526040812080548390811061245157fe5b600091825260208083206005909202909101548783526006909152604082208054600160a060020a039092169350908490811061248a57fe5b906000526020600020906005020160020154600560008881526020019081526020016000206004015402670de0b6b3a764000002905081600160a060020a03166108fc829081150290604051600060405180830381858888f193505050501580156124f9573d6000803e3d6000fd5b5061253a82826040805190810160405280601e81526020017f4a6f696e20636f6d706c6574656420776974686f7574206172726976616c0000815250613173565b50505b6000848152600660205260408120805461258f9260039290918590811061256057fe5b60009182526020808320600590920290910154600160a060020a03168352820192909252604001902085613282565b6001016123c0565b5060005b6000848152600760205260409020548110156128365760008481526007602052604081208054839081106125cb57fe5b6000918252602080832060059283020154888452918152604080842060040154600790925283208054600160a060020a03909316945090918590811061260d57fe5b90600052602060002090600502016002015402670de0b6b3a764000002905081600160a060020a03166108fc829081150290604051600060405180830381858888f19350505050158015612665573d6000803e3d6000fd5b506126a682826040805190810160405280600e81526020017f4a6f696e20636f6d706c65746564000000000000000000000000000000000000815250613173565b6000868152600860209081526040808320805460001990810190915560079092529091208054909181019081106126d957fe5b9060005260206000209060050201600760008881526020019081526020016000208481548110151561270757fe5b6000918252602090912082546005909202018054600160a060020a031916600160a060020a039092169190911781556001808301805461275e92808501929160026000199282161561010002929092011604613398565b5060028281015490820155600380830154908201556004918201549101805460ff191660ff9092161515919091179055600086815260076020526040902080548015156127a757fe5b6000828152602081206005600019909301928302018054600160a060020a0319168155906127d8600183018261341d565b50600060028201819055600382018190556004909101805460ff191690559155604051600160a060020a0384169188917f26405425e7d10e372e99f656c9d921664b31c50157b9f477d5524451f23b9bcf9190a3505060010161259b565b506004820154604051908202670de0b6b3a7640000029033906108fc8315029083906000818181858888f19350505050158015612877573d6000803e3d6000fd5b506128b833826040805190810160405280601281526020017f5769746864726177207269646520666172650000000000000000000000000000815250613173565b33600081815260046020908152604080832080546001810182559084529183209091018790555186917f293561dd13070ed4d83fa8683b4a93e939f52e0bb5fa61b0d25cc576bf43787391a350505050565b60086020526000908152604090205481565b6000828152600760205260409020548110612981576040805160e560020a62461bcd02815260206004820152601c60248201527f50617373656e67657220696e646578206f7574206f662072616e676500000000604482015290519081900360640190fd5b612989613530565b60008381526007602052604090208054839081106129a357fe5b60009182526020918290206040805160a08101825260059093029091018054600160a060020a03168352600180820180548451601f60026000199584161561010002959095019092169390930490810187900487028301870190945283825293949193858301939192909190830182828015612a605780601f10612a3557610100808354040283529160200191612a60565b820191906000526020600020905b815481529060010190602001808311612a4357829003601f168201915b50505091835250506002820154602080830191909152600383015460408084019190915260049093015460ff16151560609283015282514281830152336c010000000000000000000000000281850152605480820189905284518083039091018152607490910184528051908201209184018290526000878152600580835284822086516008909101805460018082018355918552858520018054600160a060020a0319908116600160a060020a03948516179091558b8552600686529684208054808301808355918652948690208951959094029093018054909716939091169290921785558583015180519697509395909487949093612b6793850192910190613461565b506040828101516002830155606083015160038301556080909201516004909101805460ff19169115159190911790558381015160008781526005602090815283822060079081018054909401909355600881528382208054600019908101909155929052919091208054909250908101908110612be157fe5b90600052602060002090600502016007600086815260200190815260200160002084815481101515612c0f57fe5b6000918252602090912082546005909202018054600160a060020a031916600160a060020a0390921691909117815560018083018054612c6692808501929160026000199282161561010002929092011604613398565b5060028281015490820155600380830154908201556004918201549101805460ff191660ff909216151591909117905560008481526007602052604090208054801515612caf57fe5b6000828152602081206005600019909301928302018054600160a060020a031916815590612ce0600183018261341d565b50600060028201819055600382018190556004909101805460ff1916905591558251604051600160a060020a039091169186917f9b8c206290be4fb6bf89e37fc9ac8e18ab1894b3fd8c9bf1993b00d40d6dd0339190a350505050565b600054821115612d85576040805160e560020a62461bcd02815260206004820152600f60248201526000805160206135ad833981519152604482015290519081900360640190fd5b600082815260056020526040902060010154600160a060020a03163314612e1c576040805160e560020a62461bcd02815260206004820152602260248201527f4f6e6c79206472697665722063616e2063616c6c20746869732066756e63746960448201527f6f6e000000000000000000000000000000000000000000000000000000000000606482015290519081900360840190fd5b612e24613530565b6000838152600760205260409020805483908110612e3e57fe5b60009182526020918290206040805160a08101825260059093029091018054600160a060020a03168352600180820180548451601f60026000199584161561010002959095019092169390930490810187900487028301870190945283825293949193858301939192909190830182828015612efb5780601f10612ed057610100808354040283529160200191612efb565b820191906000526020600020905b815481529060010190602001808311612ede57829003601f168201915b5050505050815260200160028201548152602001600382015481526020016004820160009054906101000a900460ff161515151581525050905060008160000151905060006005600086815260200190815260200160002060040154836040015102670de0b6b3a764000002905081600160a060020a03166108fc829081150290604051600060405180830381858888f19350505050158015612fa2573d6000803e3d6000fd5b50612fe382826040805190810160405280601881526020017f4a6f696e696e672072657175657374206465636c696e65640000000000000000815250613173565b60008581526008602090815260408083208054600019908101909155600790925290912080549091810190811061301657fe5b9060005260206000209060050201600760008781526020019081526020016000208581548110151561304457fe5b6000918252602090912082546005909202018054600160a060020a031916600160a060020a039092169190911781556001808301805461309b92808501929160026000199282161561010002929092011604613398565b5060028281015490820155600380830154908201556004918201549101805460ff191660ff9092161515919091179055600085815260076020526040902080548015156130e457fe5b6000828152602081206005600019909301928302018054600160a060020a031916815590613115600183018261341d565b50600060028201819055600382018190556004909101805460ff1916905591558351604051600160a060020a039091169187917f26405425e7d10e372e99f656c9d921664b31c50157b9f477d5524451f23b9bcf9190a35050505050565b600160a060020a038381166000818152600b6020908152604080832080548801815560018054810180825560098552838620805480840182559087528587200155825160c081018452958652858401898152915489810387850190815260608801918252426080890190815260a089018b815284548952600a88529590972088518154600160a060020a0319169a1699909917895592519188019190915590516002870155516003860155915160048501559051805192939261323c9260058501920190613461565b5050604080518481529051600160a060020a03861692507f3ff2d899473ac1b863e774d16dcdcdcbe0b40d9909794367ccbea198f37a79769181900360200190a2505050565b60005b82548110156133345781838281548110151561329d57fe5b9060005260206000200154141561332c578254839060001981019081106132c057fe5b906000526020600020015483828154811015156132d957fe5b6000918252602090912001558254839060001981019081106132f757fe5b906000526020600020016000905582805480151561331157fe5b60019003818190600052602060002001600090559055613334565b600101613285565b505050565b61014060405190810160405280600081526020016000600160a060020a03168152602001606081526020016060815260200160008152602001600081526020016000815260200160008152602001606081526020016000151581525090565b828054600181600116156101000203166002900490600052602060002090601f016020900481019282601f106133d1578054855561340d565b8280016001018555821561340d57600052602060002091601f016020900482015b8281111561340d5782548255916001019190600101906133f2565b5061341992915061356b565b5090565b50805460018160011615610100020316600290046000825580601f106134435750611df1565b601f016020900490600052602060002090810190611df1919061356b565b828054600181600116156101000203166002900490600052602060002090601f016020900481019282601f106134a257805160ff191683800117855561340d565b8280016001018555821561340d579182015b8281111561340d5782518255916020019190600101906134b4565b828054828255906000526020600020908101928215613524579160200282015b828111156135245782518254600160a060020a031916600160a060020a039091161782556020909201916001909101906134ef565b50613419929150613588565b60a0604051908101604052806000600160a060020a031681526020016060815260200160008152602001600081526020016000151581525090565b61358591905b808211156134195760008155600101613571565b90565b61358591905b80821115613419578054600160a060020a031916815560010161358e56fe496e76616c696420726964652049440000000000000000000000000000000000a165627a7a723058206253fb9647387eb5f01e3006542e71520c5ec202a446035b50920848acc0f12a0029",
  "source": "// SPDX-License-Identifier: MIT\n//pragma solidity >=0.4.22 <0.9.0;\npragma solidity ^0.5.0;\ncontract RideContract {\n    uint public rideCount;\n    uint public balanceChangeCounter;\n\n    struct Ride {\n        uint id; \n        address payable driver; \n        string startPoint; //departure\n        string endPoint;    //destination\n        uint256 fare;   \n        uint256 startTime;\n        uint numOfSeats; \n        uint numOfPassengers; \n        address payable[] passengers;\n        bool isActive;\n    }\n  \n    //cu trc thng tin khch hng\n    struct Passenger {\n        address payable addr; \n        string phoneNumber;\n        uint numOfPeople ; // mt ngi c th t cho nhiu ngi\n        uint256 verificationCode;\n        bool arrived; \n      \n\n    }\n\n    // Cu trc d liu cho mt s thay i s d\n    struct BalanceChange {\n        address user;           // Ngi dng nh hng\n        int256 amount;          // S d thay i (c th l dng hoc m)\n        int256 balanceBefore;   // S d trc khi thay i\n        int256 balanceAfter;    // S d sau khi thay i\n        uint256 timestamp;      // Thi gian xy ra s thay i\n        string description;     // M t ngn v s thay i\n    }\n\n\n    mapping(address => uint[]) private createdRides; // Lu tr danh sch cc chuyn i  c to bi mi ti x\n    mapping(address => uint[]) private joinedRides; // Lu tr danh sch cc chuyn i  tham gia ca mi hnh khch\n    mapping(address => uint[]) private history;\n    mapping(uint => Ride) public rides;\n    mapping(uint =>  Passenger []) public passengers;\n    mapping(uint => Passenger[]) public pendingPassengers;\n    mapping(uint => uint) public numOfPendings; // s lng pending ca mi chuyn\n    // Mapping tng a ch ti khon n lch s cc s thay i s d\n    mapping(address => uint[]) public balanceChangeHistory;\n    mapping (uint => BalanceChange) public balanceChanges;\n    // Mapping tng a ch ti khon n s d\n    \n    mapping(address => int256) public balances;\n\n\n    event RideCreated(uint indexed rideId, address indexed driver, string startPoint, string endPoint, uint256 fare, uint256 startTime, uint numOfSeats);\n    event PassengerJoined(uint indexed rideId, address indexed passenger, string phoneNumber, uint numOfPeople, address indexed driver);\n    event PassengerCancelled(uint indexed rideId, address indexed passenger);\n    event RideCompleted(uint indexed rideId, address indexed driver);\n    event PassengerArrived(uint indexed rideId, address indexed passenger);\n    event PassengerAccepted(uint indexed rideId, address indexed passenger);\n    event PassengerDeclined(uint indexed rideId, address indexed passenger);\n    // Khai bo s kin\n    event BalanceChanged(address indexed account, int256 amount);\n\n\n\n    constructor() public {\n        // createRide(\"Start Point\", \"End Point\", 100); // To mt chuyn xe mu khi khi to\n        rideCount = 0;\n        balanceChangeCounter = 0;\n       \n       \n    }\n    // Hm tr v danh sch cc chuyn i  c to bi mt ti x c th\n    function getCreatedRides(address _driver) external view returns (uint[] memory) {\n        return createdRides[_driver];\n    }\n\n    // Hm tr v danh sch cc chuyn i m mt hnh khch c th  tham gia\n    function getJoinedRides(address _passenger) external view returns (uint[] memory) {\n        return joinedRides[_passenger];\n    }\n     // Hm  ly thng tin ca mt chuyn i c th\n    function getRideDetails(uint _rideId) external view returns (string memory, string memory, uint256, uint256, bool, uint256, uint256) {\n        require(_rideId > 0 && _rideId <= rideCount, \"Invalid ride ID\");\n        Ride memory ride = rides[_rideId];\n        return (ride.startPoint, ride.endPoint, ride.fare, ride.startTime, ride.isActive, ride.numOfSeats, ride.numOfPassengers);\n    }\n    // // Hm tr v danh sch cc chuyn i  c to bi mt ti x c th\n    function getHistory(address _account) external view returns (uint[] memory) {\n        return history[_account];\n    }\n\n     // Hm tr v danh sch bin ng s d ca mt ti khon\n    function getBalanceChangeHistory(address _address) external view returns (uint[] memory) {\n        return balanceChangeHistory[_address];\n    }\n\n    // // hm hon tin v cho hnh khch khi b hu \n    // function withdrawFunds(address payable _receiver, uint256 _amount) internal {\n    // (bool success, ) = _receiver.call.value(_amount)(\"\");\n    // require(success, \"Transfer failed.\");\n    // }\n\n    // u tin, driver to chuyn i mi\n    function createRide(string calldata _startPoint, string calldata _endPoint, uint256 _fare, uint256 _startTime, uint _numOfSeats, int256 balance) external {\n        require(_fare > 0, \"Fare must be greater than zero\");\n        rideCount++; // Tng s lng chuyn xe\n\n        // To mt chuyn xe mi\n        Ride memory newRide;\n        newRide.id = rideCount;\n        newRide.driver = msg.sender;\n        newRide.startPoint = _startPoint;\n        newRide.endPoint = _endPoint;\n        newRide.fare = _fare;\n        newRide.startTime = _startTime;\n        newRide.isActive = true;\n        newRide.numOfSeats = _numOfSeats; \n        newRide.passengers ;\n        newRide.numOfPassengers = 0;\n        // Lu tr chuyn xe vo mapping\n        rides[rideCount] = newRide;\n        // Thm chuyn xe vo danh sch chuyn i  to ca ti x\n        createdRides[msg.sender].push(newRide.id);\n\n        numOfPendings[rideCount] = 0;\n        emit RideCreated(newRide.id, msg.sender, newRide.startPoint, newRide.endPoint, newRide.fare, newRide.startTime, newRide.numOfSeats);\n\n        //thm thng tin s d vo\n        balances[msg.sender] = balance;\n    }\n    // Hnh khch tm kim mt chuyn xe -> join vo pending ch ti x chp nhn (lc join vo hnh khch thanh ton lun)\n    function joinPendingRide(uint _rideId, string memory _phoneNumber, uint256 _numberOfPeople, int256 balance) public payable{\n        require(_rideId <= rideCount, \"Invalid ride ID\");\n        require(msg.sender != rides[_rideId].driver, \"Join Ride: This is driver address, the ride need a passenger join\");\n        //kim tra nu cn  ch  thm hnh khch vo pending\n        require(rides[_rideId].numOfPassengers < rides[_rideId].numOfSeats, \"\");\n        //kim tra thm hnh khch   nm trong danh sch pending ca chuyn  cha\n        require(isPassengerInPendingList(_rideId, msg.sender)==uint(0), \"Join Ride: Passenger is already in pending list\");\n        require(msg.value == _numberOfPeople*rides[_rideId].fare*1e18, \"Incorrect fare amount\");\n         numOfPendings[_rideId]++; //tng lng khch trong danh sch ch \n        pendingPassengers[_rideId].push(Passenger(msg.sender, _phoneNumber, _numberOfPeople, 0, false));\n       \n        //Them chuyen xe vao danh sach chuyen xe da tham gia\n        joinedRides[msg.sender].push(_rideId);\n        emit PassengerJoined(_rideId, msg.sender, _phoneNumber, _numberOfPeople,rides[_rideId].driver);\n        addBalanceChange(msg.sender, -int256(msg.value), \"Request for joining ride\");\n\n          //thm thng tin s d vo\n        balances[msg.sender] = balance;\n    }\n  \n    //chp nhn mt hnh khch vo chuyn -> chuyn t pending ln danh sch passengers\n    function acceptPassenger(uint _rideId, uint _passengerIndex) public {\n        require(_passengerIndex < pendingPassengers[_rideId].length, \"Passenger index out of range\");\n        \n        // Ly thng tin hnh khch t danh sch ch\n        Passenger memory passenger = pendingPassengers[_rideId][_passengerIndex];\n        //i m code\n        uint256 randomCode = uint256(keccak256(abi.encodePacked(block.timestamp, msg.sender, _rideId)));\n        passenger.verificationCode = randomCode;\n        // Thm hnh khch vo danh sch hnh khch ca chuyn i\n        rides[_rideId].passengers.push(passenger.addr);\n        passengers[_rideId].push(passenger);\n        rides[_rideId].numOfPassengers += passenger.numOfPeople;\n         //xo hnh khch  khi pendings\n        numOfPendings[_rideId]--;\n        // Gn gi tr ca phn t cn xa bng gi tr ca phn t cui cng trong mng\n        pendingPassengers[_rideId][_passengerIndex] = pendingPassengers[_rideId][pendingPassengers[_rideId].length - 1];\n        // Gim  di ca mng i mt\n        pendingPassengers[_rideId].pop();\n        emit PassengerAccepted(_rideId, passenger.addr);\n    }\n\n    //t chi mt khch -> tr ph lun cho ngi ta, xo khi danh sch ch\n    function declinePassenger(uint _rideId, uint _passengerIndex) public {\n        require(_rideId <= rideCount, \"Invalid ride ID\");\n        require(msg.sender == rides[_rideId].driver, \"Only driver can call this function\");\n        //hon li tin cho hnh khch \n        Passenger memory passenger = pendingPassengers[_rideId][_passengerIndex];\n        address payable passengerAddr = passenger.addr;\n        uint totalFare = passenger.numOfPeople*rides[_rideId].fare*1e18;\n        passengerAddr.transfer(totalFare);\n         //thm vo lch s bin ng s d\n        addBalanceChange(passengerAddr, int256(totalFare), \"Joining request declined\");\n        //xo hnh khch  khi pendings\n        numOfPendings[_rideId]--;\n        // Gn gi tr ca phn t cn xa bng gi tr ca phn t cui cng trong mng\n        pendingPassengers[_rideId][_passengerIndex] = pendingPassengers[_rideId][pendingPassengers[_rideId].length - 1];\n        // Gim  di ca mng i mt\n        pendingPassengers[_rideId].pop();\n        emit PassengerDeclined(_rideId, passenger.addr);\n  \n        \n    }\n\n    //Mt hnh khch hu chuyn i \n    function cancelRide(uint256 _rideId,  address payable _pendingPassenger) external {\n        //Hnh khch  cn nm trong pending, ngha l cha c ti x chp nhn\n        uint pendingPassengerId = isPassengerInPendingList(_rideId, _pendingPassenger);\n        require(pendingPassengerId != uint(0), \"Passenger is not in the pending list \"); \n         //tr li tin cho hnh khch \n         uint256  totalFare = rides[_rideId].fare*pendingPassengers[_rideId][pendingPassengerId-1].numOfPeople*1e18;\n        (msg.sender).transfer(totalFare);\n        \n        //thm vo lch s bin ng s d\n        addBalanceChange(msg.sender, int256(totalFare), \"Cancel ride joining request\");\n       //pht s kin hnh khch hu chuyn\n        emit PassengerCancelled(_rideId, msg.sender);\n         //xo hnh khch  khi pendings\n        numOfPendings[_rideId]--;\n        // Gn gi tr ca phn t cn xa bng gi tr ca phn t cui cng trong mng\n        pendingPassengers[_rideId][pendingPassengerId-1] = pendingPassengers[_rideId][pendingPassengers[_rideId].length - 1];\n        // Gim  di ca mng i mt\n        pendingPassengers[_rideId].pop();\n\n        // Xo chuyn i khi danh sch tham gia\n        removeRideFromList(joinedRides[msg.sender], _rideId);\n\n\n\n    }\n    //khi chuyn i kt thc, ti x thc hin ly tin ca hnh khch\n    function completeRide(uint256 _rideId) external {\n        require(_rideId <= rideCount, \"Invalid ride ID\");\n        require(msg.sender == rides[_rideId].driver, \"Only driver can call this function\");\n        Ride storage ride = rides[_rideId];\n        require(ride.isActive, \"Ride is not active\");\n\n        \n\n        // Deactivate ride\n        ride.isActive = false;\n\n        // Xo chuyn i khi danh sch  to ca ti x v tng hnh khch\n        removeRideFromList(createdRides[msg.sender], _rideId);\n        \n        uint numOfArrivals = 0;\n        for (uint i = 0; i < ride.passengers.length; i++) {\n           if (passengers[_rideId][i].arrived) numOfArrivals +=passengers[_rideId][i].numOfPeople ;\n           else {\n                // Hon tr tin cho hnh khch trong chuyn xe nhng khng bm arrive\n                address payable passengerAddr = passengers[_rideId][i].addr;\n                uint totalFare = rides[_rideId].fare*passengers[_rideId][i].numOfPeople*1e18;\n                passengerAddr.transfer(totalFare);\n                //thm vo lch s bin ng s d\n                addBalanceChange(passengerAddr, int256(totalFare), \"Join completed without arrival\");\n\n           }\n           removeRideFromList(joinedRides[passengers[_rideId][i].addr], _rideId);\n        }\n        // Hon tin cho hnh khch cn trong pending\n        for(uint i = 0 ; i < pendingPassengers[_rideId].length ; i++){\n            address payable passengerAddr = pendingPassengers[_rideId][i].addr;\n            uint totalFare = pendingPassengers[_rideId][i].numOfPeople*rides[_rideId].fare*1e18;\n            passengerAddr.transfer(totalFare);\n            //thm vo lch s bin ng s d\n            addBalanceChange(passengerAddr, int256(totalFare), \"Join completed\");\n            //xo hnh khch  khi pendings\n            numOfPendings[_rideId]--;\n            // Gn gi tr ca phn t cn xa bng gi tr ca phn t cui cng trong mng\n            pendingPassengers[_rideId][i] = pendingPassengers[_rideId][pendingPassengers[_rideId].length - 1];\n            // Gim  di ca mng i mt\n            pendingPassengers[_rideId].pop();\n            emit PassengerDeclined(_rideId, passengerAddr);\n\n        }\n\n        uint256 totalFare = ride.fare * numOfArrivals *1e18;\n       // Chuyn s tin t hp ng v ti khon ca ti x\n        msg.sender.transfer(totalFare); \n        //Thm vo bin ng s d\n        addBalanceChange(msg.sender, int256(totalFare), \"Withdraw ride fare\");\n        \n        //Thm vo lch s\n        history[msg.sender].push(_rideId);\n        emit RideCompleted(_rideId, msg.sender);\n\n    }\n    //Khch hng confirm l  b declined -> xo khi danh sch  tham gia\n    function confirmDeclined(uint _rideId) external {\n        removeRideFromList(joinedRides[msg.sender], _rideId);\n    }\n    //Mt hnh khch arrive \n    function arrive(uint256 _rideId) external {\n        \n        //nh du  n ni \n        for (uint i = 0; i < rides[_rideId].passengers.length; i++){\n            if(passengers[_rideId][i].addr == msg.sender){\n                passengers[_rideId][i].arrived =true;\n            }\n        }\n        \n        // Xo chuyn i khi danh sch tham gia\n        removeRideFromList(joinedRides[msg.sender], _rideId);\n\n\n        //Thm vo lch s\n        history[msg.sender].push(_rideId);\n       \n        emit PassengerArrived(_rideId, msg.sender);\n\n\n    }\n\n    //Phn di khng quan trng\n    // Cha cn dng\n    // Hm sinh m xc nhn ngu nhin\n    function generateVerificationCode() private view returns (uint256) {\n        return uint256(keccak256(abi.encodePacked(block.timestamp, block.difficulty))) % 9000 + 1000;\n    }\n    \n    //2. Hm ti x chp nhn hnh khch v to m xc nhn\n    // function acceptPassenger(uint _rideId, address _passenger) public {\n    //     Passenger storage passenger = pendingPassengers[_passenger][_rideId];\n    //     require(!passenger.accepted, \"Passenger already accepted\");\n    //     passenger.verificationCode = generateVerificationCode();\n    //     passenger.accepted = true;\n    // }\n    //3. Driver t chi hnh khch\n    // function rejectPendingPassenger(uint _rideId, address payable _passenger) public {\n    //     // Kim tra xem ngi gi hm c phi l ti x ca chuyn i khng\n    //     require(msg.sender == rides[_rideId].driver, \"Only driver can reject pending passenger\");\n\n    //     // Kim tra xem hnh khch c tn ti trong danh sch hng i khng\n    //     require(pendingPassengers[_passenger][_rideId].id == _rideId, \"Passenger not found in pending list\");\n\n    //     // Hon tr tin  gi ca hnh khch\n    //     uint256 fareAmount = pendingPassengers[_passenger][_rideId].numOfPeople * rides[_rideId].fare * 1e18;\n    //    withdrawFunds(_passenger, fareAmount);\n\n    //     // Xa hnh khch khi danh sch hng i\n    //     delete pendingPassengers[_passenger][_rideId];\n    // }\n\n    //4. Hm hnh khch nhp m xc nhn v tham gia chuyn i\n    // function enterVerificationCode(uint _rideId, uint256 _verificationCode) public {\n    //     Passenger storage passenger = pendingPassengers[msg.sender][_rideId];\n    //     require(passenger.accepted, \"Passenger not accepted yet\");\n    //     require(passenger.verificationCode == _verificationCode, \"Incorrect verification code\");\n    //     // Thm hnh khch vo danh sch ca chuyn i\n    //     addPassenger(_rideId, passenger.phoneNumber, passenger.numOfPeople);\n    //     // Xa thng tin hnh khch khi danh sch pending\n    //     delete pendingPassengers[msg.sender][_rideId];\n    // }\n\n    \n    // Hm ny b\n    //khi ngi dng nhn join vo chuyn c th i\n    function joinRide(uint256 _rideId) external payable {\n        require(_rideId <= rideCount, \"Invalid ride ID\");\n        require(msg.sender != rides[_rideId].driver, \"Join Ride: This is driver address, the ride need a passenger join\");\n        //kim tra nu cn  ch  thm hnh khch vapf \n        require(rides[_rideId].numOfPassengers < rides[_rideId].numOfSeats, \"\");\n        require(msg.value == rides[_rideId].fare*1e18, \"Incorrect fare amount\");\n        \n        // thm ti khon ca hnh khch vo danh sch hnh khch ca chuyn\n        rides[_rideId].passengers.push(msg.sender);\n        rides[_rideId].numOfPassengers ++ ; \n\n       \n        // Thm chuyn xe vo danh sch chuyn i  tham gia ca hnh khch\n        joinedRides[msg.sender].push(_rideId);\n        \n\n\n    }\n\n    \n    function getPassengers(uint rideId) external view returns (address payable[] memory) {\n        require(rideId <= rideCount, \"Invalid ride ID\");\n        return rides[rideId].passengers;\n    }\n\n    // Hm  xo mt chuyn i khi mt danh sch chuyn i\n    function removeRideFromList(uint[] storage list, uint256 _rideId) private {\n        for (uint i = 0; i < list.length; i++) {\n            if (list[i] == _rideId) {\n                list[i] = list[list.length - 1];\n                delete list[list.length - 1];\n                list.pop();\n                break;\n            }\n        }\n    }\n\n    // Kim tra xem mt hnh khch  nm trong danh sch pending ca chuyn i  cha  trnh join 2 ln\n    function isPassengerInPendingList(uint _rideId, address _passengerAddress) public view returns(uint) {\n        uint i;\n        for ( i = 0; i < pendingPassengers[_rideId].length; i++) {\n            if (pendingPassengers[_rideId][i].addr== _passengerAddress) {\n                return i+1; // Hnh khch  nm trong danh sch pending\n            }\n        }\n        return uint(0); // Hnh khch cha nm trong danh sch pending\n    }\n    \n    // Kim tra xem mt hnh khch  nm trong danh sch khch ca chuyn i \n    function isPassengerInList(uint _rideId, address _passengerAddress) public view returns(uint) {\n        uint i;\n        for ( i = 0; i < passengers[_rideId].length; i++) {\n            if (passengers[_rideId][i].addr== _passengerAddress) {\n                return i+1; // Hnh khch  nm trong danh sch pending\n            }\n        }\n        return uint(0); // Hnh khch cha nm trong danh sch pending\n    }\n\n    // Hm  thm lch s thay i s d\n    function addBalanceChange(address _user, int256 _amount, string memory _description) internal {\n        // Thm s tin  thay i vo s d ca ti khon\n        balances[_user] += _amount;\n        \n        balanceChangeCounter ++;\n        // Ghi li lch s thay i s d\n        balanceChangeHistory[_user].push(balanceChangeCounter);\n        balanceChanges[balanceChangeCounter] =  BalanceChange({\n            user: _user,\n            amount: _amount,\n            balanceBefore: balances[_user] - _amount,\n            balanceAfter: balances[_user],\n            timestamp: block.timestamp,\n            description: _description\n           \n        });\n        emit BalanceChanged(_user, _amount);\n    }\n    \n    \n}\n",
  "sourcePath": "/Users/dattran/Documents/project-II-blockchain-carpooling-system/contracts/RideContract.sol",
  "compiler": {
    "name": "solc",
    "version": "0.5.0+commit.1d4f565a.Emscripten.clang"
  },
  "schemaVersion": "3.0.1",
  "updatedAt": "2024-04-22T15:15:07.590Z",
  "devdoc": {
    "methods": {}
  },
  "userdoc": {
    "methods": {}
  }
}