{
  "contractName": "RideContract",
  "abi": [
    {
      "constant": true,
      "inputs": [
        {
          "name": "",
          "type": "uint256"
        },
        {
          "name": "",
          "type": "uint256"
        }
      ],
      "name": "pendingPassengers",
      "outputs": [
        {
          "name": "addr",
          "type": "address"
        },
        {
          "name": "phoneNumber",
          "type": "string"
        },
        {
          "name": "numOfPeople",
          "type": "uint256"
        },
        {
          "name": "verificationCode",
          "type": "uint256"
        },
        {
          "name": "arrived",
          "type": "bool"
        }
      ],
      "payable": false,
      "stateMutability": "view",
      "type": "function",
      "signature": "0x276f7f77"
    },
    {
      "constant": true,
      "inputs": [
        {
          "name": "",
          "type": "uint256"
        }
      ],
      "name": "rides",
      "outputs": [
        {
          "name": "id",
          "type": "uint256"
        },
        {
          "name": "driver",
          "type": "address"
        },
        {
          "name": "startPoint",
          "type": "string"
        },
        {
          "name": "endPoint",
          "type": "string"
        },
        {
          "name": "fare",
          "type": "uint256"
        },
        {
          "name": "startTime",
          "type": "uint256"
        },
        {
          "name": "numOfSeats",
          "type": "uint256"
        },
        {
          "name": "numOfPassengers",
          "type": "uint256"
        },
        {
          "name": "isActive",
          "type": "bool"
        }
      ],
      "payable": false,
      "stateMutability": "view",
      "type": "function",
      "signature": "0x5205f112"
    },
    {
      "constant": true,
      "inputs": [],
      "name": "rideCount",
      "outputs": [
        {
          "name": "",
          "type": "uint256"
        }
      ],
      "payable": false,
      "stateMutability": "view",
      "type": "function",
      "signature": "0xb47c1883"
    },
    {
      "constant": true,
      "inputs": [
        {
          "name": "",
          "type": "uint256"
        },
        {
          "name": "",
          "type": "uint256"
        }
      ],
      "name": "passengers",
      "outputs": [
        {
          "name": "addr",
          "type": "address"
        },
        {
          "name": "phoneNumber",
          "type": "string"
        },
        {
          "name": "numOfPeople",
          "type": "uint256"
        },
        {
          "name": "verificationCode",
          "type": "uint256"
        },
        {
          "name": "arrived",
          "type": "bool"
        }
      ],
      "payable": false,
      "stateMutability": "view",
      "type": "function",
      "signature": "0xbbacd514"
    },
    {
      "constant": true,
      "inputs": [
        {
          "name": "",
          "type": "uint256"
        }
      ],
      "name": "numOfPendings",
      "outputs": [
        {
          "name": "",
          "type": "uint256"
        }
      ],
      "payable": false,
      "stateMutability": "view",
      "type": "function",
      "signature": "0xc9412410"
    },
    {
      "inputs": [],
      "payable": false,
      "stateMutability": "nonpayable",
      "type": "constructor",
      "signature": "constructor"
    },
    {
      "constant": true,
      "inputs": [
        {
          "name": "_driver",
          "type": "address"
        }
      ],
      "name": "getCreatedRides",
      "outputs": [
        {
          "name": "",
          "type": "uint256[]"
        }
      ],
      "payable": false,
      "stateMutability": "view",
      "type": "function",
      "signature": "0x95fee328"
    },
    {
      "constant": true,
      "inputs": [
        {
          "name": "_passenger",
          "type": "address"
        }
      ],
      "name": "getJoinedRides",
      "outputs": [
        {
          "name": "",
          "type": "uint256[]"
        }
      ],
      "payable": false,
      "stateMutability": "view",
      "type": "function",
      "signature": "0x892cca8c"
    },
    {
      "constant": true,
      "inputs": [
        {
          "name": "_rideId",
          "type": "uint256"
        }
      ],
      "name": "getRideDetails",
      "outputs": [
        {
          "name": "",
          "type": "string"
        },
        {
          "name": "",
          "type": "string"
        },
        {
          "name": "",
          "type": "uint256"
        },
        {
          "name": "",
          "type": "uint256"
        },
        {
          "name": "",
          "type": "bool"
        },
        {
          "name": "",
          "type": "uint256"
        },
        {
          "name": "",
          "type": "uint256"
        }
      ],
      "payable": false,
      "stateMutability": "view",
      "type": "function",
      "signature": "0x1d6be93c"
    },
    {
      "constant": true,
      "inputs": [
        {
          "name": "_account",
          "type": "address"
        }
      ],
      "name": "getHistory",
      "outputs": [
        {
          "name": "",
          "type": "uint256[]"
        }
      ],
      "payable": false,
      "stateMutability": "view",
      "type": "function",
      "signature": "0x80396811"
    },
    {
      "constant": false,
      "inputs": [
        {
          "name": "_startPoint",
          "type": "string"
        },
        {
          "name": "_endPoint",
          "type": "string"
        },
        {
          "name": "_fare",
          "type": "uint256"
        },
        {
          "name": "_startTime",
          "type": "uint256"
        },
        {
          "name": "_numOfSeats",
          "type": "uint256"
        }
      ],
      "name": "createRide",
      "outputs": [],
      "payable": false,
      "stateMutability": "nonpayable",
      "type": "function",
      "signature": "0x2c0dd4e5"
    },
    {
      "constant": false,
      "inputs": [
        {
          "name": "_rideId",
          "type": "uint256"
        },
        {
          "name": "_passengerIndex",
          "type": "uint256"
        }
      ],
      "name": "acceptPassenger",
      "outputs": [],
      "payable": false,
      "stateMutability": "nonpayable",
      "type": "function",
      "signature": "0xeac5ddd7"
    },
    {
      "constant": false,
      "inputs": [
        {
          "name": "_rideId",
          "type": "uint256"
        },
        {
          "name": "_passengerIndex",
          "type": "uint256"
        }
      ],
      "name": "declinePassenger",
      "outputs": [],
      "payable": false,
      "stateMutability": "nonpayable",
      "type": "function",
      "signature": "0xec2011ad"
    },
    {
      "constant": false,
      "inputs": [
        {
          "name": "_rideId",
          "type": "uint256"
        },
        {
          "name": "_phoneNumber",
          "type": "string"
        },
        {
          "name": "_numberOfPeople",
          "type": "uint256"
        }
      ],
      "name": "joinPendingRide",
      "outputs": [],
      "payable": true,
      "stateMutability": "payable",
      "type": "function",
      "signature": "0xfa9df9da"
    },
    {
      "constant": false,
      "inputs": [
        {
          "name": "_rideId",
          "type": "uint256"
        }
      ],
      "name": "joinRide",
      "outputs": [],
      "payable": true,
      "stateMutability": "payable",
      "type": "function",
      "signature": "0x01f32206"
    },
    {
      "constant": false,
      "inputs": [
        {
          "name": "_rideId",
          "type": "uint256"
        },
        {
          "name": "_pendingPassenger",
          "type": "address"
        }
      ],
      "name": "cancelRide",
      "outputs": [],
      "payable": false,
      "stateMutability": "nonpayable",
      "type": "function",
      "signature": "0x4fc3877d"
    },
    {
      "constant": false,
      "inputs": [
        {
          "name": "_rideId",
          "type": "uint256"
        }
      ],
      "name": "completeRide",
      "outputs": [],
      "payable": false,
      "stateMutability": "nonpayable",
      "type": "function",
      "signature": "0xc416dd0b"
    },
    {
      "constant": false,
      "inputs": [
        {
          "name": "_rideId",
          "type": "uint256"
        }
      ],
      "name": "arrive",
      "outputs": [],
      "payable": false,
      "stateMutability": "nonpayable",
      "type": "function",
      "signature": "0x9b4f9419"
    },
    {
      "constant": true,
      "inputs": [
        {
          "name": "rideId",
          "type": "uint256"
        }
      ],
      "name": "getPassengers",
      "outputs": [
        {
          "name": "",
          "type": "address[]"
        }
      ],
      "payable": false,
      "stateMutability": "view",
      "type": "function",
      "signature": "0x6d4d31f2"
    }
  ],
  "bytecode": "0x608060405234801561001057600080fd5b5060008055612522806100246000396000f3fe6080604052600436106100fb5763ffffffff7c010000000000000000000000000000000000000000000000000000000060003504166301f3220681146101005780631d6be93c14610115578063276f7f77146101515780632c0dd4e5146101825780634fc3877d146101a25780635205f112146101c25780636d4d31f2146101f75780638039681114610224578063892cca8c1461025157806395fee328146102715780639b4f941914610291578063b47c1883146102b1578063bbacd514146102d3578063c416dd0b146102f3578063c941241014610313578063eac5ddd714610333578063ec2011ad14610353578063fa9df9da14610373575b600080fd5b61011361010e366004611da7565b610386565b005b34801561012157600080fd5b50610135610130366004611da7565b6104c4565b604051610148979695949392919061227b565b60405180910390f35b34801561015d57600080fd5b5061017161016c366004611e64565b61073b565b604051610148959493929190612206565b34801561018e57600080fd5b5061011361019d366004611cfa565b610822565b3480156101ae57600080fd5b506101136101bd366004611dc5565b610a0e565b3480156101ce57600080fd5b506101e26101dd366004611da7565b610b2f565b6040516101489998979695949392919061239d565b34801561020357600080fd5b50610217610212366004611da7565b610c97565b6040516101489190612259565b34801561023057600080fd5b5061024461023f366004611cd4565b610d2c565b604051610148919061226a565b34801561025d57600080fd5b5061024461026c366004611cd4565b610d97565b34801561027d57600080fd5b5061024461028c366004611cd4565b610e01565b34801561029d57600080fd5b506101136102ac366004611da7565b610e6b565b3480156102bd57600080fd5b506102c6610f49565b604051610148919061238f565b3480156102df57600080fd5b506101716102ee366004611e64565b610f4f565b3480156102ff57600080fd5b5061011361030e366004611da7565b610f6a565b34801561031f57600080fd5b506102c661032e366004611da7565b611210565b34801561033f57600080fd5b5061011361034e366004611e64565b611222565b34801561035f57600080fd5b5061011361036e366004611e64565b6114f9565b610113610381366004611dff565b6116e7565b6000548111156103b45760405160e560020a62461bcd0281526004016103ab906122ff565b60405180910390fd5b600081815260046020526040902060010154600160a060020a03163314156103f15760405160e560020a62461bcd0281526004016103ab9061237f565b600081815260046020526040902060068101546007909101541061042a5760405160e560020a62461bcd0281526004016103ab9061231f565b60008181526004602081905260409091200154670de0b6b3a76400000234146104685760405160e560020a62461bcd0281526004016103ab9061236f565b600081815260046020908152604080832060088101805460018181018355918652848620018054600160a060020a0319163390811790915560079092018054820190559084526002835290832080549182018155835291200155565b606080600080600080600080881180156104e057506000548811155b15156105015760405160e560020a62461bcd0281526004016103ab906122ff565b610509611a17565b60008981526004602090815260409182902082516101408101845281548152600180830154600160a060020a0316828501526002808401805487516101009482161594909402600019011691909104601f810186900486028301860187528083529295939493860193919290918301828280156105c75780601f1061059c576101008083540402835291602001916105c7565b820191906000526020600020905b8154815290600101906020018083116105aa57829003601f168201915b505050918352505060038201805460408051602060026001851615610100026000190190941693909304601f810184900484028201840190925281815293820193929183018282801561065b5780601f106106305761010080835404028352916020019161065b565b820191906000526020600020905b81548152906001019060200180831161063e57829003601f168201915b5050505050815260200160048201548152602001600582015481526020016006820154815260200160078201548152602001600882018054806020026020016040519081016040528092919081815260200182805480156106e557602002820191906000526020600020905b8154600160a060020a031681526001909101906020018083116106c7575b50505091835250506009919091015460ff16151560209091015260408101516060820151608083015160a084015161012085015160c086015160e090960151949f939e50919c509a509850919650945092505050565b60066020528160005260406000208181548110151561075657fe5b600091825260209182902060059091020180546001808301805460408051601f6002600019968516156101000296909601909316949094049182018790048702840187019052808352600160a060020a039093169650929450928301828280156108015780601f106107d657610100808354040283529160200191610801565b820191906000526020600020905b8154815290600101906020018083116107e457829003601f168201915b50505050600283015460038401546004909401549293909290915060ff1685565b600083116108455760405160e560020a62461bcd0281526004016103ab9061233f565b600080546001019055610856611a17565b60005481523360208083019190915260408051601f8a0183900483028101830190915288815290899089908190840183828082843760009201919091525050505060408083019190915280516020601f8801819004810282018101909252868152908790879081908401838280828437600092018290525060608601949094525050506080820185905260a082018490526001610120830181905260c0830184905260e08301829052815482526004602090815260409283902084518155818501519281018054600160a060020a031916600160a060020a03909416939093179092559183015180518493610952926002850192910190611a76565b506060820151805161096e916003840191602090910190611a76565b506080820151600482015560a0820151600582015560c0820151600682015560e0820151600782015561010082015180516109b3916008840191602090910190611af4565b5061012091909101516009909101805460ff1916911515919091179055336000908152600160208181526040808420945185549384018655948452818420909201939093558154825260079092529081205550505050505050565b6000610a1a83836118e4565b9050600019811415610a415760405160e560020a62461bcd0281526004016103ab9061230f565b6000838152600660205260409020805482908110610a5b57fe5b6000918252602082206005909102018054600160a060020a031916815590610a866001830182611b55565b50600060028201819055600382018190556004909101805460ff19169055838152600760209081526040808320805460001901905560069091529020805433916108fc9184908110610ad457fe5b9060005260206000209060050201600201546004600087815260200190815260200160002060040154029081150290604051600060405180830381858888f19350505050158015610b29573d6000803e3d6000fd5b50505050565b60046020908152600091825260409182902080546001808301546002808501805488516101009582161595909502600019011691909104601f81018790048702840187019097528683529295600160a060020a0390911694919291830182828015610bdb5780601f10610bb057610100808354040283529160200191610bdb565b820191906000526020600020905b815481529060010190602001808311610bbe57829003601f168201915b5050505060038301805460408051602060026001851615610100026000190190941693909304601f8101849004840282018401909252818152949594935090830182828015610c6b5780601f10610c4057610100808354040283529160200191610c6b565b820191906000526020600020905b815481529060010190602001808311610c4e57829003601f168201915b505050600484015460058501546006860154600787015460099097015495969295919450925060ff1689565b600054606090821115610cbf5760405160e560020a62461bcd0281526004016103ab906122ff565b60008281526004602090815260409182902060080180548351818402810184019094528084529091830182828015610d2057602002820191906000526020600020905b8154600160a060020a03168152600190910190602001808311610d02575b50505050509050919050565b600160a060020a038116600090815260036020908152604091829020805483518184028101840190945280845260609392830182828015610d2057602002820191906000526020600020905b815481526020019060010190808311610d785750505050509050919050565b600160a060020a038116600090815260026020908152604091829020805483518184028101840190945280845260609392830182828015610d205760200282019190600052602060002090815481526020019060010190808311610d785750505050509050919050565b600160a060020a038116600090815260016020908152604091829020805483518184028101840190945280845260609392830182828015610d205760200282019190600052602060002090815481526020019060010190808311610d785750505050509050919050565b60005b600082815260046020526040902060080154811015610f0d576000828152600560205260409020805433919083908110610ea457fe5b6000918252602090912060059091020154600160a060020a03161415610f0557600082815260056020526040902080546001919083908110610ee257fe5b60009182526020909120600590910201600401805460ff19169115159190911790555b600101610e6e565b50336000908152600260205260409020610f279082611960565b3360009081526003602090815260408220805460018101825590835291200155565b60005481565b60056020528160005260406000208181548110151561075657fe5b600054811115610f8f5760405160e560020a62461bcd0281526004016103ab906122ff565b600081815260046020526040902060010154600160a060020a03163314610fcb5760405160e560020a62461bcd0281526004016103ab9061234f565b6000818152600460205260409020600981015460ff1615156110025760405160e560020a62461bcd0281526004016103ab9061235f565b60098101805460ff191690553360009081526001602052604090206110279083611960565b6000805b60088301548110156111a657600084815260056020526040902080548290811061105157fe5b600091825260209091206004600590920201015460ff16156110a257600084815260056020526040902080548290811061108757fe5b9060005260206000209060050201600201548201915061114c565b60008481526005602052604090208054829081106110bc57fe5b600091825260208083206005928302015487845291905260409091208054600160a060020a03909216916108fc9190849081106110f557fe5b9060005260206000209060050201600201546004600088815260200190815260200160002060040154029081150290604051600060405180830381858888f1935050505015801561114a573d6000803e3d6000fd5b505b6000848152600560205260408120805461119e9260029290918590811061116f57fe5b60009182526020808320600590920290910154600160a060020a03168352820192909252604001902085611960565b60010161102b565b506004820154604051908202670de0b6b3a7640000029033906108fc8315029083906000818181858888f193505050501580156111e7573d6000803e3d6000fd5b505033600090815260036020908152604082208054600181018255908352912001929092555050565b60076020526000908152604090205481565b60008281526006602052604090205481106112525760405160e560020a62461bcd0281526004016103ab9061232f565b61125a611b9c565b600083815260066020526040902080548390811061127457fe5b60009182526020918290206040805160a08101825260059093029091018054600160a060020a03168352600180820180548451601f600260001995841615610100029590950190921693909304908101879004870283018701909452838252939491938583019391929091908301828280156113315780601f1061130657610100808354040283529160200191611331565b820191906000526020600020905b81548152906001019060200180831161131457829003601f168201915b50505091835250506002820154602080830191909152600383015460408084019190915260049384015460ff161515606093840152805142818401526c0100000000000000000000000033028183015260548082018a90528251808303909101815260749091018252805190830120928501839052600088815293825280842085516008909101805460018181018355918752848720018054600160a060020a03938416600160a060020a0319918216179091558a875260058086529387208054808401808355918952978690208951989095029094018054979093169616959095178155858301518051969750939591948794919361143693918501920190611a76565b506040828101516002830155606083015160038301556080909201516004918201805460ff19169115159190911790558482015160008881526020928352838120600701805490920190915560069091522080549091508490811061149757fe5b6000918252602082206005909102018054600160a060020a0319168155906114c26001830182611b55565b50600060028201819055600382018190556004909101805460ff191690559384525050600760205250604090208054600019019055565b611501611b9c565b600083815260066020526040902080548390811061151b57fe5b60009182526020918290206040805160a08101825260059093029091018054600160a060020a03168352600180820180548451601f600260001995841615610100029590950190921693909304908101879004870283018701909452838252939491938583019391929091908301828280156115d85780601f106115ad576101008083540402835291602001916115d8565b820191906000526020600020905b8154815290600101906020018083116115bb57829003601f168201915b5050505050815260200160028201548152602001600382015481526020016004820160009054906101000a900460ff16151515158152505090508060000151600160a060020a03166108fc60046000868152602001908152602001600020600401548360400151029081150290604051600060405180830381858888f1935050505015801561166b573d6000803e3d6000fd5b50600083815260066020526040902080548390811061168657fe5b6000918252602082206005909102018054600160a060020a0319168155906116b16001830182611b55565b50600060028201819055600382018190556004909101805460ff1916905592835250506007602052604090208054600019019055565b60005483111561170c5760405160e560020a62461bcd0281526004016103ab906122ff565b600083815260046020526040902060010154600160a060020a03163314156117495760405160e560020a62461bcd0281526004016103ab9061237f565b60008381526004602052604090206006810154600790910154106117825760405160e560020a62461bcd0281526004016103ab9061231f565b60001961178f84336118e4565b146117af5760405160e560020a62461bcd0281526004016103ab906122ef565b60046000848152602001908152602001600020600401548102670de0b6b3a764000002341415156117f55760405160e560020a62461bcd0281526004016103ab9061236f565b6000838152600660209081526040808320815160a0810183523381528084018781529281018690526060810185905260808101859052815460018082018085559387529585902082516005909202018054600160a060020a031916600160a060020a0390921691909117815592518051929591946118799392850192910190611a76565b50604082810151600283810191909155606084015160038401556080909301516004909201805460ff19169215159290921790915560008681526007602090815282822080546001908101909155338352938152918120805493840181558152200193909355505050565b6000805b6000848152600660205260409020548110156119535760008481526006602052604090208054600160a060020a03851691908390811061192457fe5b6000918252602090912060059091020154600160a060020a0316141561194b57905061195a565b6001016118e8565b6000199150505b92915050565b60005b8254811015611a125781838281548110151561197b57fe5b90600052602060002001541415611a0a5782548390600019810190811061199e57fe5b906000526020600020015483828154811015156119b757fe5b6000918252602090912001558254839060001981019081106119d557fe5b90600052602060002001600090558280548015156119ef57fe5b60019003818190600052602060002001600090559055611a12565b600101611963565b505050565b61014060405190810160405280600081526020016000600160a060020a03168152602001606081526020016060815260200160008152602001600081526020016000815260200160008152602001606081526020016000151581525090565b828054600181600116156101000203166002900490600052602060002090601f016020900481019282601f10611ab757805160ff1916838001178555611ae4565b82800160010185558215611ae4579182015b82811115611ae4578251825591602001919060010190611ac9565b50611af0929150611bd7565b5090565b828054828255906000526020600020908101928215611b49579160200282015b82811115611b495782518254600160a060020a031916600160a060020a03909116178255602090920191600190910190611b14565b50611af0929150611bf4565b50805460018160011615610100020316600290046000825580601f10611b7b5750611b99565b601f016020900490600052602060002090810190611b999190611bd7565b50565b60a0604051908101604052806000600160a060020a031681526020016060815260200160008152602001600081526020016000151581525090565b611bf191905b80821115611af05760008155600101611bdd565b90565b611bf191905b80821115611af0578054600160a060020a0319168155600101611bfa565b6000611c24823561248a565b9392505050565b600080601f83018413611c3d57600080fd5b50813567ffffffffffffffff811115611c5557600080fd5b602083019150836001820283011115611c6d57600080fd5b9250929050565b6000601f82018313611c8557600080fd5b8135611c98611c9382612458565b612431565b91508082526020830160208301858383011115611cb457600080fd5b611cbf8382846124a6565b50505092915050565b6000611c248235611bf1565b600060208284031215611ce657600080fd5b6000611cf28484611c18565b949350505050565b600080600080600080600060a0888a031215611d1557600080fd5b873567ffffffffffffffff811115611d2c57600080fd5b611d388a828b01611c2b565b9750975050602088013567ffffffffffffffff811115611d5757600080fd5b611d638a828b01611c2b565b95509550506040611d768a828b01611cc8565b9350506060611d878a828b01611cc8565b9250506080611d988a828b01611cc8565b91505092959891949750929550565b600060208284031215611db957600080fd5b6000611cf28484611cc8565b60008060408385031215611dd857600080fd5b6000611de48585611cc8565b9250506020611df585828601611c18565b9150509250929050565b600080600060608486031215611e1457600080fd5b6000611e208686611cc8565b935050602084013567ffffffffffffffff811115611e3d57600080fd5b611e4986828701611c74565b9250506040611e5a86828701611cc8565b9150509250925092565b60008060408385031215611e7757600080fd5b6000611e838585611cc8565b9250506020611df585828601611cc8565b611e9d8161248a565b82525050565b6000611eae82612486565b808452602084019350611ec083612480565b60005b82811015611ef057611ed6868351611e94565b611edf82612480565b602096909601959150600101611ec3565b5093949350505050565b6000611f0582612486565b808452602084019350611f1783612480565b60005b82811015611ef057611f2d8683516121fd565b611f3682612480565b602096909601959150600101611f1a565b611e9d81612495565b6000611f5b82612486565b808452611f6f8160208601602086016124b2565b611f78816124de565b9093016020019392505050565b602f81527f4a6f696e20526964653a2050617373656e67657220697320616c72656164792060208201527f696e2070656e64696e67206c6973740000000000000000000000000000000000604082015260600190565b600f81527f496e76616c696420726964652049440000000000000000000000000000000000602082015260400190565b602581527f50617373656e676572206973206e6f7420696e207468652070656e64696e672060208201527f6c69737420000000000000000000000000000000000000000000000000000000604082015260600190565b6000815260200190565b601c81527f50617373656e67657220696e646578206f7574206f662072616e676500000000602082015260400190565b601e81527f46617265206d7573742062652067726561746572207468616e207a65726f0000602082015260400190565b602281527f4f6e6c79206472697665722063616e2063616c6c20746869732066756e63746960208201527f6f6e000000000000000000000000000000000000000000000000000000000000604082015260600190565b601281527f52696465206973206e6f74206163746976650000000000000000000000000000602082015260400190565b601581527f496e636f7272656374206661726520616d6f756e740000000000000000000000602082015260400190565b604181527f4a6f696e20526964653a2054686973206973206472697665722061646472657360208201527f732c207468652072696465206e65656420612070617373656e676572206a6f6960408201527f6e00000000000000000000000000000000000000000000000000000000000000606082015260800190565b611e9d81611bf1565b60a081016122148288611e94565b81810360208301526122268187611f50565b905061223560408301866121fd565b61224260608301856121fd565b61224f6080830184611f47565b9695505050505050565b60208082528101611c248184611ea3565b60208082528101611c248184611efa565b60e0808252810161228c818a611f50565b905081810360208301526122a08189611f50565b90506122af60408301886121fd565b6122bc60608301876121fd565b6122c96080830186611f47565b6122d660a08301856121fd565b6122e360c08301846121fd565b98975050505050505050565b6020808252810161195a81611f85565b6020808252810161195a81611fdb565b6020808252810161195a8161200b565b6020808252810161195a81612061565b6020808252810161195a8161206b565b6020808252810161195a8161209b565b6020808252810161195a816120cb565b6020808252810161195a81612121565b6020808252810161195a81612151565b6020808252810161195a81612181565b6020810161195a82846121fd565b61012081016123ac828c6121fd565b6123b9602083018b611e94565b81810360408301526123cb818a611f50565b905081810360608301526123df8189611f50565b90506123ee60808301886121fd565b6123fb60a08301876121fd565b61240860c08301866121fd565b61241560e08301856121fd565b612423610100830184611f47565b9a9950505050505050505050565b60405181810167ffffffffffffffff8111828210171561245057600080fd5b604052919050565b600067ffffffffffffffff82111561246f57600080fd5b506020601f91909101601f19160190565b60200190565b5190565b600061195a8261249a565b151590565b600160a060020a031690565b82818337506000910152565b60005b838110156124cd5781810151838201526020016124b5565b83811115610b295750506000910152565b601f01601f19169056fea265627a7a72305820cc6247decc721bdb7977053bfa2bd622e940b3bb9a1b91bb834976f642edeab66c6578706572696d656e74616cf50037",
  "source": "// SPDX-License-Identifier: MIT\n//pragma solidity >=0.4.22 <0.9.0;\npragma solidity ^0.5.0;\npragma experimental ABIEncoderV2;\ncontract RideContract {\n    uint public rideCount;\n    \n\n    struct Ride {\n        uint id; \n        address payable driver; \n        string startPoint; //departure\n        string endPoint;    //destination\n        uint256 fare;   \n        uint256 startTime;\n        uint numOfSeats; \n        uint numOfPassengers; \n        address payable[] passengers;\n        bool isActive;\n    }\n  \n    //cu trc thng tin khch hng\n    struct Passenger {\n        address payable addr; \n        string phoneNumber;\n        uint numOfPeople ; // mt ngi c th t cho nhiu ngi\n        uint256 verificationCode;\n        bool arrived; \n      \n\n    }\n\n    mapping(address => uint[]) private createdRides; // Lu tr danh sch cc chuyn i  c to bi mi ti x\n    mapping(address => uint[]) private joinedRides; // Lu tr danh sch cc chuyn i  tham gia ca mi hnh khch\n    mapping(address => uint[]) private history;\n    mapping(uint => Ride) public rides;\n    mapping(uint =>  Passenger []) public passengers;\n    mapping(uint => Passenger[]) public pendingPassengers;\n    mapping(uint => uint) public numOfPendings; // s lng pending ca mi chuyn\n\n   \n    constructor() public {\n        // createRide(\"Start Point\", \"End Point\", 100); // To mt chuyn xe mu khi khi to\n        rideCount = 0;\n       \n       \n    }\n    // Hm tr v danh sch cc chuyn i  c to bi mt ti x c th\n    function getCreatedRides(address _driver) external view returns (uint[] memory) {\n        return createdRides[_driver];\n    }\n\n    // Hm tr v danh sch cc chuyn i m mt hnh khch c th  tham gia\n    function getJoinedRides(address _passenger) external view returns (uint[] memory) {\n        return joinedRides[_passenger];\n    }\n     // Hm  ly thng tin ca mt chuyn i c th\n    function getRideDetails(uint _rideId) external view returns (string memory, string memory, uint256, uint256, bool, uint256, uint256) {\n        require(_rideId > 0 && _rideId <= rideCount, \"Invalid ride ID\");\n        Ride memory ride = rides[_rideId];\n        return (ride.startPoint, ride.endPoint, ride.fare, ride.startTime, ride.isActive, ride.numOfSeats, ride.numOfPassengers);\n    }\n    // Hm tr v danh sch cc chuyn i  c to bi mt ti x c th\n    function getHistory(address _account) external view returns (uint[] memory) {\n        return history[_account];\n    }\n    // hm hon tin v cho hnh khch khi b hu \n    function withdrawFunds(address payable _receiver, uint256 _amount) internal {\n    (bool success, ) = _receiver.call.value(_amount)(\"\");\n    require(success, \"Transfer failed.\");\n    }\n\n\n    function createRide(string calldata _startPoint, string calldata _endPoint, uint256 _fare, uint256 _startTime, uint _numOfSeats) external {\n        require(_fare > 0, \"Fare must be greater than zero\");\n        rideCount++; // Tng s lng chuyn xe\n\n        // To mt chuyn xe mi\n        Ride memory newRide;\n        newRide.id = rideCount;\n        newRide.driver = msg.sender;\n        newRide.startPoint = _startPoint;\n        newRide.endPoint = _endPoint;\n        newRide.fare = _fare;\n        newRide.startTime = _startTime;\n        newRide.isActive = true;\n        newRide.numOfSeats = _numOfSeats; \n        newRide.passengers ;\n        newRide.numOfPassengers = 0;\n        // Lu tr chuyn xe vo mapping\n        rides[rideCount] = newRide;\n        // Thm chuyn xe vo danh sch chuyn i  to ca ti x\n        createdRides[msg.sender].push(newRide.id);\n\n        numOfPendings[rideCount] = 0;\n    }\n  \n    //chp nhn mt hnh khch vo chuyn\n    function acceptPassenger(uint _rideId, uint _passengerIndex) public {\n        require(_passengerIndex < pendingPassengers[_rideId].length, \"Passenger index out of range\");\n        \n        // Ly thng tin hnh khch t danh sch ch\n        Passenger memory passenger = pendingPassengers[_rideId][_passengerIndex];\n        //i m code\n        uint256 randomCode = uint256(keccak256(abi.encodePacked(block.timestamp, msg.sender, _rideId)));\n        passenger.verificationCode = randomCode;\n        // Thm hnh khch vo danh sch hnh khch ca chuyn i\n        rides[_rideId].passengers.push(passenger.addr);\n        passengers[_rideId].push(passenger);\n        rides[_rideId].numOfPassengers += passenger.numOfPeople;\n        // Xa hnh khch khi danh sch ch\n        delete pendingPassengers[_rideId][_passengerIndex];\n        numOfPendings[_rideId]--;\n    }\n    function declinePassenger(uint _rideId, uint _passengerIndex) public{\n        //hon li tin cho hnh khch \n        Passenger memory passenger = pendingPassengers[_rideId][_passengerIndex];\n        (passenger.addr).transfer(passenger.numOfPeople*rides[_rideId].fare);\n        //xo hnh khch  khi pendings\n         delete pendingPassengers[_rideId][_passengerIndex];\n         numOfPendings[_rideId]--;\n    // Ly thng tin hnh khch t danh sch ch\n        \n    }\n\n    // Hm sinh m xc nhn ngu nhin\n    function generateVerificationCode() private view returns (uint256) {\n        return uint256(keccak256(abi.encodePacked(block.timestamp, block.difficulty))) % 9000 + 1000;\n    }\n    // 1. Khi hnh khch join chuyn (nhp thng tin v thanh ton )\n    function joinPendingRide(uint _rideId, string memory _phoneNumber, uint256 _numberOfPeople) public payable{\n        require(_rideId <= rideCount, \"Invalid ride ID\");\n        require(msg.sender != rides[_rideId].driver, \"Join Ride: This is driver address, the ride need a passenger join\");\n        //kim tra nu cn  ch  thm hnh khch vo pending\n        require(rides[_rideId].numOfPassengers < rides[_rideId].numOfSeats, \"\");\n        //kim tra thm hnh khch   nm trong danh sch pending ca chuyn  cha\n        require(isPassengerInPendingList(_rideId, msg.sender)==uint(-1), \"Join Ride: Passenger is already in pending list\");\n        require(msg.value == _numberOfPeople*rides[_rideId].fare*1e18, \"Incorrect fare amount\");\n        pendingPassengers[_rideId].push(Passenger(msg.sender, _phoneNumber, _numberOfPeople, 0, false));\n        numOfPendings[_rideId]++;\n        //Them chuyen xe vao danh sach chuyen xe da tham gia\n        joinedRides[msg.sender].push(_rideId);\n    }\n    //2. Hm ti x chp nhn hnh khch v to m xc nhn\n    // function acceptPassenger(uint _rideId, address _passenger) public {\n    //     Passenger storage passenger = pendingPassengers[_passenger][_rideId];\n    //     require(!passenger.accepted, \"Passenger already accepted\");\n    //     passenger.verificationCode = generateVerificationCode();\n    //     passenger.accepted = true;\n    // }\n    //3. Driver t chi hnh khch\n    // function rejectPendingPassenger(uint _rideId, address payable _passenger) public {\n    //     // Kim tra xem ngi gi hm c phi l ti x ca chuyn i khng\n    //     require(msg.sender == rides[_rideId].driver, \"Only driver can reject pending passenger\");\n\n    //     // Kim tra xem hnh khch c tn ti trong danh sch hng i khng\n    //     require(pendingPassengers[_passenger][_rideId].id == _rideId, \"Passenger not found in pending list\");\n\n    //     // Hon tr tin  gi ca hnh khch\n    //     uint256 fareAmount = pendingPassengers[_passenger][_rideId].numOfPeople * rides[_rideId].fare * 1e18;\n    //    withdrawFunds(_passenger, fareAmount);\n\n    //     // Xa hnh khch khi danh sch hng i\n    //     delete pendingPassengers[_passenger][_rideId];\n    // }\n\n    //4. Hm hnh khch nhp m xc nhn v tham gia chuyn i\n    // function enterVerificationCode(uint _rideId, uint256 _verificationCode) public {\n    //     Passenger storage passenger = pendingPassengers[msg.sender][_rideId];\n    //     require(passenger.accepted, \"Passenger not accepted yet\");\n    //     require(passenger.verificationCode == _verificationCode, \"Incorrect verification code\");\n    //     // Thm hnh khch vo danh sch ca chuyn i\n    //     addPassenger(_rideId, passenger.phoneNumber, passenger.numOfPeople);\n    //     // Xa thng tin hnh khch khi danh sch pending\n    //     delete pendingPassengers[msg.sender][_rideId];\n    // }\n\n    \n\n    //khi ngi dng nhn join vo chuyn c th i\n    function joinRide(uint256 _rideId) external payable {\n        require(_rideId <= rideCount, \"Invalid ride ID\");\n        require(msg.sender != rides[_rideId].driver, \"Join Ride: This is driver address, the ride need a passenger join\");\n        //kim tra nu cn  ch  thm hnh khch vapf \n        require(rides[_rideId].numOfPassengers < rides[_rideId].numOfSeats, \"\");\n        require(msg.value == rides[_rideId].fare*1e18, \"Incorrect fare amount\");\n        \n        // thm ti khon ca hnh khch vo danh sch hnh khch ca chuyn\n        rides[_rideId].passengers.push(msg.sender);\n        rides[_rideId].numOfPassengers ++ ; \n\n       \n        // Thm chuyn xe vo danh sch chuyn i  tham gia ca hnh khch\n        joinedRides[msg.sender].push(_rideId);\n\n    }\n\n    //Mt hnh khch hu chuyn i \n    function cancelRide(uint256 _rideId, address _pendingPassenger) external {\n        //Hnh khch  cn nm trong pending, ngha l cha c ti x chp nhn\n        uint pendingPassengerId = isPassengerInPendingList(_rideId, _pendingPassenger);\n        require(pendingPassengerId != uint(-1), \"Passenger is not in the pending list \"); \n        //xo hnh khch  khi danh sch pendings v join\n        delete pendingPassengers[_rideId][pendingPassengerId];\n        numOfPendings[_rideId]--;\n\n        //tr li tin cho hnh khch \n        msg.sender.transfer(rides[_rideId].fare*pendingPassengers[_rideId][pendingPassengerId].numOfPeople);\n\n    }\n    //khi chuyn i kt thc, ti x thc hin ly tin ca hnh khch\n    function completeRide(uint256 _rideId) external {\n        require(_rideId <= rideCount, \"Invalid ride ID\");\n        require(msg.sender == rides[_rideId].driver, \"Only driver can call this function\");\n        Ride storage ride = rides[_rideId];\n        require(ride.isActive, \"Ride is not active\");\n\n        \n\n        // Deactivate ride\n        ride.isActive = false;\n\n        // Xo chuyn i khi danh sch  to ca ti x v tng hnh khch\n        removeRideFromList(createdRides[msg.sender], _rideId);\n        \n        uint numOfArrivals = 0;\n        for (uint i = 0; i < ride.passengers.length; i++) {\n           if (passengers[_rideId][i].arrived) numOfArrivals +=passengers[_rideId][i].numOfPeople ;\n           else {\n                // Hon tr tin cho hnh khch\n                (passengers[_rideId][i].addr).transfer(rides[_rideId].fare*passengers[_rideId][i].numOfPeople);\n\n           }\n           removeRideFromList(joinedRides[passengers[_rideId][i].addr], _rideId);\n        }\n\n        uint256 totalFare = ride.fare * numOfArrivals *1e18;\n       \n        msg.sender.transfer(totalFare); // Chuyn s tin t hp ng v ti khon ca ti x\n        //Thm vo lch s\n        history[msg.sender].push(_rideId);\n    }\n\n    //Mt hnh khch arrive \n    function arrive(uint256 _rideId) external {\n        \n        //nh du  n ni \n        for (uint i = 0; i < rides[_rideId].passengers.length; i++){\n            if(passengers[_rideId][i].addr == msg.sender){\n                passengers[_rideId][i].arrived =true;\n            }\n        }\n        \n        // Xo chuyn i khi danh sch tham gia\n        removeRideFromList(joinedRides[msg.sender], _rideId);\n\n\n        //Thm vo lch s\n        history[msg.sender].push(_rideId);\n        //tr tin fare cho chuyn i\n\n    }\n\n    \n    function getPassengers(uint rideId) external view returns (address payable[] memory) {\n        require(rideId <= rideCount, \"Invalid ride ID\");\n        return rides[rideId].passengers;\n    }\n\n    // Hm  xo mt chuyn i khi mt danh sch chuyn i\n    function removeRideFromList(uint[] storage list, uint256 _rideId) private {\n        for (uint i = 0; i < list.length; i++) {\n            if (list[i] == _rideId) {\n                list[i] = list[list.length - 1];\n                delete list[list.length - 1];\n                list.pop();\n                break;\n            }\n        }\n    }\n\n    // Kim tra xem mt hnh khch  nm trong danh sch pending ca chuyn i  cha  trnh join 2 ln\n    function isPassengerInPendingList(uint _rideId, address _passengerAddress) private view returns(uint) {\n        uint i;\n        for ( i = 0; i < pendingPassengers[_rideId].length; i++) {\n            if (pendingPassengers[_rideId][i].addr== _passengerAddress) {\n                return i; // Hnh khch  nm trong danh sch pending\n            }\n        }\n        return uint(-1); // Hnh khch cha nm trong danh sch pending\n    }\n\n    \n}\n",
  "sourcePath": "/Users/dattran/OneDrive - Hanoi University of Science and Technology/Documents/IT3931 Project II/project-II-blockchain-carpooling-system/contracts/RideContract.sol",
  "compiler": {
    "name": "solc",
    "version": "0.5.0+commit.1d4f565a.Emscripten.clang"
  },
  "schemaVersion": "3.0.1",
  "updatedAt": "2024-04-09T15:39:07.882Z",
  "devdoc": {
    "methods": {}
  },
  "userdoc": {
    "methods": {}
  }
}