{
  "contractName": "RideContract",
  "abi": [
    {
      "constant": true,
      "inputs": [
        {
          "name": "",
          "type": "uint256"
        },
        {
          "name": "",
          "type": "uint256"
        }
      ],
      "name": "pendingPassengers",
      "outputs": [
        {
          "name": "addr",
          "type": "address"
        },
        {
          "name": "phoneNumber",
          "type": "string"
        },
        {
          "name": "numOfPeople",
          "type": "uint256"
        },
        {
          "name": "verificationCode",
          "type": "uint256"
        },
        {
          "name": "arrived",
          "type": "bool"
        }
      ],
      "payable": false,
      "stateMutability": "view",
      "type": "function",
      "signature": "0x276f7f77"
    },
    {
      "constant": true,
      "inputs": [
        {
          "name": "",
          "type": "uint256"
        }
      ],
      "name": "rides",
      "outputs": [
        {
          "name": "id",
          "type": "uint256"
        },
        {
          "name": "driver",
          "type": "address"
        },
        {
          "name": "startPoint",
          "type": "string"
        },
        {
          "name": "endPoint",
          "type": "string"
        },
        {
          "name": "fare",
          "type": "uint256"
        },
        {
          "name": "startTime",
          "type": "uint256"
        },
        {
          "name": "numOfSeats",
          "type": "uint256"
        },
        {
          "name": "numOfPassengers",
          "type": "uint256"
        },
        {
          "name": "isActive",
          "type": "bool"
        }
      ],
      "payable": false,
      "stateMutability": "view",
      "type": "function",
      "signature": "0x5205f112"
    },
    {
      "constant": true,
      "inputs": [],
      "name": "rideCount",
      "outputs": [
        {
          "name": "",
          "type": "uint256"
        }
      ],
      "payable": false,
      "stateMutability": "view",
      "type": "function",
      "signature": "0xb47c1883"
    },
    {
      "constant": true,
      "inputs": [
        {
          "name": "",
          "type": "uint256"
        },
        {
          "name": "",
          "type": "uint256"
        }
      ],
      "name": "passengers",
      "outputs": [
        {
          "name": "addr",
          "type": "address"
        },
        {
          "name": "phoneNumber",
          "type": "string"
        },
        {
          "name": "numOfPeople",
          "type": "uint256"
        },
        {
          "name": "verificationCode",
          "type": "uint256"
        },
        {
          "name": "arrived",
          "type": "bool"
        }
      ],
      "payable": false,
      "stateMutability": "view",
      "type": "function",
      "signature": "0xbbacd514"
    },
    {
      "constant": true,
      "inputs": [
        {
          "name": "",
          "type": "uint256"
        }
      ],
      "name": "numOfPendings",
      "outputs": [
        {
          "name": "",
          "type": "uint256"
        }
      ],
      "payable": false,
      "stateMutability": "view",
      "type": "function",
      "signature": "0xc9412410"
    },
    {
      "inputs": [],
      "payable": false,
      "stateMutability": "nonpayable",
      "type": "constructor",
      "signature": "constructor"
    },
    {
      "anonymous": false,
      "inputs": [
        {
          "indexed": true,
          "name": "rideId",
          "type": "uint256"
        },
        {
          "indexed": true,
          "name": "driver",
          "type": "address"
        },
        {
          "indexed": false,
          "name": "startPoint",
          "type": "string"
        },
        {
          "indexed": false,
          "name": "endPoint",
          "type": "string"
        },
        {
          "indexed": false,
          "name": "fare",
          "type": "uint256"
        },
        {
          "indexed": false,
          "name": "startTime",
          "type": "uint256"
        },
        {
          "indexed": false,
          "name": "numOfSeats",
          "type": "uint256"
        }
      ],
      "name": "RideCreated",
      "type": "event",
      "signature": "0x7b45b809d122c6b4864ce8d0a9993c19667affbaf8f6b77c760021e10a016f7e"
    },
    {
      "anonymous": false,
      "inputs": [
        {
          "indexed": true,
          "name": "rideId",
          "type": "uint256"
        },
        {
          "indexed": true,
          "name": "passenger",
          "type": "address"
        },
        {
          "indexed": false,
          "name": "phoneNumber",
          "type": "string"
        },
        {
          "indexed": false,
          "name": "numOfPeople",
          "type": "uint256"
        }
      ],
      "name": "PassengerJoined",
      "type": "event",
      "signature": "0xd688cfdb5a20c63b99288942d4381c02c257ffc727cfdb18f6f2426409a5adfc"
    },
    {
      "anonymous": false,
      "inputs": [
        {
          "indexed": true,
          "name": "rideId",
          "type": "uint256"
        },
        {
          "indexed": true,
          "name": "passenger",
          "type": "address"
        }
      ],
      "name": "PassengerCancelled",
      "type": "event",
      "signature": "0x58d54330062419cad3cec1ba663980edde85e9d3f52f990fb2b4bc773ac3dd95"
    },
    {
      "anonymous": false,
      "inputs": [
        {
          "indexed": true,
          "name": "rideId",
          "type": "uint256"
        },
        {
          "indexed": true,
          "name": "driver",
          "type": "address"
        }
      ],
      "name": "RideCompleted",
      "type": "event",
      "signature": "0x293561dd13070ed4d83fa8683b4a93e939f52e0bb5fa61b0d25cc576bf437873"
    },
    {
      "anonymous": false,
      "inputs": [
        {
          "indexed": true,
          "name": "rideId",
          "type": "uint256"
        },
        {
          "indexed": true,
          "name": "passenger",
          "type": "address"
        }
      ],
      "name": "PassengerArrived",
      "type": "event",
      "signature": "0xe7ea48a4921ce71d402b33c9540d78121bb3bf692233144599ecbdd102c0d852"
    },
    {
      "constant": true,
      "inputs": [
        {
          "name": "_driver",
          "type": "address"
        }
      ],
      "name": "getCreatedRides",
      "outputs": [
        {
          "name": "",
          "type": "uint256[]"
        }
      ],
      "payable": false,
      "stateMutability": "view",
      "type": "function",
      "signature": "0x95fee328"
    },
    {
      "constant": true,
      "inputs": [
        {
          "name": "_passenger",
          "type": "address"
        }
      ],
      "name": "getJoinedRides",
      "outputs": [
        {
          "name": "",
          "type": "uint256[]"
        }
      ],
      "payable": false,
      "stateMutability": "view",
      "type": "function",
      "signature": "0x892cca8c"
    },
    {
      "constant": true,
      "inputs": [
        {
          "name": "_rideId",
          "type": "uint256"
        }
      ],
      "name": "getRideDetails",
      "outputs": [
        {
          "name": "",
          "type": "string"
        },
        {
          "name": "",
          "type": "string"
        },
        {
          "name": "",
          "type": "uint256"
        },
        {
          "name": "",
          "type": "uint256"
        },
        {
          "name": "",
          "type": "bool"
        },
        {
          "name": "",
          "type": "uint256"
        },
        {
          "name": "",
          "type": "uint256"
        }
      ],
      "payable": false,
      "stateMutability": "view",
      "type": "function",
      "signature": "0x1d6be93c"
    },
    {
      "constant": true,
      "inputs": [
        {
          "name": "_account",
          "type": "address"
        }
      ],
      "name": "getHistory",
      "outputs": [
        {
          "name": "",
          "type": "uint256[]"
        }
      ],
      "payable": false,
      "stateMutability": "view",
      "type": "function",
      "signature": "0x80396811"
    },
    {
      "constant": false,
      "inputs": [
        {
          "name": "_startPoint",
          "type": "string"
        },
        {
          "name": "_endPoint",
          "type": "string"
        },
        {
          "name": "_fare",
          "type": "uint256"
        },
        {
          "name": "_startTime",
          "type": "uint256"
        },
        {
          "name": "_numOfSeats",
          "type": "uint256"
        }
      ],
      "name": "createRide",
      "outputs": [],
      "payable": false,
      "stateMutability": "nonpayable",
      "type": "function",
      "signature": "0x2c0dd4e5"
    },
    {
      "constant": false,
      "inputs": [
        {
          "name": "_rideId",
          "type": "uint256"
        },
        {
          "name": "_passengerIndex",
          "type": "uint256"
        }
      ],
      "name": "acceptPassenger",
      "outputs": [],
      "payable": false,
      "stateMutability": "nonpayable",
      "type": "function",
      "signature": "0xeac5ddd7"
    },
    {
      "constant": false,
      "inputs": [
        {
          "name": "_rideId",
          "type": "uint256"
        },
        {
          "name": "_passengerIndex",
          "type": "uint256"
        }
      ],
      "name": "declinePassenger",
      "outputs": [],
      "payable": false,
      "stateMutability": "nonpayable",
      "type": "function",
      "signature": "0xec2011ad"
    },
    {
      "constant": false,
      "inputs": [
        {
          "name": "_rideId",
          "type": "uint256"
        },
        {
          "name": "_phoneNumber",
          "type": "string"
        },
        {
          "name": "_numberOfPeople",
          "type": "uint256"
        }
      ],
      "name": "joinPendingRide",
      "outputs": [],
      "payable": true,
      "stateMutability": "payable",
      "type": "function",
      "signature": "0xfa9df9da"
    },
    {
      "constant": false,
      "inputs": [
        {
          "name": "_rideId",
          "type": "uint256"
        }
      ],
      "name": "joinRide",
      "outputs": [],
      "payable": true,
      "stateMutability": "payable",
      "type": "function",
      "signature": "0x01f32206"
    },
    {
      "constant": false,
      "inputs": [
        {
          "name": "_rideId",
          "type": "uint256"
        },
        {
          "name": "_pendingPassenger",
          "type": "address"
        }
      ],
      "name": "cancelRide",
      "outputs": [],
      "payable": false,
      "stateMutability": "nonpayable",
      "type": "function",
      "signature": "0x4fc3877d"
    },
    {
      "constant": false,
      "inputs": [
        {
          "name": "_rideId",
          "type": "uint256"
        }
      ],
      "name": "completeRide",
      "outputs": [],
      "payable": false,
      "stateMutability": "nonpayable",
      "type": "function",
      "signature": "0xc416dd0b"
    },
    {
      "constant": false,
      "inputs": [
        {
          "name": "_rideId",
          "type": "uint256"
        }
      ],
      "name": "comfirmDeclined",
      "outputs": [],
      "payable": false,
      "stateMutability": "nonpayable",
      "type": "function",
      "signature": "0xe0dfffbf"
    },
    {
      "constant": false,
      "inputs": [
        {
          "name": "_rideId",
          "type": "uint256"
        }
      ],
      "name": "arrive",
      "outputs": [],
      "payable": false,
      "stateMutability": "nonpayable",
      "type": "function",
      "signature": "0x9b4f9419"
    },
    {
      "constant": true,
      "inputs": [
        {
          "name": "rideId",
          "type": "uint256"
        }
      ],
      "name": "getPassengers",
      "outputs": [
        {
          "name": "",
          "type": "address[]"
        }
      ],
      "payable": false,
      "stateMutability": "view",
      "type": "function",
      "signature": "0x6d4d31f2"
    },
    {
      "constant": true,
      "inputs": [
        {
          "name": "_rideId",
          "type": "uint256"
        },
        {
          "name": "_passengerAddress",
          "type": "address"
        }
      ],
      "name": "isPassengerInPendingList",
      "outputs": [
        {
          "name": "",
          "type": "uint256"
        }
      ],
      "payable": false,
      "stateMutability": "view",
      "type": "function",
      "signature": "0x8160f048"
    },
    {
      "constant": true,
      "inputs": [
        {
          "name": "_rideId",
          "type": "uint256"
        },
        {
          "name": "_passengerAddress",
          "type": "address"
        }
      ],
      "name": "isPassengerInList",
      "outputs": [
        {
          "name": "",
          "type": "uint256"
        }
      ],
      "payable": false,
      "stateMutability": "view",
      "type": "function",
      "signature": "0x0670a6db"
    }
  ],
  "bytecode": "0x608060405234801561001057600080fd5b5060008055612cb0806100246000396000f3fe60806040526004361061011c5763ffffffff7c010000000000000000000000000000000000000000000000000000000060003504166301f3220681146101215780630670a6db146101405780631d6be93c1461018b578063276f7f77146102ba5780632c0dd4e5146103895780634fc3877d146104645780635205f1121461049d5780636d4d31f2146105ec57806380396811146106665780638160f04814610699578063892cca8c146106d257806395fee328146107055780639b4f941914610738578063b47c188314610762578063bbacd51414610777578063c416dd0b146107a7578063c9412410146107d1578063e0dfffbf146107fb578063eac5ddd714610825578063ec2011ad14610855578063fa9df9da14610885575b600080fd5b61013e6004803603602081101561013757600080fd5b5035610934565b005b34801561014c57600080fd5b506101796004803603604081101561016357600080fd5b5080359060200135600160a060020a0316610b51565b60408051918252519081900360200190f35b34801561019757600080fd5b506101b5600480360360208110156101ae57600080fd5b5035610bcf565b6040518080602001806020018881526020018781526020018615151515815260200185815260200184815260200183810383528a818151815260200191508051906020019080838360005b83811015610218578181015183820152602001610200565b50505050905090810190601f1680156102455780820380516001836020036101000a031916815260200191505b5083810382528951815289516020918201918b019080838360005b83811015610278578181015183820152602001610260565b50505050905090810190601f1680156102a55780820380516001836020036101000a031916815260200191505b50995050505050505050505060405180910390f35b3480156102c657600080fd5b506102ea600480360360408110156102dd57600080fd5b5080359060200135610e69565b60408051600160a060020a038716815290810184905260608101839052811515608082015260a06020808301828152875192840192909252865160c084019188019080838360005b8381101561034a578181015183820152602001610332565b50505050905090810190601f1680156103775780820380516001836020036101000a031916815260200191505b50965050505050505060405180910390f35b34801561039557600080fd5b5061013e600480360360a08110156103ac57600080fd5b8101906020810181356401000000008111156103c757600080fd5b8201836020820111156103d957600080fd5b803590602001918460018302840111640100000000831117156103fb57600080fd5b91939092909160208101903564010000000081111561041957600080fd5b82018360208201111561042b57600080fd5b8035906020019184600183028401116401000000008311171561044d57600080fd5b919350915080359060208101359060400135610f50565b34801561047057600080fd5b5061013e6004803603604081101561048757600080fd5b5080359060200135600160a060020a03166112ae565b3480156104a957600080fd5b506104c7600480360360208110156104c057600080fd5b503561155e565b604051808a815260200189600160a060020a0316600160a060020a0316815260200180602001806020018881526020018781526020018681526020018581526020018415151515815260200183810383528a818151815260200191508051906020019080838360005b83811015610548578181015183820152602001610530565b50505050905090810190601f1680156105755780820380516001836020036101000a031916815260200191505b5083810382528951815289516020918201918b019080838360005b838110156105a8578181015183820152602001610590565b50505050905090810190601f1680156105d55780820380516001836020036101000a031916815260200191505b509b50505050505050505050505060405180910390f35b3480156105f857600080fd5b506106166004803603602081101561060f57600080fd5b50356116c6565b60408051602080825283518183015283519192839290830191858101910280838360005b8381101561065257818101518382015260200161063a565b505050509050019250505060405180910390f35b34801561067257600080fd5b506106166004803603602081101561068957600080fd5b5035600160a060020a031661177e565b3480156106a557600080fd5b50610179600480360360408110156106bc57600080fd5b5080359060200135600160a060020a03166117e9565b3480156106de57600080fd5b50610616600480360360208110156106f557600080fd5b5035600160a060020a031661185b565b34801561071157600080fd5b506106166004803603602081101561072857600080fd5b5035600160a060020a03166118c5565b34801561074457600080fd5b5061013e6004803603602081101561075b57600080fd5b503561192f565b34801561076e57600080fd5b50610179611a3a565b34801561078357600080fd5b506102ea6004803603604081101561079a57600080fd5b5080359060200135611a40565b3480156107b357600080fd5b5061013e600480360360208110156107ca57600080fd5b5035611a5b565b3480156107dd57600080fd5b50610179600480360360208110156107f457600080fd5b5035611eb7565b34801561080757600080fd5b5061013e6004803603602081101561081e57600080fd5b5035611ec9565b34801561083157600080fd5b5061013e6004803603604081101561084857600080fd5b5080359060200135611ee5565b34801561086157600080fd5b5061013e6004803603604081101561087857600080fd5b50803590602001356122c8565b61013e6004803603606081101561089b57600080fd5b813591908101906040810160208201356401000000008111156108bd57600080fd5b8201836020820111156108cf57600080fd5b803590602001918460018302840111640100000000831117156108f157600080fd5b91908080601f016020809104026020016040519081016040528093929190818152602001838380828437600092019190915250929550509135925061255c915050565b60005481111561097c576040805160e560020a62461bcd02815260206004820152600f6024820152600080516020612c65833981519152604482015290519081900360640190fd5b600081815260046020526040902060010154600160a060020a0316331415610a3a576040805160e560020a62461bcd02815260206004820152604160248201527f4a6f696e20526964653a2054686973206973206472697665722061646472657360448201527f732c207468652072696465206e65656420612070617373656e676572206a6f6960648201527f6e00000000000000000000000000000000000000000000000000000000000000608482015290519081900360a40190fd5b6000818152600460205260409020600681015460079091015410610a82576040805160e560020a62461bcd028152602060048201526000602482015290519081900360640190fd5b60008181526004602081905260409091200154670de0b6b3a7640000023414610af5576040805160e560020a62461bcd02815260206004820152601560248201527f496e636f7272656374206661726520616d6f756e740000000000000000000000604482015290519081900360640190fd5b600081815260046020908152604080832060088101805460018181018355918652848620018054600160a060020a0319163390811790915560079092018054820190559084526002835290832080549182018155835291200155565b6000805b600084815260056020526040902054811015610bc35760008481526005602052604090208054600160a060020a038516919083908110610b9157fe5b6000918252602090912060059091020154600160a060020a03161415610bbb576001019050610bc9565b600101610b55565b60009150505b92915050565b60608060008060008060008088118015610beb57506000548811155b1515610c2f576040805160e560020a62461bcd02815260206004820152600f6024820152600080516020612c65833981519152604482015290519081900360640190fd5b610c376129f1565b60008981526004602090815260409182902082516101408101845281548152600180830154600160a060020a0316828501526002808401805487516101009482161594909402600019011691909104601f81018690048602830186018752808352929593949386019391929091830182828015610cf55780601f10610cca57610100808354040283529160200191610cf5565b820191906000526020600020905b815481529060010190602001808311610cd857829003601f168201915b505050918352505060038201805460408051602060026001851615610100026000190190941693909304601f8101849004840282018401909252818152938201939291830182828015610d895780601f10610d5e57610100808354040283529160200191610d89565b820191906000526020600020905b815481529060010190602001808311610d6c57829003601f168201915b505050505081526020016004820154815260200160058201548152602001600682015481526020016007820154815260200160088201805480602002602001604051908101604052809291908181526020018280548015610e1357602002820191906000526020600020905b8154600160a060020a03168152600190910190602001808311610df5575b50505091835250506009919091015460ff16151560209091015260408101516060820151608083015160a084015161012085015160c086015160e090960151949f939e50919c509a509850919650945092505050565b600660205281600052604060002081815481101515610e8457fe5b600091825260209182902060059091020180546001808301805460408051601f6002600019968516156101000296909601909316949094049182018790048702840187019052808352600160a060020a03909316965092945092830182828015610f2f5780601f10610f0457610100808354040283529160200191610f2f565b820191906000526020600020905b815481529060010190602001808311610f1257829003601f168201915b50505050600283015460038401546004909401549293909290915060ff1685565b60008311610fa8576040805160e560020a62461bcd02815260206004820152601e60248201527f46617265206d7573742062652067726561746572207468616e207a65726f0000604482015290519081900360640190fd5b600080546001019055610fb96129f1565b60005481523360208083019190915260408051601f8a0183900483028101830190915288815290899089908190840183828082843760009201919091525050505060408083019190915280516020601f8801819004810282018101909252868152908790879081908401838280828437600092018290525060608601949094525050506080820185905260a082018490526001610120830181905260c0830184905260e08301829052815482526004602090815260409283902084518155818501519281018054600160a060020a031916600160a060020a039094169390931790925591830151805184936110b5926002850192910190612a50565b50606082015180516110d1916003840191602090910190612a50565b506080820151600482015560a0820151600582015560c0820151600682015560e082015160078201556101008201518051611116916008840191602090910190612ace565b5061012091909101516009909101805460ff19169115159190911790553360008181526001602081815260408084208651815494850182559085528285209093019290925582548352600781528183208390558451858301516060808801516080808a015160a0808c015160c0808e01518b519b8c01859052968b01829052938a01869052818a528651918a0191909152855196997f7b45b809d122c6b4864ce8d0a9993c19667affbaf8f6b77c760021e10a016f7e99969894979296919594919384938484019391850192918b01918190849084905b838110156112055781810151838201526020016111ed565b50505050905090810190601f1680156112325780820380516001836020036101000a031916815260200191505b50838103825287518152875160209182019189019080838360005b8381101561126557818101518382015260200161124d565b50505050905090810190601f1680156112925780820380516001836020036101000a031916815260200191505b5097505050505050505060405180910390a35050505050505050565b60006112ba83836117e9565b9050801515611339576040805160e560020a62461bcd02815260206004820152602560248201527f50617373656e676572206973206e6f7420696e207468652070656e64696e672060448201527f6c69737420000000000000000000000000000000000000000000000000000000606482015290519081900360840190fd5b6000838152600660205260409020805433916108fc91600019850190811061135d57fe5b906000526020600020906005020160020154600460008781526020019081526020016000206004015402670de0b6b3a7640000029081150290604051600060405180830381858888f193505050501580156113bc573d6000803e3d6000fd5b50604051339084907f58d54330062419cad3cec1ba663980edde85e9d3f52f990fb2b4bc773ac3dd9590600090a360008381526007602090815260408083208054600019908101909155600690925290912080549091810190811061141d57fe5b9060005260206000209060050201600660008581526020019081526020016000206001830381548110151561144e57fe5b6000918252602090912082546005909202018054600160a060020a031916600160a060020a03909216919091178155600180830180546114a592808501929160026000199282161561010002929092011604612b2f565b5060028281015490820155600380830154908201556004918201549101805460ff191660ff9092161515919091179055600083815260066020526040902080548015156114ee57fe5b6000828152602081206005600019909301928302018054600160a060020a03191681559061151f6001830182612ba4565b5060006002828101829055600383018290556004909201805460ff191690559190925533815260209190915260409020611559908461293f565b505050565b60046020908152600091825260409182902080546001808301546002808501805488516101009582161595909502600019011691909104601f81018790048702840187019097528683529295600160a060020a039091169491929183018282801561160a5780601f106115df5761010080835404028352916020019161160a565b820191906000526020600020905b8154815290600101906020018083116115ed57829003601f168201915b5050505060038301805460408051602060026001851615610100026000190190941693909304601f810184900484028201840190925281815294959493509083018282801561169a5780601f1061166f5761010080835404028352916020019161169a565b820191906000526020600020905b81548152906001019060200180831161167d57829003601f168201915b505050600484015460058501546006860154600787015460099097015495969295919450925060ff1689565b600054606090821115611711576040805160e560020a62461bcd02815260206004820152600f6024820152600080516020612c65833981519152604482015290519081900360640190fd5b6000828152600460209081526040918290206008018054835181840281018401909452808452909183018282801561177257602002820191906000526020600020905b8154600160a060020a03168152600190910190602001808311611754575b50505050509050919050565b600160a060020a03811660009081526003602090815260409182902080548351818402810184019094528084526060939283018282801561177257602002820191906000526020600020905b8154815260200190600101908083116117ca5750505050509050919050565b6000805b600084815260066020526040902054811015610bc35760008481526006602052604090208054600160a060020a03851691908390811061182957fe5b6000918252602090912060059091020154600160a060020a03161415611853576001019050610bc9565b6001016117ed565b600160a060020a03811660009081526002602090815260409182902080548351818402810184019094528084526060939283018282801561177257602002820191906000526020600020908154815260200190600101908083116117ca5750505050509050919050565b600160a060020a03811660009081526001602090815260409182902080548351818402810184019094528084526060939283018282801561177257602002820191906000526020600020908154815260200190600101908083116117ca5750505050509050919050565b60005b6000828152600460205260409020600801548110156119d157600082815260056020526040902080543391908390811061196857fe5b6000918252602090912060059091020154600160a060020a031614156119c9576000828152600560205260409020805460019190839081106119a657fe5b60009182526020909120600590910201600401805460ff19169115159190911790555b600101611932565b503360009081526002602052604090206119eb908261293f565b33600081815260036020908152604080832080546001810182559084529183209091018490555183917fe7ea48a4921ce71d402b33c9540d78121bb3bf692233144599ecbdd102c0d85291a350565b60005481565b600560205281600052604060002081815481101515610e8457fe5b600054811115611aa3576040805160e560020a62461bcd02815260206004820152600f6024820152600080516020612c65833981519152604482015290519081900360640190fd5b600081815260046020526040902060010154600160a060020a03163314611b3a576040805160e560020a62461bcd02815260206004820152602260248201527f4f6e6c79206472697665722063616e2063616c6c20746869732066756e63746960448201527f6f6e000000000000000000000000000000000000000000000000000000000000606482015290519081900360840190fd5b6000818152600460205260409020600981015460ff161515611ba6576040805160e560020a62461bcd02815260206004820152601260248201527f52696465206973206e6f74206163746976650000000000000000000000000000604482015290519081900360640190fd5b60098101805460ff19169055336000908152600160205260409020611bcb908361293f565b6000805b6008830154811015611d54576000848152600560205260409020805482908110611bf557fe5b600091825260209091206004600590920201015460ff1615611c46576000848152600560205260409020805482908110611c2b57fe5b90600052602060002090600502016002015482019150611cfa565b6000848152600560205260409020805482908110611c6057fe5b600091825260208083206005928302015487845291905260409091208054600160a060020a03909216916108fc919084908110611c9957fe5b906000526020600020906005020160020154600460008881526020019081526020016000206004015402670de0b6b3a7640000029081150290604051600060405180830381858888f19350505050158015611cf8573d6000803e3d6000fd5b505b60008481526005602052604081208054611d4c92600292909185908110611d1d57fe5b60009182526020808320600590920290910154600160a060020a0316835282019290925260400190208561293f565b600101611bcf565b5060005b600084815260066020526040902054811015611e23576000848152600660205260409020805482908110611d8857fe5b60009182526020808320600590920290910154868352600480835260408085209091015460069093529092208054600160a060020a03909316926108fc92919085908110611dd257fe5b90600052602060002090600502016002015402670de0b6b3a7640000029081150290604051600060405180830381858888f19350505050158015611e1a573d6000803e3d6000fd5b50600101611d58565b506004820154604051908202670de0b6b3a7640000029033906108fc8315029083906000818181858888f19350505050158015611e64573d6000803e3d6000fd5b5033600081815260036020908152604080832080546001810182559084529183209091018790555186917f293561dd13070ed4d83fa8683b4a93e939f52e0bb5fa61b0d25cc576bf43787391a350505050565b60076020526000908152604090205481565b336000908152600260205260409020611ee2908261293f565b50565b6000828152600660205260409020548110611f4a576040805160e560020a62461bcd02815260206004820152601c60248201527f50617373656e67657220696e646578206f7574206f662072616e676500000000604482015290519081900360640190fd5b611f52612be8565b6000838152600660205260409020805483908110611f6c57fe5b60009182526020918290206040805160a08101825260059093029091018054600160a060020a03168352600180820180548451601f600260001995841615610100029590950190921693909304908101879004870283018701909452838252939491938583019391929091908301828280156120295780601f10611ffe57610100808354040283529160200191612029565b820191906000526020600020905b81548152906001019060200180831161200c57829003601f168201915b50505091835250506002820154602080830191909152600383015460408084019190915260049384015460ff161515606093840152805142818401526c0100000000000000000000000033028183015260548082018a90528251808303909101815260749091018252805190830120928501839052600088815293825280842085516008909101805460018181018355918752848720018054600160a060020a03938416600160a060020a0319918216179091558a875260058086529387208054808401808355918952978690208951989095029094018054979093169616959095178155858301518051969750939591948794919361212e93918501920190612a50565b506040828101516002830155606083015160038301556080909201516004918201805460ff1916911515919091179055848201516000888152602092835283812060079081018054909301909255908252828120805460001990810190915560069092529190912080549092509081019081106121a757fe5b906000526020600020906005020160066000868152602001908152602001600020848154811015156121d557fe5b6000918252602090912082546005909202018054600160a060020a031916600160a060020a039092169190911781556001808301805461222c92808501929160026000199282161561010002929092011604612b2f565b5060028281015490820155600380830154908201556004918201549101805460ff191660ff90921615159190911790556000848152600660205260409020805480151561227557fe5b6000828152602081206005600019909301928302018054600160a060020a0319168155906122a66001830182612ba4565b506000600282018190556003820155600401805460ff19169055905550505050565b600054821115612310576040805160e560020a62461bcd02815260206004820152600f6024820152600080516020612c65833981519152604482015290519081900360640190fd5b600082815260046020526040902060010154600160a060020a031633146123a7576040805160e560020a62461bcd02815260206004820152602260248201527f4f6e6c79206472697665722063616e2063616c6c20746869732066756e63746960448201527f6f6e000000000000000000000000000000000000000000000000000000000000606482015290519081900360840190fd5b6123af612be8565b60008381526006602052604090208054839081106123c957fe5b60009182526020918290206040805160a08101825260059093029091018054600160a060020a03168352600180820180548451601f600260001995841615610100029590950190921693909304908101879004870283018701909452838252939491938583019391929091908301828280156124865780601f1061245b57610100808354040283529160200191612486565b820191906000526020600020905b81548152906001019060200180831161246957829003601f168201915b5050505050815260200160028201548152602001600382015481526020016004820160009054906101000a900460ff161515151581525050905060008160000151905080600160a060020a03166108fc6004600087815260200190815260200160002060040154846040015102670de0b6b3a7640000029081150290604051600060405180830381858888f19350505050158015612528573d6000803e3d6000fd5b506000848152600760209081526040808320805460001990810190915560069092529091208054909181019081106121a757fe5b6000548311156125a4576040805160e560020a62461bcd02815260206004820152600f6024820152600080516020612c65833981519152604482015290519081900360640190fd5b600083815260046020526040902060010154600160a060020a0316331415612662576040805160e560020a62461bcd02815260206004820152604160248201527f4a6f696e20526964653a2054686973206973206472697665722061646472657360448201527f732c207468652072696465206e65656420612070617373656e676572206a6f6960648201527f6e00000000000000000000000000000000000000000000000000000000000000608482015290519081900360a40190fd5b60008381526004602052604090206006810154600790910154106126aa576040805160e560020a62461bcd028152602060048201526000602482015290519081900360640190fd5b60006126b684336117e9565b14612731576040805160e560020a62461bcd02815260206004820152602f60248201527f4a6f696e20526964653a2050617373656e67657220697320616c72656164792060448201527f696e2070656e64696e67206c6973740000000000000000000000000000000000606482015290519081900360840190fd5b60046000848152602001908152602001600020600401548102670de0b6b3a764000002341415156127ac576040805160e560020a62461bcd02815260206004820152601560248201527f496e636f7272656374206661726520616d6f756e740000000000000000000000604482015290519081900360640190fd5b60008381526007602090815260408083208054600190810190915560068352818420825160a081018452338152808501888152938101879052606081018690526080810186905281548084018084559287529585902081516005909702018054600160a060020a031916600160a060020a03909716969096178655925180519195939461283e93850192910190612a50565b5060408281015160028381019190915560608085015160038501556080909401516004909301805460ff19169315159390931790925533600081815260209384528281208054600181018255908252848220018990558251808501889052838152885193810193909352875191955088947fd688cfdb5a20c63b99288942d4381c02c257ffc727cfdb18f6f2426409a5adfc948994899490938493840192870191908190849084905b838110156128ff5781810151838201526020016128e7565b50505050905090810190601f16801561292c5780820380516001836020036101000a031916815260200191505b50935050505060405180910390a3505050565b60005b82548110156115595781838281548110151561295a57fe5b906000526020600020015414156129e95782548390600019810190811061297d57fe5b9060005260206000200154838281548110151561299657fe5b6000918252602090912001558254839060001981019081106129b457fe5b90600052602060002001600090558280548015156129ce57fe5b60019003818190600052602060002001600090559055611559565b600101612942565b61014060405190810160405280600081526020016000600160a060020a03168152602001606081526020016060815260200160008152602001600081526020016000815260200160008152602001606081526020016000151581525090565b828054600181600116156101000203166002900490600052602060002090601f016020900481019282601f10612a9157805160ff1916838001178555612abe565b82800160010185558215612abe579182015b82811115612abe578251825591602001919060010190612aa3565b50612aca929150612c23565b5090565b828054828255906000526020600020908101928215612b23579160200282015b82811115612b235782518254600160a060020a031916600160a060020a03909116178255602090920191600190910190612aee565b50612aca929150612c40565b828054600181600116156101000203166002900490600052602060002090601f016020900481019282601f10612b685780548555612abe565b82800160010185558215612abe57600052602060002091601f016020900482015b82811115612abe578254825591600101919060010190612b89565b50805460018160011615610100020316600290046000825580601f10612bca5750611ee2565b601f016020900490600052602060002090810190611ee29190612c23565b60a0604051908101604052806000600160a060020a031681526020016060815260200160008152602001600081526020016000151581525090565b612c3d91905b80821115612aca5760008155600101612c29565b90565b612c3d91905b80821115612aca578054600160a060020a0319168155600101612c4656fe496e76616c696420726964652049440000000000000000000000000000000000a165627a7a72305820f8b1fde57044d5228ce7c40c4a01aa2e843e155c6c613c3422f226c8e82503a30029",
  "source": "// SPDX-License-Identifier: MIT\n//pragma solidity >=0.4.22 <0.9.0;\npragma solidity ^0.5.0;\ncontract RideContract {\n    uint public rideCount;\n    \n\n    struct Ride {\n        uint id; \n        address payable driver; \n        string startPoint; //departure\n        string endPoint;    //destination\n        uint256 fare;   \n        uint256 startTime;\n        uint numOfSeats; \n        uint numOfPassengers; \n        address payable[] passengers;\n        bool isActive;\n    }\n  \n    //cu trc thng tin khch hng\n    struct Passenger {\n        address payable addr; \n        string phoneNumber;\n        uint numOfPeople ; // mt ngi c th t cho nhiu ngi\n        uint256 verificationCode;\n        bool arrived; \n      \n\n    }\n\n    mapping(address => uint[]) private createdRides; // Lu tr danh sch cc chuyn i  c to bi mi ti x\n    mapping(address => uint[]) private joinedRides; // Lu tr danh sch cc chuyn i  tham gia ca mi hnh khch\n    mapping(address => uint[]) private history;\n    mapping(uint => Ride) public rides;\n    mapping(uint =>  Passenger []) public passengers;\n    mapping(uint => Passenger[]) public pendingPassengers;\n    mapping(uint => uint) public numOfPendings; // s lng pending ca mi chuyn\n\n    event RideCreated(uint indexed rideId, address indexed driver, string startPoint, string endPoint, uint256 fare, uint256 startTime, uint numOfSeats);\n    event PassengerJoined(uint indexed rideId, address indexed passenger, string phoneNumber, uint numOfPeople);\n    event PassengerCancelled(uint indexed rideId, address indexed passenger);\n    event RideCompleted(uint indexed rideId, address indexed driver);\n    event PassengerArrived(uint indexed rideId, address indexed passenger);\n\n\n    constructor() public {\n        // createRide(\"Start Point\", \"End Point\", 100); // To mt chuyn xe mu khi khi to\n        rideCount = 0;\n       \n       \n    }\n    // Hm tr v danh sch cc chuyn i  c to bi mt ti x c th\n    function getCreatedRides(address _driver) external view returns (uint[] memory) {\n        return createdRides[_driver];\n    }\n\n    // Hm tr v danh sch cc chuyn i m mt hnh khch c th  tham gia\n    function getJoinedRides(address _passenger) external view returns (uint[] memory) {\n        return joinedRides[_passenger];\n    }\n     // Hm  ly thng tin ca mt chuyn i c th\n    function getRideDetails(uint _rideId) external view returns (string memory, string memory, uint256, uint256, bool, uint256, uint256) {\n        require(_rideId > 0 && _rideId <= rideCount, \"Invalid ride ID\");\n        Ride memory ride = rides[_rideId];\n        return (ride.startPoint, ride.endPoint, ride.fare, ride.startTime, ride.isActive, ride.numOfSeats, ride.numOfPassengers);\n    }\n    // Hm tr v danh sch cc chuyn i  c to bi mt ti x c th\n    function getHistory(address _account) external view returns (uint[] memory) {\n        return history[_account];\n    }\n    // hm hon tin v cho hnh khch khi b hu \n    function withdrawFunds(address payable _receiver, uint256 _amount) internal {\n    (bool success, ) = _receiver.call.value(_amount)(\"\");\n    require(success, \"Transfer failed.\");\n    }\n\n\n    function createRide(string calldata _startPoint, string calldata _endPoint, uint256 _fare, uint256 _startTime, uint _numOfSeats) external {\n        require(_fare > 0, \"Fare must be greater than zero\");\n        rideCount++; // Tng s lng chuyn xe\n\n        // To mt chuyn xe mi\n        Ride memory newRide;\n        newRide.id = rideCount;\n        newRide.driver = msg.sender;\n        newRide.startPoint = _startPoint;\n        newRide.endPoint = _endPoint;\n        newRide.fare = _fare;\n        newRide.startTime = _startTime;\n        newRide.isActive = true;\n        newRide.numOfSeats = _numOfSeats; \n        newRide.passengers ;\n        newRide.numOfPassengers = 0;\n        // Lu tr chuyn xe vo mapping\n        rides[rideCount] = newRide;\n        // Thm chuyn xe vo danh sch chuyn i  to ca ti x\n        createdRides[msg.sender].push(newRide.id);\n\n        numOfPendings[rideCount] = 0;\n        emit RideCreated(newRide.id, msg.sender, newRide.startPoint, newRide.endPoint, newRide.fare, newRide.startTime, newRide.numOfSeats);\n\n    }\n  \n    //chp nhn mt hnh khch vo chuyn\n    function acceptPassenger(uint _rideId, uint _passengerIndex) public {\n        require(_passengerIndex < pendingPassengers[_rideId].length, \"Passenger index out of range\");\n        \n        // Ly thng tin hnh khch t danh sch ch\n        Passenger memory passenger = pendingPassengers[_rideId][_passengerIndex];\n        //i m code\n        uint256 randomCode = uint256(keccak256(abi.encodePacked(block.timestamp, msg.sender, _rideId)));\n        passenger.verificationCode = randomCode;\n        // Thm hnh khch vo danh sch hnh khch ca chuyn i\n        rides[_rideId].passengers.push(passenger.addr);\n        passengers[_rideId].push(passenger);\n        rides[_rideId].numOfPassengers += passenger.numOfPeople;\n         //xo hnh khch  khi pendings\n        numOfPendings[_rideId]--;\n        // Gn gi tr ca phn t cn xa bng gi tr ca phn t cui cng trong mng\n        pendingPassengers[_rideId][_passengerIndex] = pendingPassengers[_rideId][pendingPassengers[_rideId].length - 1];\n        // Gim  di ca mng i mt\n        pendingPassengers[_rideId].pop();\n    }\n    function declinePassenger(uint _rideId, uint _passengerIndex) public {\n        require(_rideId <= rideCount, \"Invalid ride ID\");\n        require(msg.sender == rides[_rideId].driver, \"Only driver can call this function\");\n        //hon li tin cho hnh khch \n        Passenger memory passenger = pendingPassengers[_rideId][_passengerIndex];\n        address payable passengerAddr = passenger.addr;\n        passengerAddr.transfer(passenger.numOfPeople*rides[_rideId].fare*1e18);\n        //xo hnh khch  khi pendings\n        numOfPendings[_rideId]--;\n        // Gn gi tr ca phn t cn xa bng gi tr ca phn t cui cng trong mng\n        pendingPassengers[_rideId][_passengerIndex] = pendingPassengers[_rideId][pendingPassengers[_rideId].length - 1];\n        // Gim  di ca mng i mt\n        pendingPassengers[_rideId].pop();\n  \n        \n    }\n\n    // Hm sinh m xc nhn ngu nhin\n    function generateVerificationCode() private view returns (uint256) {\n        return uint256(keccak256(abi.encodePacked(block.timestamp, block.difficulty))) % 9000 + 1000;\n    }\n    // 1. Khi hnh khch join chuyn (nhp thng tin v thanh ton )\n    function joinPendingRide(uint _rideId, string memory _phoneNumber, uint256 _numberOfPeople) public payable{\n        require(_rideId <= rideCount, \"Invalid ride ID\");\n        require(msg.sender != rides[_rideId].driver, \"Join Ride: This is driver address, the ride need a passenger join\");\n        //kim tra nu cn  ch  thm hnh khch vo pending\n        require(rides[_rideId].numOfPassengers < rides[_rideId].numOfSeats, \"\");\n        //kim tra thm hnh khch   nm trong danh sch pending ca chuyn  cha\n        require(isPassengerInPendingList(_rideId, msg.sender)==uint(0), \"Join Ride: Passenger is already in pending list\");\n        require(msg.value == _numberOfPeople*rides[_rideId].fare*1e18, \"Incorrect fare amount\");\n         numOfPendings[_rideId]++; //tng lng khch trong danh sch ch \n        pendingPassengers[_rideId].push(Passenger(msg.sender, _phoneNumber, _numberOfPeople, 0, false));\n       \n        //Them chuyen xe vao danh sach chuyen xe da tham gia\n        joinedRides[msg.sender].push(_rideId);\n        emit PassengerJoined(_rideId, msg.sender, _phoneNumber, _numberOfPeople);\n    }\n    //2. Hm ti x chp nhn hnh khch v to m xc nhn\n    // function acceptPassenger(uint _rideId, address _passenger) public {\n    //     Passenger storage passenger = pendingPassengers[_passenger][_rideId];\n    //     require(!passenger.accepted, \"Passenger already accepted\");\n    //     passenger.verificationCode = generateVerificationCode();\n    //     passenger.accepted = true;\n    // }\n    //3. Driver t chi hnh khch\n    // function rejectPendingPassenger(uint _rideId, address payable _passenger) public {\n    //     // Kim tra xem ngi gi hm c phi l ti x ca chuyn i khng\n    //     require(msg.sender == rides[_rideId].driver, \"Only driver can reject pending passenger\");\n\n    //     // Kim tra xem hnh khch c tn ti trong danh sch hng i khng\n    //     require(pendingPassengers[_passenger][_rideId].id == _rideId, \"Passenger not found in pending list\");\n\n    //     // Hon tr tin  gi ca hnh khch\n    //     uint256 fareAmount = pendingPassengers[_passenger][_rideId].numOfPeople * rides[_rideId].fare * 1e18;\n    //    withdrawFunds(_passenger, fareAmount);\n\n    //     // Xa hnh khch khi danh sch hng i\n    //     delete pendingPassengers[_passenger][_rideId];\n    // }\n\n    //4. Hm hnh khch nhp m xc nhn v tham gia chuyn i\n    // function enterVerificationCode(uint _rideId, uint256 _verificationCode) public {\n    //     Passenger storage passenger = pendingPassengers[msg.sender][_rideId];\n    //     require(passenger.accepted, \"Passenger not accepted yet\");\n    //     require(passenger.verificationCode == _verificationCode, \"Incorrect verification code\");\n    //     // Thm hnh khch vo danh sch ca chuyn i\n    //     addPassenger(_rideId, passenger.phoneNumber, passenger.numOfPeople);\n    //     // Xa thng tin hnh khch khi danh sch pending\n    //     delete pendingPassengers[msg.sender][_rideId];\n    // }\n\n    \n\n    //khi ngi dng nhn join vo chuyn c th i\n    function joinRide(uint256 _rideId) external payable {\n        require(_rideId <= rideCount, \"Invalid ride ID\");\n        require(msg.sender != rides[_rideId].driver, \"Join Ride: This is driver address, the ride need a passenger join\");\n        //kim tra nu cn  ch  thm hnh khch vapf \n        require(rides[_rideId].numOfPassengers < rides[_rideId].numOfSeats, \"\");\n        require(msg.value == rides[_rideId].fare*1e18, \"Incorrect fare amount\");\n        \n        // thm ti khon ca hnh khch vo danh sch hnh khch ca chuyn\n        rides[_rideId].passengers.push(msg.sender);\n        rides[_rideId].numOfPassengers ++ ; \n\n       \n        // Thm chuyn xe vo danh sch chuyn i  tham gia ca hnh khch\n        joinedRides[msg.sender].push(_rideId);\n        \n\n\n    }\n\n    //Mt hnh khch hu chuyn i \n    function cancelRide(uint256 _rideId,  address payable _pendingPassenger) external {\n        //Hnh khch  cn nm trong pending, ngha l cha c ti x chp nhn\n        uint pendingPassengerId = isPassengerInPendingList(_rideId, _pendingPassenger);\n        require(pendingPassengerId != uint(0), \"Passenger is not in the pending list \"); \n         //tr li tin cho hnh khch \n        (msg.sender).transfer(rides[_rideId].fare*pendingPassengers[_rideId][pendingPassengerId-1].numOfPeople*1e18);\n        //xo hnh khch  khi danh sch pendings v join\n      \n       \n        emit PassengerCancelled(_rideId, msg.sender);\n         //xo hnh khch  khi pendings\n        numOfPendings[_rideId]--;\n        // Gn gi tr ca phn t cn xa bng gi tr ca phn t cui cng trong mng\n        pendingPassengers[_rideId][pendingPassengerId-1] = pendingPassengers[_rideId][pendingPassengers[_rideId].length - 1];\n        // Gim  di ca mng i mt\n        pendingPassengers[_rideId].pop();\n\n        // Xo chuyn i khi danh sch tham gia\n        removeRideFromList(joinedRides[msg.sender], _rideId);\n\n\n\n    }\n    //khi chuyn i kt thc, ti x thc hin ly tin ca hnh khch\n    function completeRide(uint256 _rideId) external {\n        require(_rideId <= rideCount, \"Invalid ride ID\");\n        require(msg.sender == rides[_rideId].driver, \"Only driver can call this function\");\n        Ride storage ride = rides[_rideId];\n        require(ride.isActive, \"Ride is not active\");\n\n        \n\n        // Deactivate ride\n        ride.isActive = false;\n\n        // Xo chuyn i khi danh sch  to ca ti x v tng hnh khch\n        removeRideFromList(createdRides[msg.sender], _rideId);\n        \n        uint numOfArrivals = 0;\n        for (uint i = 0; i < ride.passengers.length; i++) {\n           if (passengers[_rideId][i].arrived) numOfArrivals +=passengers[_rideId][i].numOfPeople ;\n           else {\n                // Hon tr tin cho hnh khch\n                (passengers[_rideId][i].addr).transfer(rides[_rideId].fare*passengers[_rideId][i].numOfPeople*1e18);\n\n           }\n           removeRideFromList(joinedRides[passengers[_rideId][i].addr], _rideId);\n        }\n        // Hon tin cho hnh khch cn trong pending\n        for(uint i = 0 ; i < pendingPassengers[_rideId].length ; i++){\n            (pendingPassengers[_rideId][i].addr).transfer(pendingPassengers[_rideId][i].numOfPeople*rides[_rideId].fare*1e18);\n        }\n\n        uint256 totalFare = ride.fare * numOfArrivals *1e18;\n       \n        msg.sender.transfer(totalFare); // Chuyn s tin t hp ng v ti khon ca ti x\n        //Thm vo lch s\n        history[msg.sender].push(_rideId);\n        emit RideCompleted(_rideId, msg.sender);\n\n    }\n    //Khch hng confirm l  b declined -> xo khi danh sch  tham gia\n    function comfirmDeclined(uint _rideId) external {\n        removeRideFromList(joinedRides[msg.sender], _rideId);\n    }\n    //Mt hnh khch arrive \n    function arrive(uint256 _rideId) external {\n        \n        //nh du  n ni \n        for (uint i = 0; i < rides[_rideId].passengers.length; i++){\n            if(passengers[_rideId][i].addr == msg.sender){\n                passengers[_rideId][i].arrived =true;\n            }\n        }\n        \n        // Xo chuyn i khi danh sch tham gia\n        removeRideFromList(joinedRides[msg.sender], _rideId);\n\n\n        //Thm vo lch s\n        history[msg.sender].push(_rideId);\n       \n        emit PassengerArrived(_rideId, msg.sender);\n\n\n    }\n\n\n    \n    function getPassengers(uint rideId) external view returns (address payable[] memory) {\n        require(rideId <= rideCount, \"Invalid ride ID\");\n        return rides[rideId].passengers;\n    }\n\n    // Hm  xo mt chuyn i khi mt danh sch chuyn i\n    function removeRideFromList(uint[] storage list, uint256 _rideId) private {\n        for (uint i = 0; i < list.length; i++) {\n            if (list[i] == _rideId) {\n                list[i] = list[list.length - 1];\n                delete list[list.length - 1];\n                list.pop();\n                break;\n            }\n        }\n    }\n\n    // Kim tra xem mt hnh khch  nm trong danh sch pending ca chuyn i  cha  trnh join 2 ln\n    function isPassengerInPendingList(uint _rideId, address _passengerAddress) public view returns(uint) {\n        uint i;\n        for ( i = 0; i < pendingPassengers[_rideId].length; i++) {\n            if (pendingPassengers[_rideId][i].addr== _passengerAddress) {\n                return i+1; // Hnh khch  nm trong danh sch pending\n            }\n        }\n        return uint(0); // Hnh khch cha nm trong danh sch pending\n    }\n    \n    // Kim tra xem mt hnh khch  nm trong danh sch khch ca chuyn i \n    function isPassengerInList(uint _rideId, address _passengerAddress) public view returns(uint) {\n        uint i;\n        for ( i = 0; i < passengers[_rideId].length; i++) {\n            if (passengers[_rideId][i].addr== _passengerAddress) {\n                return i+1; // Hnh khch  nm trong danh sch pending\n            }\n        }\n        return uint(0); // Hnh khch cha nm trong danh sch pending\n    }\n    \n}\n",
  "sourcePath": "/Users/dattran/Documents/project-II-blockchain-carpooling-system/contracts/RideContract.sol",
  "compiler": {
    "name": "solc",
    "version": "0.5.0+commit.1d4f565a.Emscripten.clang"
  },
  "schemaVersion": "3.0.1",
  "updatedAt": "2024-04-13T09:00:15.041Z",
  "devdoc": {
    "methods": {}
  },
  "userdoc": {
    "methods": {}
  }
}