{
    "contractName": "RideContract",
    "abi": [
        {
            "inputs": [],
            "stateMutability": "nonpayable",
            "type": "constructor"
        },
        {
            "inputs": [
                {
                    "internalType": "address",
                    "name": "",
                    "type": "address"
                }
            ],
            "name": "clientBalances",
            "outputs": [
                {
                    "internalType": "uint256",
                    "name": "",
                    "type": "uint256"
                }
            ],
            "stateMutability": "view",
            "type": "function"
        },
        {
            "inputs": [],
            "name": "clientDeposit",
            "outputs": [],
            "stateMutability": "payable",
            "type": "function"
        },
        {
            "inputs": [
                {
                    "internalType": "uint256",
                    "name": "_rideId",
                    "type": "uint256"
                }
            ],
            "name": "completeRide",
            "outputs": [],
            "stateMutability": "nonpayable",
            "type": "function"
        },
        {
            "inputs": [
                {
                    "internalType": "string",
                    "name": "_startPoint",
                    "type": "string"
                },
                {
                    "internalType": "string",
                    "name": "_endPoint",
                    "type": "string"
                },
                {
                    "internalType": "uint256",
                    "name": "_fare",
                    "type": "uint256"
                },
                {
                    "internalType": "uint256",
                    "name": "_startTime",
                    "type": "uint256"
                }
            ],
            "name": "createRide",
            "outputs": [],
            "stateMutability": "nonpayable",
            "type": "function"
        },
        {
            "inputs": [
                {
                    "internalType": "uint256",
                    "name": "_rideId",
                    "type": "uint256"
                }
            ],
            "name": "joinRide",
            "outputs": [],
            "stateMutability": "payable",
            "type": "function"
        },
        {
            "inputs": [],
            "name": "ownerBalance",
            "outputs": [
                {
                    "internalType": "uint256",
                    "name": "",
                    "type": "uint256"
                }
            ],
            "stateMutability": "view",
            "type": "function"
        },
        {
            "inputs": [],
            "name": "rideCount",
            "outputs": [
                {
                    "internalType": "uint256",
                    "name": "",
                    "type": "uint256"
                }
            ],
            "stateMutability": "view",
            "type": "function"
        },
        {
            "inputs": [
                {
                    "internalType": "uint256",
                    "name": "",
                    "type": "uint256"
                }
            ],
            "name": "rides",
            "outputs": [
                {
                    "internalType": "uint256",
                    "name": "id",
                    "type": "uint256"
                },
                {
                    "internalType": "address",
                    "name": "driver",
                    "type": "address"
                },
                {
                    "internalType": "string",
                    "name": "startPoint",
                    "type": "string"
                },
                {
                    "internalType": "string",
                    "name": "endPoint",
                    "type": "string"
                },
                {
                    "internalType": "uint256",
                    "name": "fare",
                    "type": "uint256"
                },
                {
                    "internalType": "uint256",
                    "name": "startTime",
                    "type": "uint256"
                },
                {
                    "internalType": "bool",
                    "name": "isActive",
                    "type": "bool"
                }
            ],
            "stateMutability": "view",
            "type": "function"
        },
        {
            "inputs": [],
            "name": "withdrawEarnings",
            "outputs": [],
            "stateMutability": "nonpayable",
            "type": "function"
        }
    ],
    "bytecode": "608060405234801561001057600080fd5b5060008055600180546001600160a01b03191633179055610c77806100366000396000f3fe6080604052600436106100865760003560e01c8063b73c6ce911610059578063b73c6ce91461012d578063bedcf00314610142578063c416dd0b14610158578063f07ff64114610178578063f5e6a7fb1461018057600080fd5b806301f322061461008b5780635205f112146100a05780638c6e9d1c146100dc578063b47c188314610117575b600080fd5b61009e6100993660046108fa565b6101a0565b005b3480156100ac57600080fd5b506100c06100bb3660046108fa565b6102b1565b6040516100d39796959493929190610960565b60405180910390f35b3480156100e857600080fd5b506101096100f73660046109be565b60026020526000908152604090205481565b6040519081526020016100d3565b34801561012357600080fd5b5061010960005481565b34801561013957600080fd5b5061009e61040b565b34801561014e57600080fd5b5061010960035481565b34801561016457600080fd5b5061009e6101733660046108fa565b610479565b61009e610645565b34801561018c57600080fd5b5061009e61019b366004610a91565b61066b565b60005481106101e85760405162461bcd60e51b815260206004820152600f60248201526e125b9d985b1a59081c9a5919481251608a1b60448201526064015b60405180910390fd5b6000818152600460208190526040909120015434146102415760405162461bcd60e51b8152602060048201526015602482015274125b98dbdc9c9958dd0819985c9948185b5bdd5b9d605a1b60448201526064016101df565b600081815260046020908152604080832060060180546001810182559084528284200180546001600160a01b031916339081179091558352600290915281208054349290610290908490610b1b565b9250508190555034600360008282546102a99190610b32565b909155505050565b60046020526000908152604090208054600182015460028301805492936001600160a01b03909216926102e390610b4a565b80601f016020809104026020016040519081016040528092919081815260200182805461030f90610b4a565b801561035c5780601f106103315761010080835404028352916020019161035c565b820191906000526020600020905b81548152906001019060200180831161033f57829003601f168201915b50505050509080600301805461037190610b4a565b80601f016020809104026020016040519081016040528092919081815260200182805461039d90610b4a565b80156103ea5780601f106103bf576101008083540402835291602001916103ea565b820191906000526020600020905b8154815290600101906020018083116103cd57829003601f168201915b50505050600483015460058401546007909401549293909290915060ff1687565b6001546001600160a01b031633146104355760405162461bcd60e51b81526004016101df90610b85565b6001546003546040516001600160a01b039092169181156108fc0291906000818181858888f19350505050158015610471573d6000803e3d6000fd5b506000600355565b6001546001600160a01b031633146104a35760405162461bcd60e51b81526004016101df90610b85565b60005481106104e65760405162461bcd60e51b815260206004820152600f60248201526e125b9d985b1a59081c9a5919481251608a1b60448201526064016101df565b6000818152600460205260409020600781015460ff1661053d5760405162461bcd60e51b815260206004820152601260248201527152696465206973206e6f742061637469766560701b60448201526064016101df565b6006810154600090610550906001610b32565b826004015461055f9190610bcf565b6006830154909150600090610575906001610b32565b61057f9083610bee565b60018401546040519192506001600160a01b03169082156108fc029083906000818181858888f193505050501580156105bc573d6000803e3d6000fd5b5060005b6006840154811015610634578360060181815481106105e1576105e1610c10565b60009182526020822001546040516001600160a01b039091169184156108fc02918591818181858888f19350505050158015610621573d6000803e3d6000fd5b508061062c81610c26565b9150506105c0565b505050600701805460ff1916905550565b3360009081526002602052604081208054349290610664908490610b32565b9091555050565b600082116106bb5760405162461bcd60e51b815260206004820152601e60248201527f46617265206d7573742062652067726561746572207468616e207a65726f000060448201526064016101df565b6000805490806106ca83610c26565b91905055506107226040518061010001604052806000815260200160006001600160a01b0316815260200160608152602001606081526020016000815260200160008152602001606081526020016000151581525090565b3360208281019182526040808401888152606085018890526080850187905260a08501869052600160e08601819052600080548152600485529290922085518155935191840180546001600160a01b0319166001600160a01b039093169290921790915551805184939261079d92600285019291019061080c565b50606082015180516107b991600384019160209091019061080c565b506080820151600482015560a0820151600582015560c082015180516107e9916006840191602090910190610890565b5060e091909101516007909101805460ff19169115159190911790555050505050565b82805461081890610b4a565b90600052602060002090601f01602090048101928261083a5760008555610880565b82601f1061085357805160ff1916838001178555610880565b82800160010185558215610880579182015b82811115610880578251825591602001919060010190610865565b5061088c9291506108e5565b5090565b828054828255906000526020600020908101928215610880579160200282015b8281111561088057825182546001600160a01b0319166001600160a01b039091161782556020909201916001909101906108b0565b5b8082111561088c57600081556001016108e6565b60006020828403121561090c57600080fd5b5035919050565b6000815180845260005b818110156109395760208185018101518683018201520161091d565b8181111561094b576000602083870101525b50601f01601f19169290920160200192915050565b8781526001600160a01b038716602082015260e06040820181905260009061098a90830188610913565b828103606084015261099c8188610913565b6080840196909652505060a0810192909252151560c090910152949350505050565b6000602082840312156109d057600080fd5b81356001600160a01b03811681146109e757600080fd5b9392505050565b634e487b7160e01b600052604160045260246000fd5b600082601f830112610a1557600080fd5b813567ffffffffffffffff80821115610a3057610a306109ee565b604051601f8301601f19908116603f01168101908282118183101715610a5857610a586109ee565b81604052838152866020858801011115610a7157600080fd5b836020870160208301376000602085830101528094505050505092915050565b60008060008060808587031215610aa757600080fd5b843567ffffffffffffffff80821115610abf57600080fd5b610acb88838901610a04565b95506020870135915080821115610ae157600080fd5b50610aee87828801610a04565b949794965050505060408301359260600135919050565b634e487b7160e01b600052601160045260246000fd5b600082821015610b2d57610b2d610b05565b500390565b60008219821115610b4557610b45610b05565b500190565b600181811c90821680610b5e57607f821691505b60208210811415610b7f57634e487b7160e01b600052602260045260246000fd5b50919050565b6020808252602a908201527f4f6e6c7920636f6e7472616374206f776e65722063616e2063616c6c207468696040820152693990333ab731ba34b7b760b11b606082015260800190565b6000816000190483118215151615610be957610be9610b05565b500290565b600082610c0b57634e487b7160e01b600052601260045260246000fd5b500490565b634e487b7160e01b600052603260045260246000fd5b6000600019821415610c3a57610c3a610b05565b506001019056fea2646970667358221220ac2c2c656c315c228e7271bf6af34ff53199e380fcbd8edf10345ee7643fdf7464736f6c634300080a0033",
    "sourcePath": "/Users/dattran/Documents/eth-carpooling/contracts/RideContract.sol",
    "compiler": {
        "name": "solc",
        "version": "0.8.10+commit.fc410830"
    },
    "functionHashes": {
        "clientBalances(address)": "8c6e9d1c",
        "clientDeposit()": "f07ff641",
        "completeRide(uint256)": "c416dd0b",
        "createRide(string,string,uint256,uint256)": "f5e6a7fb",
        "joinRide(uint256)": "01f32206",
        "ownerBalance()": "bedcf003",
        "rideCount()": "b47c1883",
        "rides(uint256)": "5205f112",
        "withdrawEarnings()": "b73c6ce9"
    },
    "gasEstimates": {
        "creation": {
            "codeDepositCost": "638200",
            "executionCost": "29911",
            "totalCost": "668111"
        },
        "external": {
            "clientBalances(address)": "2529",
            "clientDeposit()": "24551",
            "completeRide(uint256)": "infinite",
            "createRide(string,string,uint256,uint256)": "infinite",
            "joinRide(uint256)": "101770",
            "ownerBalance()": "2317",
            "rideCount()": "2362",
            "rides(uint256)": "infinite",
            "withdrawEarnings()": "infinite"
        }
    }
}