{
  "contractName": "RideContract",
  "abi": [
    {
      "constant": true,
      "inputs": [
        {
          "name": "",
          "type": "uint256"
        }
      ],
      "name": "rides",
      "outputs": [
        {
          "name": "id",
          "type": "uint256"
        },
        {
          "name": "driver",
          "type": "address"
        },
        {
          "name": "startPoint",
          "type": "string"
        },
        {
          "name": "endPoint",
          "type": "string"
        },
        {
          "name": "fare",
          "type": "uint256"
        },
        {
          "name": "startTime",
          "type": "uint256"
        },
        {
          "name": "numOfPassengers",
          "type": "uint256"
        },
        {
          "name": "isActive",
          "type": "bool"
        }
      ],
      "payable": false,
      "stateMutability": "view",
      "type": "function",
      "signature": "0x5205f112"
    },
    {
      "constant": true,
      "inputs": [
        {
          "name": "",
          "type": "address"
        }
      ],
      "name": "clientBalances",
      "outputs": [
        {
          "name": "",
          "type": "uint256"
        }
      ],
      "payable": false,
      "stateMutability": "view",
      "type": "function",
      "signature": "0x8c6e9d1c"
    },
    {
      "constant": true,
      "inputs": [],
      "name": "rideCount",
      "outputs": [
        {
          "name": "",
          "type": "uint256"
        }
      ],
      "payable": false,
      "stateMutability": "view",
      "type": "function",
      "signature": "0xb47c1883"
    },
    {
      "constant": true,
      "inputs": [],
      "name": "ownerBalance",
      "outputs": [
        {
          "name": "",
          "type": "uint256"
        }
      ],
      "payable": false,
      "stateMutability": "view",
      "type": "function",
      "signature": "0xbedcf003"
    },
    {
      "inputs": [],
      "payable": false,
      "stateMutability": "nonpayable",
      "type": "constructor",
      "signature": "constructor"
    },
    {
      "constant": false,
      "inputs": [],
      "name": "clientDeposit",
      "outputs": [],
      "payable": true,
      "stateMutability": "payable",
      "type": "function",
      "signature": "0xf07ff641"
    },
    {
      "constant": false,
      "inputs": [],
      "name": "withdrawEarnings",
      "outputs": [],
      "payable": false,
      "stateMutability": "nonpayable",
      "type": "function",
      "signature": "0xb73c6ce9"
    },
    {
      "constant": false,
      "inputs": [
        {
          "name": "_startPoint",
          "type": "string"
        },
        {
          "name": "_endPoint",
          "type": "string"
        },
        {
          "name": "_fare",
          "type": "uint256"
        },
        {
          "name": "_startTime",
          "type": "uint256"
        }
      ],
      "name": "createRide",
      "outputs": [],
      "payable": false,
      "stateMutability": "nonpayable",
      "type": "function",
      "signature": "0xf5e6a7fb"
    },
    {
      "constant": false,
      "inputs": [
        {
          "name": "_rideId",
          "type": "uint256"
        }
      ],
      "name": "joinRide",
      "outputs": [],
      "payable": true,
      "stateMutability": "payable",
      "type": "function",
      "signature": "0x01f32206"
    },
    {
      "constant": false,
      "inputs": [
        {
          "name": "_rideId",
          "type": "uint256"
        }
      ],
      "name": "completeRide",
      "outputs": [],
      "payable": false,
      "stateMutability": "nonpayable",
      "type": "function",
      "signature": "0xc416dd0b"
    },
    {
      "constant": true,
      "inputs": [
        {
          "name": "rideId",
          "type": "uint256"
        }
      ],
      "name": "getPassengers",
      "outputs": [
        {
          "name": "",
          "type": "address[]"
        }
      ],
      "payable": false,
      "stateMutability": "view",
      "type": "function",
      "signature": "0x6d4d31f2"
    }
  ],
  "bytecode": "0x608060405234801561001057600080fd5b506000805560018054600160a060020a03191633179055610d36806100366000396000f3fe6080604052600436106100a35763ffffffff7c010000000000000000000000000000000000000000000000000000000060003504166301f3220681146100a85780635205f112146100c75780636d4d31f21461020f5780638c6e9d1c14610289578063b47c1883146102ce578063b73c6ce9146102e3578063bedcf003146102f8578063c416dd0b1461030d578063f07ff64114610337578063f5e6a7fb1461033f575b600080fd5b6100c5600480360360208110156100be57600080fd5b5035610414565b005b3480156100d357600080fd5b506100f1600480360360208110156100ea57600080fd5b5035610590565b6040518089815260200188600160a060020a0316600160a060020a03168152602001806020018060200187815260200186815260200185815260200184151515158152602001838103835289818151815260200191508051906020019080838360005b8381101561016c578181015183820152602001610154565b50505050905090810190601f1680156101995780820380516001836020036101000a031916815260200191505b5083810382528851815288516020918201918a019080838360005b838110156101cc5781810151838201526020016101b4565b50505050905090810190601f1680156101f95780820380516001836020036101000a031916815260200191505b509a505050505050505050505060405180910390f35b34801561021b57600080fd5b506102396004803603602081101561023257600080fd5b50356106f2565b60408051602080825283518183015283519192839290830191858101910280838360005b8381101561027557818101518382015260200161025d565b505050509050019250505060405180910390f35b34801561029557600080fd5b506102bc600480360360208110156102ac57600080fd5b5035600160a060020a03166107bc565b60408051918252519081900360200190f35b3480156102da57600080fd5b506102bc6107ce565b3480156102ef57600080fd5b506100c56107d4565b34801561030457600080fd5b506102bc6108a0565b34801561031957600080fd5b506100c56004803603602081101561033057600080fd5b50356108a6565b6100c561097a565b34801561034b57600080fd5b506100c56004803603608081101561036257600080fd5b81019060208101813564010000000081111561037d57600080fd5b82018360208201111561038f57600080fd5b803590602001918460018302840111640100000000831117156103b157600080fd5b9193909290916020810190356401000000008111156103cf57600080fd5b8201836020820111156103e157600080fd5b8035906020019184600183028401116401000000008311171561040357600080fd5b919350915080359060200135610991565b60005481111561046e576040805160e560020a62461bcd02815260206004820152600f60248201527f496e76616c696420726964652049440000000000000000000000000000000000604482015290519081900360640190fd5b60008181526004602081905260409091200154670de0b6b3a76400000234146104e1576040805160e560020a62461bcd02815260206004820152601560248201527f496e636f7272656374206661726520616d6f756e740000000000000000000000604482015290519081900360640190fd5b60008181526004602081815260408084206007810180546001818101835591875284872001805473ffffffffffffffffffffffffffffffffffffffff191633908117909155600683018054830190558652600284528286208054349081900390915560038054820190558787529490935291909101549051600160a060020a03919091169282156108fc02929190818181858888f1935050505015801561058c573d6000803e3d6000fd5b5050565b60046020908152600091825260409182902080546001808301546002808501805488516101009582161595909502600019011691909104601f81018790048702840187019097528683529295600160a060020a039091169491929183018282801561063c5780601f106106115761010080835404028352916020019161063c565b820191906000526020600020905b81548152906001019060200180831161061f57829003601f168201915b5050505060038301805460408051602060026001851615610100026000190190941693909304601f81018490048402820184019092528181529495949350908301828280156106cc5780601f106106a1576101008083540402835291602001916106cc565b820191906000526020600020905b8154815290600101906020018083116106af57829003601f168201915b505050506004830154600584015460068501546008909501549394919390925060ff1688565b60005460609082111561074f576040805160e560020a62461bcd02815260206004820152600f60248201527f496e76616c696420726964652049440000000000000000000000000000000000604482015290519081900360640190fd5b600082815260046020908152604091829020600701805483518184028101840190945280845290918301828280156107b057602002820191906000526020600020905b8154600160a060020a03168152600190910190602001808311610792575b50505050509050919050565b60026020526000908152604090205481565b60005481565b600154600160a060020a0316331461085c576040805160e560020a62461bcd02815260206004820152602a60248201527f4f6e6c7920636f6e7472616374206f776e65722063616e2063616c6c2074686960448201527f732066756e6374696f6e00000000000000000000000000000000000000000000606482015290519081900360840190fd5b600154600354604051600160a060020a039092169181156108fc0291906000818181858888f19350505050158015610898573d6000803e3d6000fd5b506000600355565b60035481565b600054811115610900576040805160e560020a62461bcd02815260206004820152600f60248201527f496e76616c696420726964652049440000000000000000000000000000000000604482015290519081900360640190fd5b6000818152600460205260409020600881015460ff16151561096c576040805160e560020a62461bcd02815260206004820152601260248201527f52696465206973206e6f74206163746976650000000000000000000000000000604482015290519081900360640190fd5b600801805460ff1916905550565b336000908152600260205260409020805434019055565b600082116109e9576040805160e560020a62461bcd02815260206004820152601e60248201527f46617265206d7573742062652067726561746572207468616e207a65726f0000604482015290519081900360640190fd5b6000805460010190556109fa610b78565b60005481523360208083019190915260408051601f890183900483028101830190915287815290889088908190840183828082843760009201919091525050505060408083019190915280516020601f8701819004810282018101909252858152908690869081908401838280828437600092018290525060608601949094525050506080820184905260a082018390526001610100830181905260c0830182905281548252600460209081526040928390208451815581850151928101805473ffffffffffffffffffffffffffffffffffffffff1916600160a060020a03909416939093179092559183015180518493610afc926002850192910190610bd0565b5060608201518051610b18916003840191602090910190610bd0565b506080820151600482015560a0820151600582015560c0820151600682015560e08201518051610b52916007840191602090910190610c4e565b5061010091909101516008909101805460ff191691151591909117905550505050505050565b61012060405190810160405280600081526020016000600160a060020a031681526020016060815260200160608152602001600081526020016000815260200160008152602001606081526020016000151581525090565b828054600181600116156101000203166002900490600052602060002090601f016020900481019282601f10610c1157805160ff1916838001178555610c3e565b82800160010185558215610c3e579182015b82811115610c3e578251825591602001919060010190610c23565b50610c4a929150610cbc565b5090565b828054828255906000526020600020908101928215610cb0579160200282015b82811115610cb0578251825473ffffffffffffffffffffffffffffffffffffffff1916600160a060020a03909116178255602090920191600190910190610c6e565b50610c4a929150610cd9565b610cd691905b80821115610c4a5760008155600101610cc2565b90565b610cd691905b80821115610c4a57805473ffffffffffffffffffffffffffffffffffffffff19168155600101610cdf56fea165627a7a723058203431befba2b66001076e08e1ec037899323832d0c755dd4d21d540e2e47137710029",
  "source": "// SPDX-License-Identifier: MIT\n//pragma solidity >=0.4.22 <0.9.0;\npragma solidity ^0.5.0;\ncontract RideContract {\n    uint public rideCount;\n    address payable owner ;\n    mapping(address => uint256) public clientBalances;\n    uint256 public ownerBalance;\n\n    struct Ride {\n        uint id; \n        address payable driver; \n        string startPoint; //departure\n        string endPoint;    //destination\n        uint256 fare;\n        uint256 startTime;\n        uint numOfPassengers; \n        address payable[] passengers;\n        bool isActive;\n    }\n  \n\n\n    mapping(uint => Ride) public rides;\n    \n    modifier onlyOwner() {\n        require(msg.sender == owner, \"Only contract owner can call this function\");\n        _;\n    }\n\n    function clientDeposit() external payable {\n        clientBalances[msg.sender] += msg.value;\n    }\n\n    function withdrawEarnings() external onlyOwner {\n        \n       owner.transfer(ownerBalance);\n        ownerBalance = 0;\n    }\n\n    constructor() public {\n        // createRide(\"Start Point\", \"End Point\", 100); // Tạo một chuyến xe mẫu khi khởi tạo\n        rideCount = 0;\n        owner = msg.sender;\n       \n    }\n\n    function createRide(string calldata _startPoint, string calldata _endPoint, uint256 _fare, uint256 _startTime) external {\n        require(_fare > 0, \"Fare must be greater than zero\");\n        rideCount++; // Tăng số lượng chuyến xe\n\n        // Tạo một chuyến xe mới\n        Ride memory newRide;\n        newRide.id = rideCount;\n        newRide.driver = msg.sender;\n        newRide.startPoint = _startPoint;\n        newRide.endPoint = _endPoint;\n        newRide.fare = _fare;\n        newRide.startTime = _startTime;\n        newRide.isActive = true;\n        newRide.passengers ;\n        newRide.numOfPassengers = 0;\n        // Lưu trữ chuyến xe vào mapping\n        rides[rideCount] = newRide;\n    }\n    \n\n    function joinRide(uint256 _rideId) external payable {\n        require(_rideId <= rideCount, \"Invalid ride ID\");\n        require(msg.value == rides[_rideId].fare*1e18, \"Incorrect fare amount\");\n\n        rides[_rideId].passengers.push(msg.sender);\n        rides[_rideId].numOfPassengers ++ ;\n        clientBalances[msg.sender] -=   msg.value;\n        ownerBalance += msg.value;\n        (rides[_rideId].driver).transfer(msg.value);\n       \n    }\n\n    function completeRide(uint256 _rideId) external  {\n        require(_rideId <= rideCount, \"Invalid ride ID\");\n\n        Ride storage ride = rides[_rideId];\n        require(ride.isActive, \"Ride is not active\");\n\n        // Distribute fare to driver and passengers\n        // uint256 totalFare = ride.fare * (ride.passengers.length + 1);\n        // uint256 farePerPassenger = totalFare / (ride.passengers.length + 1);\n        \n        //(ride.driver).transfer(farePerPassenger);\n        // for (uint256 i = 0; i < ride.passengers.length; i++) {\n        //     (ride.passengers[i]).transfer(farePerPassenger);\n        // }\n\n        // Deactivate ride\n        ride.isActive = false;\n\n    }\n    function getPassengers(uint rideId) external view returns (address payable[] memory) {\n        require(rideId <= rideCount, \"Invalid ride ID\");\n        return rides[rideId].passengers;\n    }\n}\n",
  "sourcePath": "/Users/dattran/Documents/eth-carpooling/contracts/RideContract.sol",
  "compiler": {
    "name": "solc",
    "version": "0.5.0+commit.1d4f565a.Emscripten.clang"
  },
  "schemaVersion": "3.0.1",
  "updatedAt": "2024-03-24T10:41:56.512Z",
  "devdoc": {
    "methods": {}
  },
  "userdoc": {
    "methods": {}
  }
}