{
  "contractName": "RideContract",
  "abi": [
    {
      "constant": true,
      "inputs": [
        {
          "name": "",
          "type": "uint256"
        }
      ],
      "name": "rides",
      "outputs": [
        {
          "name": "id",
          "type": "uint256"
        },
        {
          "name": "driver",
          "type": "address"
        },
        {
          "name": "startPoint",
          "type": "string"
        },
        {
          "name": "endPoint",
          "type": "string"
        },
        {
          "name": "fare",
          "type": "uint256"
        },
        {
          "name": "startTime",
          "type": "uint256"
        },
        {
          "name": "numOfSeats",
          "type": "uint256"
        },
        {
          "name": "numOfPassengers",
          "type": "uint256"
        },
        {
          "name": "isActive",
          "type": "bool"
        }
      ],
      "payable": false,
      "stateMutability": "view",
      "type": "function"
    },
    {
      "constant": true,
      "inputs": [
        {
          "name": "",
          "type": "address"
        },
        {
          "name": "",
          "type": "uint256"
        }
      ],
      "name": "pendingPassengers",
      "outputs": [
        {
          "name": "id",
          "type": "uint256"
        },
        {
          "name": "phoneNumber",
          "type": "string"
        },
        {
          "name": "numOfPeople",
          "type": "uint256"
        },
        {
          "name": "verificationCode",
          "type": "uint256"
        },
        {
          "name": "accepted",
          "type": "bool"
        }
      ],
      "payable": false,
      "stateMutability": "view",
      "type": "function"
    },
    {
      "constant": true,
      "inputs": [],
      "name": "rideCount",
      "outputs": [
        {
          "name": "",
          "type": "uint256"
        }
      ],
      "payable": false,
      "stateMutability": "view",
      "type": "function"
    },
    {
      "constant": true,
      "inputs": [
        {
          "name": "",
          "type": "uint256"
        },
        {
          "name": "",
          "type": "uint256"
        }
      ],
      "name": "passengers",
      "outputs": [
        {
          "name": "id",
          "type": "uint256"
        },
        {
          "name": "phoneNumber",
          "type": "string"
        },
        {
          "name": "numOfPeople",
          "type": "uint256"
        },
        {
          "name": "verificationCode",
          "type": "uint256"
        },
        {
          "name": "accepted",
          "type": "bool"
        }
      ],
      "payable": false,
      "stateMutability": "view",
      "type": "function"
    },
    {
      "inputs": [],
      "payable": false,
      "stateMutability": "nonpayable",
      "type": "constructor"
    },
    {
      "constant": true,
      "inputs": [
        {
          "name": "_driver",
          "type": "address"
        }
      ],
      "name": "getCreatedRides",
      "outputs": [
        {
          "name": "",
          "type": "uint256[]"
        }
      ],
      "payable": false,
      "stateMutability": "view",
      "type": "function"
    },
    {
      "constant": true,
      "inputs": [
        {
          "name": "_passenger",
          "type": "address"
        }
      ],
      "name": "getJoinedRides",
      "outputs": [
        {
          "name": "",
          "type": "uint256[]"
        }
      ],
      "payable": false,
      "stateMutability": "view",
      "type": "function"
    },
    {
      "constant": false,
      "inputs": [
        {
          "name": "_startPoint",
          "type": "string"
        },
        {
          "name": "_endPoint",
          "type": "string"
        },
        {
          "name": "_fare",
          "type": "uint256"
        },
        {
          "name": "_startTime",
          "type": "uint256"
        },
        {
          "name": "_numOfSeats",
          "type": "uint256"
        }
      ],
      "name": "createRide",
      "outputs": [],
      "payable": false,
      "stateMutability": "nonpayable",
      "type": "function"
    },
    {
      "constant": false,
      "inputs": [
        {
          "name": "_rideId",
          "type": "uint256"
        },
        {
          "name": "_phoneNumber",
          "type": "string"
        },
        {
          "name": "_numOfPeople",
          "type": "uint256"
        }
      ],
      "name": "addPassenger",
      "outputs": [],
      "payable": false,
      "stateMutability": "nonpayable",
      "type": "function"
    },
    {
      "constant": false,
      "inputs": [
        {
          "name": "_rideId",
          "type": "uint256"
        },
        {
          "name": "_phoneNumber",
          "type": "string"
        },
        {
          "name": "_numberOfPeople",
          "type": "uint256"
        }
      ],
      "name": "joinPendingRide",
      "outputs": [],
      "payable": true,
      "stateMutability": "payable",
      "type": "function"
    },
    {
      "constant": false,
      "inputs": [
        {
          "name": "_rideId",
          "type": "uint256"
        },
        {
          "name": "_passenger",
          "type": "address"
        }
      ],
      "name": "acceptPassenger",
      "outputs": [],
      "payable": false,
      "stateMutability": "nonpayable",
      "type": "function"
    },
    {
      "constant": false,
      "inputs": [
        {
          "name": "_rideId",
          "type": "uint256"
        },
        {
          "name": "_passenger",
          "type": "address"
        }
      ],
      "name": "rejectPendingPassenger",
      "outputs": [],
      "payable": false,
      "stateMutability": "nonpayable",
      "type": "function"
    },
    {
      "constant": false,
      "inputs": [
        {
          "name": "_rideId",
          "type": "uint256"
        },
        {
          "name": "_verificationCode",
          "type": "uint256"
        }
      ],
      "name": "enterVerificationCode",
      "outputs": [],
      "payable": false,
      "stateMutability": "nonpayable",
      "type": "function"
    },
    {
      "constant": false,
      "inputs": [
        {
          "name": "_rideId",
          "type": "uint256"
        }
      ],
      "name": "joinRide",
      "outputs": [],
      "payable": true,
      "stateMutability": "payable",
      "type": "function"
    },
    {
      "constant": false,
      "inputs": [
        {
          "name": "_rideId",
          "type": "uint256"
        }
      ],
      "name": "completeRide",
      "outputs": [],
      "payable": false,
      "stateMutability": "nonpayable",
      "type": "function"
    },
    {
      "constant": true,
      "inputs": [
        {
          "name": "rideId",
          "type": "uint256"
        }
      ],
      "name": "getPassengers",
      "outputs": [
        {
          "name": "",
          "type": "address[]"
        }
      ],
      "payable": false,
      "stateMutability": "view",
      "type": "function"
    }
  ],
  "bytecode": "0x608060405234801561001057600080fd5b5060008055611c40806100246000396000f3fe6080604052600436106100da5763ffffffff7c010000000000000000000000000000000000000000000000000000000060003504166301f3220681146100df5780632c0dd4e5146100fe5780633c91c6c9146101d9578063451d2f62146102095780635205f112146102c55780636d4d31f214610414578063892cca8c1461048e57806395fee328146104c1578063aa4f1a05146104f4578063b26e859b1461052d578063b47c1883146105fe578063bbacd51414610625578063c416dd0b14610655578063e1bb7ba91461067f578063fa9df9da146106b8575b600080fd5b6100fc600480360360208110156100f557600080fd5b5035610767565b005b34801561010a57600080fd5b506100fc600480360360a081101561012157600080fd5b81019060208101813564010000000081111561013c57600080fd5b82018360208201111561014e57600080fd5b8035906020019184600183028401116401000000008311171561017057600080fd5b91939092909160208101903564010000000081111561018e57600080fd5b8201836020820111156101a057600080fd5b803590602001918460018302840111640100000000831117156101c257600080fd5b919350915080359060208101359060400135610990565b3480156101e557600080fd5b506100fc600480360360408110156101fc57600080fd5b5080359060200135610bab565b34801561021557600080fd5b506100fc6004803603606081101561022c57600080fd5b8135919081019060408101602082013564010000000081111561024e57600080fd5b82018360208201111561026057600080fd5b8035906020019184600183028401116401000000008311171561028257600080fd5b91908080601f0160208091040260200160405190810160405280939291908181526020018383808284376000920191909152509295505091359250610d73915050565b3480156102d157600080fd5b506102ef600480360360208110156102e857600080fd5b5035610e30565b604051808a815260200189600160a060020a0316600160a060020a0316815260200180602001806020018881526020018781526020018681526020018581526020018415151515815260200183810383528a818151815260200191508051906020019080838360005b83811015610370578181015183820152602001610358565b50505050905090810190601f16801561039d5780820380516001836020036101000a031916815260200191505b5083810382528951815289516020918201918b019080838360005b838110156103d05781810151838201526020016103b8565b50505050905090810190601f1680156103fd5780820380516001836020036101000a031916815260200191505b509b50505050505050505050505060405180910390f35b34801561042057600080fd5b5061043e6004803603602081101561043757600080fd5b5035610f98565b60408051602080825283518183015283519192839290830191858101910280838360005b8381101561047a578181015183820152602001610462565b505050509050019250505060405180910390f35b34801561049a57600080fd5b5061043e600480360360208110156104b157600080fd5b5035600160a060020a0316611050565b3480156104cd57600080fd5b5061043e600480360360208110156104e457600080fd5b5035600160a060020a03166110bb565b34801561050057600080fd5b506100fc6004803603604081101561051757600080fd5b5080359060200135600160a060020a0316611125565b34801561053957600080fd5b506105666004803603604081101561055057600080fd5b50600160a060020a0381351690602001356111c4565b604051808681526020018060200185815260200184815260200183151515158152602001828103825286818151815260200191508051906020019080838360005b838110156105bf5781810151838201526020016105a7565b50505050905090810190601f1680156105ec5780820380516001836020036101000a031916815260200191505b50965050505050505060405180910390f35b34801561060a57600080fd5b50610613611289565b60408051918252519081900360200190f35b34801561063157600080fd5b506105666004803603604081101561064857600080fd5b508035906020013561128f565b34801561066157600080fd5b506100fc6004803603602081101561067857600080fd5b5035611308565b34801561068b57600080fd5b506100fc600480360360408110156106a257600080fd5b5080359060200135600160a060020a031661152d565b6100fc600480360360608110156106ce57600080fd5b813591908101906040810160208201356401000000008111156106f057600080fd5b82018360208201111561070257600080fd5b8035906020019184600183028401116401000000008311171561072457600080fd5b91908080601f01602080910402602001604051908101604052809392919081815260200183838082843760009201919091525092955050913592506116e2915050565b6000548111156107af576040805160e560020a62461bcd02815260206004820152600f6024820152600080516020611bf5833981519152604482015290519081900360640190fd5b600081815260036020526040902060010154600160a060020a031633141561086d576040805160e560020a62461bcd02815260206004820152604160248201527f4a6f696e20526964653a2054686973206973206472697665722061646472657360448201527f732c207468652072696465206e65656420612070617373656e676572206a6f6960648201527f6e00000000000000000000000000000000000000000000000000000000000000608482015290519081900360a40190fd5b60008181526003602052604090206006810154600790910154106108b5576040805160e560020a62461bcd028152602060048201526000602482015290519081900360640190fd5b600081815260036020526040902060040154670de0b6b3a7640000023414610927576040805160e560020a62461bcd02815260206004820152601560248201527f496e636f7272656374206661726520616d6f756e740000000000000000000000604482015290519081900360640190fd5b60008181526003602090815260408083206008810180546001818101835591865284862001805473ffffffffffffffffffffffffffffffffffffffff19163390811790915560079092018054820190559084526002835290832080549182018155835291200155565b600083116109e8576040805160e560020a62461bcd02815260206004820152601e60248201527f46617265206d7573742062652067726561746572207468616e207a65726f0000604482015290519081900360640190fd5b6000805460010190556109f9611a17565b60005481523360208083019190915260408051601f8a0183900483028101830190915288815290899089908190840183828082843760009201919091525050505060408083019190915280516020601f8801819004810282018101909252868152908790879081908401838280828437600092018290525060608601949094525050506080820185905260a082018490526001610120830181905260c0830184905260e0830182905281548252600360209081526040928390208451815581850151928101805473ffffffffffffffffffffffffffffffffffffffff1916600160a060020a03909416939093179092559183015180518493610b02926002850192910190611a76565b5060608201518051610b1e916003840191602090910190611a76565b506080820151600482015560a0820151600582015560c0820151600682015560e082015160078201556101008201518051610b63916008840191602090910190611af4565b5061012091909101516009909101805460ff19169115159190911790555050336000908152600160208181526040832083548154938401825590845292200155505050505050565b3360009081526005602090815260408083208584529091529020600481015460ff161515610c23576040805160e560020a62461bcd02815260206004820152601a60248201527f50617373656e676572206e6f7420616363657074656420796574000000000000604482015290519081900360640190fd5b60038101548214610c7e576040805160e560020a62461bcd02815260206004820152601b60248201527f496e636f727265637420766572696669636174696f6e20636f64650000000000604482015290519081900360640190fd5b610d2983826001018054600181600116156101000203166002900480601f016020809104026020016040519081016040528092919081815260200182805460018160011615610100020316600290048015610d1a5780601f10610cef57610100808354040283529160200191610d1a565b820191906000526020600020905b815481529060010190602001808311610cfd57829003601f168201915b50505050508360020154610d73565b336000908152600560209081526040808320868452909152812081815590610d546001830182611b62565b506000600282018190556003820155600401805460ff19169055505050565b600083815260036020908152604080832060070154815160a081018352600191820180825281850188815282850188905260608301879052608083018490528987526004865284872082885286529390952081518155925180519194610dde93850192910190611a76565b50604082810151600283015560608301516003808401919091556080909301516004909201805460ff191692151592909217909155600095865260209190915290932060070180549190910190555050565b60036020908152600091825260409182902080546001808301546002808501805488516101009582161595909502600019011691909104601f81018790048702840187019097528683529295600160a060020a0390911694919291830182828015610edc5780601f10610eb157610100808354040283529160200191610edc565b820191906000526020600020905b815481529060010190602001808311610ebf57829003601f168201915b5050505060038301805460408051602060026001851615610100026000190190941693909304601f8101849004840282018401909252818152949594935090830182828015610f6c5780601f10610f4157610100808354040283529160200191610f6c565b820191906000526020600020905b815481529060010190602001808311610f4f57829003601f168201915b505050600484015460058501546006860154600787015460099097015495969295919450925060ff1689565b600054606090821115610fe3576040805160e560020a62461bcd02815260206004820152600f6024820152600080516020611bf5833981519152604482015290519081900360640190fd5b6000828152600360209081526040918290206008018054835181840281018401909452808452909183018282801561104457602002820191906000526020600020905b8154600160a060020a03168152600190910190602001808311611026575b50505050509050919050565b600160a060020a03811660009081526002602090815260409182902080548351818402810184019094528084526060939283018282801561104457602002820191906000526020600020905b81548152602001906001019080831161109c5750505050509050919050565b600160a060020a038116600090815260016020908152604091829020805483518184028101840190945280845260609392830182828015611044576020028201919060005260206000209081548152602001906001019080831161109c5750505050509050919050565b600160a060020a03811660009081526005602090815260408083208584529091529020600481015460ff16156111a5576040805160e560020a62461bcd02815260206004820152601a60248201527f50617373656e67657220616c7265616479206163636570746564000000000000604482015290519081900360640190fd5b6111ad611931565b6003820155600401805460ff191660011790555050565b60056020908152600092835260408084208252918352918190208054600180830180548551600293821615610100026000190190911692909204601f81018790048702830187019095528482529194929390928301828280156112685780601f1061123d57610100808354040283529160200191611268565b820191906000526020600020905b81548152906001019060200180831161124b57829003601f168201915b50505050600283015460038401546004909401549293909290915060ff1685565b60005481565b60046020908152600092835260408084208252918352918190208054600180830180548551600293821615610100026000190190911692909204601f81018790048702830187019095528482529194929390928301828280156112685780601f1061123d57610100808354040283529160200191611268565b600054811115611350576040805160e560020a62461bcd02815260206004820152600f6024820152600080516020611bf5833981519152604482015290519081900360640190fd5b600081815260036020526040902060010154600160a060020a031633146113e7576040805160e560020a62461bcd02815260206004820152602260248201527f4f6e6c79206472697665722063616e2063616c6c20746869732066756e63746960448201527f6f6e000000000000000000000000000000000000000000000000000000000000606482015290519081900360840190fd5b6000818152600360205260409020600981015460ff161515611453576040805160e560020a62461bcd02815260206004820152601260248201527f52696465206973206e6f74206163746976650000000000000000000000000000604482015290519081900360640190fd5b604051339060009082903031908381818185875af1925050503d8060008114611498576040519150601f19603f3d011682016040523d82523d6000602084013e61149d565b606091505b5050905080151561151d576040805160e560020a62461bcd028152602060048201526024808201527f576974686472617720636f696e20696e2074686520636f6e747261637420666160448201527f696c656400000000000000000000000000000000000000000000000000000000606482015290519081900360840190fd5b5050600901805460ff1916905550565b600082815260036020526040902060010154600160a060020a031633146115c4576040805160e560020a62461bcd02815260206004820152602860248201527f4f6e6c79206472697665722063616e2072656a6563742070656e64696e67207060448201527f617373656e676572000000000000000000000000000000000000000000000000606482015290519081900360840190fd5b600160a060020a03811660009081526005602090815260408083208584529091529020548214611664576040805160e560020a62461bcd02815260206004820152602360248201527f50617373656e676572206e6f7420666f756e6420696e2070656e64696e67206c60448201527f6973740000000000000000000000000000000000000000000000000000000000606482015290519081900360840190fd5b600082815260036020908152604080832060040154600160a060020a0385168452600583528184208685529092529091206002015402670de0b6b3a7640000026116ae8282611967565b600160a060020a0382166000908152600560209081526040808320868452909152812081815590610d546001830182611b62565b60005483111561172a576040805160e560020a62461bcd02815260206004820152600f6024820152600080516020611bf5833981519152604482015290519081900360640190fd5b600083815260036020526040902060010154600160a060020a03163314156117e8576040805160e560020a62461bcd02815260206004820152604160248201527f4a6f696e20526964653a2054686973206973206472697665722061646472657360448201527f732c207468652072696465206e65656420612070617373656e676572206a6f6960648201527f6e00000000000000000000000000000000000000000000000000000000000000608482015290519081900360a40190fd5b6000838152600360205260409020600681015460079091015410611830576040805160e560020a62461bcd028152602060048201526000602482015290519081900360640190fd5b6000838152600360205260409020600401548102670de0b6b3a76400000234146118a4576040805160e560020a62461bcd02815260206004820152601560248201527f496e636f7272656374206661726520616d6f756e740000000000000000000000604482015290519081900360640190fd5b6040805160a0810182528481526020808201858152828401859052600060608401819052608084018190523381526005835284812088825283529390932082518155925180519293926118fd9260018501920190611a76565b5060408201516002820155606082015160038201556080909101516004909101805460ff1916911515919091179055505050565b604080514260208083019190915244828401528251808303840181526060909201909252805191012061232890066103e8015b90565b604051600090600160a060020a0384169083908381818185875af1925050503d80600081146119b2576040519150601f19603f3d011682016040523d82523d6000602084013e6119b7565b606091505b50509050801515611a12576040805160e560020a62461bcd02815260206004820152601060248201527f5472616e73666572206661696c65642e00000000000000000000000000000000604482015290519081900360640190fd5b505050565b61014060405190810160405280600081526020016000600160a060020a03168152602001606081526020016060815260200160008152602001600081526020016000815260200160008152602001606081526020016000151581525090565b828054600181600116156101000203166002900490600052602060002090601f016020900481019282601f10611ab757805160ff1916838001178555611ae4565b82800160010185558215611ae4579182015b82811115611ae4578251825591602001919060010190611ac9565b50611af0929150611ba9565b5090565b828054828255906000526020600020908101928215611b56579160200282015b82811115611b56578251825473ffffffffffffffffffffffffffffffffffffffff1916600160a060020a03909116178255602090920191600190910190611b14565b50611af0929150611bc3565b50805460018160011615610100020316600290046000825580601f10611b885750611ba6565b601f016020900490600052602060002090810190611ba69190611ba9565b50565b61196491905b80821115611af05760008155600101611baf565b61196491905b80821115611af057805473ffffffffffffffffffffffffffffffffffffffff19168155600101611bc956fe496e76616c696420726964652049440000000000000000000000000000000000a165627a7a72305820c43bca18d55c2ed0c79c9ca209112b01f8cec4896d5d86886964299a466e39360029",
  "source": "// SPDX-License-Identifier: MIT\n//pragma solidity >=0.4.22 <0.9.0;\npragma solidity ^0.5.0;\ncontract RideContract {\n    uint public rideCount;\n    \n\n    struct Ride {\n        uint id; \n        address payable driver; \n        string startPoint; //departure\n        string endPoint;    //destination\n        uint256 fare;   \n        uint256 startTime;\n        uint numOfSeats; \n        uint numOfPassengers; \n        address payable[] passengers;\n        bool isActive;\n    }\n  \n    //cấu trúc thông tin khách hàng\n    struct Passenger {\n        uint id;\n        string phoneNumber;\n        uint numOfPeople ; // một người có thể đặt cho nhiều người\n        uint256 verificationCode;\n        bool accepted; \n\n    }\n\n    mapping(address => uint[]) private createdRides; // Lưu trữ danh sách các chuyến đi đã được tạo bởi mỗi tài xế\n    mapping(address => uint[]) private joinedRides; // Lưu trữ danh sách các chuyến đi đã tham gia của mỗi hành khách\n    mapping(uint => Ride) public rides;\n    mapping(uint => mapping(uint => Passenger)) public passengers;\n    mapping(address => mapping(uint => Passenger)) public pendingPassengers;\n\n   \n    constructor() public {\n        // createRide(\"Start Point\", \"End Point\", 100); // Tạo một chuyến xe mẫu khi khởi tạo\n        rideCount = 0;\n       \n       \n    }\n    // Hàm trả về danh sách các chuyến đi đã được tạo bởi một tài xế cụ thể\n    function getCreatedRides(address _driver) external view returns (uint[] memory) {\n        return createdRides[_driver];\n    }\n\n    // Hàm trả về danh sách các chuyến đi mà một hành khách cụ thể đã tham gia\n    function getJoinedRides(address _passenger) external view returns (uint[] memory) {\n        return joinedRides[_passenger];\n    }\n\n    // hàm hoàn tiền về cho hành khách khi bị huỷ \n    function withdrawFunds(address payable _receiver, uint256 _amount) internal {\n    (bool success, ) = _receiver.call.value(_amount)(\"\");\n    require(success, \"Transfer failed.\");\n    }\n\n\n    function createRide(string calldata _startPoint, string calldata _endPoint, uint256 _fare, uint256 _startTime, uint _numOfSeats) external {\n        require(_fare > 0, \"Fare must be greater than zero\");\n        rideCount++; // Tăng số lượng chuyến xe\n\n        // Tạo một chuyến xe mới\n        Ride memory newRide;\n        newRide.id = rideCount;\n        newRide.driver = msg.sender;\n        newRide.startPoint = _startPoint;\n        newRide.endPoint = _endPoint;\n        newRide.fare = _fare;\n        newRide.startTime = _startTime;\n        newRide.isActive = true;\n        newRide.numOfSeats = _numOfSeats; \n        newRide.passengers ;\n        newRide.numOfPassengers = 0;\n        // Lưu trữ chuyến xe vào mapping\n        rides[rideCount] = newRide;\n        // Thêm chuyến xe vào danh sách chuyến đi đã tạo của tài xế\n        createdRides[msg.sender].push(rideCount);\n    }\n    //Thêm thông tin hành khách vào chuyến xe\n    function addPassenger(uint _rideId, string memory _phoneNumber, uint _numOfPeople) public {\n        uint256 passengerID = rides[_rideId].numOfPassengers + 1 ;\n        passengers[_rideId][passengerID] = Passenger ({\n            id :passengerID ,\n            phoneNumber:  _phoneNumber,\n            numOfPeople: _numOfPeople,\n            verificationCode:0,\n            accepted: true\n        });\n        // Cập nhật số lượng hành khách tham gia chuyến xe\n        rides[_rideId].numOfPassengers += _numOfPeople;\n    }\n\n    // Hàm sinh mã xác nhận ngẫu nhiên\n    function generateVerificationCode() private view returns (uint256) {\n        return uint256(keccak256(abi.encodePacked(block.timestamp, block.difficulty))) % 9000 + 1000;\n    }\n    // 1. Khi hành khách join chuyến (nhập thông tin và thanh toán )\n    function joinPendingRide(uint _rideId, string memory _phoneNumber, uint256 _numberOfPeople) public payable{\n        require(_rideId <= rideCount, \"Invalid ride ID\");\n        require(msg.sender != rides[_rideId].driver, \"Join Ride: This is driver address, the ride need a passenger join\");\n        //kiểm tra nếu còn đủ chỗ để thêm hành khách vapf \n        require(rides[_rideId].numOfPassengers < rides[_rideId].numOfSeats, \"\");\n        require(msg.value == _numberOfPeople*rides[_rideId].fare*1e18, \"Incorrect fare amount\");\n        pendingPassengers[msg.sender][_rideId] = Passenger(_rideId, _phoneNumber, _numberOfPeople, 0, false);\n    }\n    //2. Hàm tài xế chấp nhận hành khách và tạo mã xác nhận\n    function acceptPassenger(uint _rideId, address _passenger) public {\n        Passenger storage passenger = pendingPassengers[_passenger][_rideId];\n        require(!passenger.accepted, \"Passenger already accepted\");\n        passenger.verificationCode = generateVerificationCode();\n        passenger.accepted = true;\n    }\n    //3. Driver từ chối hành khách\n    function rejectPendingPassenger(uint _rideId, address payable _passenger) public {\n        // Kiểm tra xem người gọi hàm có phải là tài xế của chuyến đi không\n        require(msg.sender == rides[_rideId].driver, \"Only driver can reject pending passenger\");\n\n        // Kiểm tra xem hành khách có tồn tại trong danh sách hàng đợi không\n        require(pendingPassengers[_passenger][_rideId].id == _rideId, \"Passenger not found in pending list\");\n\n        // Hoàn trả tiền đã gửi của hành khách\n        uint256 fareAmount = pendingPassengers[_passenger][_rideId].numOfPeople * rides[_rideId].fare * 1e18;\n       withdrawFunds(_passenger, fareAmount);\n\n        // Xóa hành khách khỏi danh sách hàng đợi\n        delete pendingPassengers[_passenger][_rideId];\n    }\n\n    //4. Hàm hành khách nhập mã xác nhận và tham gia chuyến đi\n    function enterVerificationCode(uint _rideId, uint256 _verificationCode) public {\n        Passenger storage passenger = pendingPassengers[msg.sender][_rideId];\n        require(passenger.accepted, \"Passenger not accepted yet\");\n        require(passenger.verificationCode == _verificationCode, \"Incorrect verification code\");\n        // Thêm hành khách vào danh sách của chuyến đi\n        addPassenger(_rideId, passenger.phoneNumber, passenger.numOfPeople);\n        // Xóa thông tin hành khách khỏi danh sách pending\n        delete pendingPassengers[msg.sender][_rideId];\n    }\n\n    \n\n    //khi người dùng nhấn join vào chuyến có thể đi\n    function joinRide(uint256 _rideId) external payable {\n        require(_rideId <= rideCount, \"Invalid ride ID\");\n        require(msg.sender != rides[_rideId].driver, \"Join Ride: This is driver address, the ride need a passenger join\");\n        //kiểm tra nếu còn đủ chỗ để thêm hành khách vapf \n        require(rides[_rideId].numOfPassengers < rides[_rideId].numOfSeats, \"\");\n        require(msg.value == rides[_rideId].fare*1e18, \"Incorrect fare amount\");\n        \n        // thêm tài khoản của hành khách vào danh sách hành khách của chuyến\n        rides[_rideId].passengers.push(msg.sender);\n        rides[_rideId].numOfPassengers ++ ; \n\n       \n        // Thêm chuyến xe vào danh sách chuyến đi đã tham gia của hành khách\n        joinedRides[msg.sender].push(_rideId);\n\n    }\n\n\n    //khi chuyến đi kết thúc, tài xế thực hiện lấy tiền của hành khách\n    function completeRide(uint256 _rideId) external  {\n        require(_rideId <= rideCount, \"Invalid ride ID\");\n        require(msg.sender == rides[_rideId].driver, \"Only driver can call this function\");\n        Ride storage ride = rides[_rideId];\n        require(ride.isActive, \"Ride is not active\");\n\n        //rút tiền từ hợp đồng về tài khoản\n        address payable recipient = address(uint160(msg.sender)); // Chuyển msg.sender thành address payable\n        (bool callSuccess, ) = recipient.call.value(address(this).balance)(\"\");\n        require(callSuccess, \"Withdraw coin in the contract failed\");\n\n\n        // Deactivate ride\n        ride.isActive = false;\n\n    }\n    \n    function getPassengers(uint rideId) external view returns (address payable[] memory) {\n        require(rideId <= rideCount, \"Invalid ride ID\");\n        return rides[rideId].passengers;\n    }\n}\n",
  "sourcePath": "/Users/dattran/OneDrive - Hanoi University of Science and Technology/Documents/IT3931 Project II/project-II-blockchain-carpooling-system/contracts/RideContract.sol",
  "compiler": {
    "name": "solc",
    "version": "0.5.0+commit.1d4f565a.Emscripten.clang"
  },
  "schemaVersion": "3.0.1",
  "updatedAt": "2024-04-05T01:35:15.020Z",
  "devdoc": {
    "methods": {}
  },
  "userdoc": {
    "methods": {}
  }
}