{
  "contractName": "RideContract",
  "abi": [
    {
      "constant": true,
      "inputs": [
        {
          "name": "",
          "type": "uint256"
        }
      ],
      "name": "rides",
      "outputs": [
        {
          "name": "id",
          "type": "uint256"
        },
        {
          "name": "driver",
          "type": "address"
        },
        {
          "name": "startPoint",
          "type": "string"
        },
        {
          "name": "endPoint",
          "type": "string"
        },
        {
          "name": "fare",
          "type": "uint256"
        },
        {
          "name": "startTime",
          "type": "uint256"
        },
        {
          "name": "numOfSeats",
          "type": "uint256"
        },
        {
          "name": "numOfPassengers",
          "type": "uint256"
        },
        {
          "name": "isActive",
          "type": "bool"
        }
      ],
      "payable": false,
      "stateMutability": "view",
      "type": "function",
      "signature": "0x5205f112"
    },
    {
      "constant": true,
      "inputs": [
        {
          "name": "",
          "type": "address"
        }
      ],
      "name": "clientBalances",
      "outputs": [
        {
          "name": "",
          "type": "uint256"
        }
      ],
      "payable": false,
      "stateMutability": "view",
      "type": "function",
      "signature": "0x8c6e9d1c"
    },
    {
      "constant": true,
      "inputs": [],
      "name": "rideCount",
      "outputs": [
        {
          "name": "",
          "type": "uint256"
        }
      ],
      "payable": false,
      "stateMutability": "view",
      "type": "function",
      "signature": "0xb47c1883"
    },
    {
      "constant": true,
      "inputs": [],
      "name": "ownerBalance",
      "outputs": [
        {
          "name": "",
          "type": "uint256"
        }
      ],
      "payable": false,
      "stateMutability": "view",
      "type": "function",
      "signature": "0xbedcf003"
    },
    {
      "inputs": [],
      "payable": false,
      "stateMutability": "nonpayable",
      "type": "constructor",
      "signature": "constructor"
    },
    {
      "constant": false,
      "inputs": [],
      "name": "clientDeposit",
      "outputs": [],
      "payable": true,
      "stateMutability": "payable",
      "type": "function",
      "signature": "0xf07ff641"
    },
    {
      "constant": false,
      "inputs": [],
      "name": "withdrawEarnings",
      "outputs": [],
      "payable": false,
      "stateMutability": "nonpayable",
      "type": "function",
      "signature": "0xb73c6ce9"
    },
    {
      "constant": false,
      "inputs": [
        {
          "name": "_startPoint",
          "type": "string"
        },
        {
          "name": "_endPoint",
          "type": "string"
        },
        {
          "name": "_fare",
          "type": "uint256"
        },
        {
          "name": "_startTime",
          "type": "uint256"
        },
        {
          "name": "_numOfSeats",
          "type": "uint256"
        }
      ],
      "name": "createRide",
      "outputs": [],
      "payable": false,
      "stateMutability": "nonpayable",
      "type": "function",
      "signature": "0x2c0dd4e5"
    },
    {
      "constant": false,
      "inputs": [
        {
          "name": "_rideId",
          "type": "uint256"
        }
      ],
      "name": "joinRide",
      "outputs": [],
      "payable": true,
      "stateMutability": "payable",
      "type": "function",
      "signature": "0x01f32206"
    },
    {
      "constant": false,
      "inputs": [
        {
          "name": "_rideId",
          "type": "uint256"
        }
      ],
      "name": "completeRide",
      "outputs": [],
      "payable": false,
      "stateMutability": "nonpayable",
      "type": "function",
      "signature": "0xc416dd0b"
    },
    {
      "constant": true,
      "inputs": [
        {
          "name": "rideId",
          "type": "uint256"
        }
      ],
      "name": "getPassengers",
      "outputs": [
        {
          "name": "",
          "type": "address[]"
        }
      ],
      "payable": false,
      "stateMutability": "view",
      "type": "function",
      "signature": "0x6d4d31f2"
    }
  ],
  "bytecode": "0x608060405234801561001057600080fd5b506000805560018054600160a060020a03191633179055610d63806100366000396000f3fe6080604052600436106100a35763ffffffff7c010000000000000000000000000000000000000000000000000000000060003504166301f3220681146100a85780632c0dd4e5146100c75780635205f112146101a25780636d4d31f2146102f15780638c6e9d1c1461036b578063b47c1883146103b0578063b73c6ce9146103c5578063bedcf003146103da578063c416dd0b146103ef578063f07ff64114610419575b600080fd5b6100c5600480360360208110156100be57600080fd5b5035610421565b005b3480156100d357600080fd5b506100c5600480360360a08110156100ea57600080fd5b81019060208101813564010000000081111561010557600080fd5b82018360208201111561011757600080fd5b8035906020019184600183028401116401000000008311171561013957600080fd5b91939092909160208101903564010000000081111561015757600080fd5b82018360208201111561016957600080fd5b8035906020019184600183028401116401000000008311171561018b57600080fd5b91935091508035906020810135906040013561059d565b3480156101ae57600080fd5b506101cc600480360360208110156101c557600080fd5b5035610797565b604051808a815260200189600160a060020a0316600160a060020a0316815260200180602001806020018881526020018781526020018681526020018581526020018415151515815260200183810383528a818151815260200191508051906020019080838360005b8381101561024d578181015183820152602001610235565b50505050905090810190601f16801561027a5780820380516001836020036101000a031916815260200191505b5083810382528951815289516020918201918b019080838360005b838110156102ad578181015183820152602001610295565b50505050905090810190601f1680156102da5780820380516001836020036101000a031916815260200191505b509b50505050505050505050505060405180910390f35b3480156102fd57600080fd5b5061031b6004803603602081101561031457600080fd5b50356108ff565b60408051602080825283518183015283519192839290830191858101910280838360005b8381101561035757818101518382015260200161033f565b505050509050019250505060405180910390f35b34801561037757600080fd5b5061039e6004803603602081101561038e57600080fd5b5035600160a060020a03166109c9565b60408051918252519081900360200190f35b3480156103bc57600080fd5b5061039e6109db565b3480156103d157600080fd5b506100c56109e1565b3480156103e657600080fd5b5061039e610aad565b3480156103fb57600080fd5b506100c56004803603602081101561041257600080fd5b5035610ab3565b6100c5610b87565b60005481111561047b576040805160e560020a62461bcd02815260206004820152600f60248201527f496e76616c696420726964652049440000000000000000000000000000000000604482015290519081900360640190fd5b60008181526004602081905260409091200154670de0b6b3a76400000234146104ee576040805160e560020a62461bcd02815260206004820152601560248201527f496e636f7272656374206661726520616d6f756e740000000000000000000000604482015290519081900360640190fd5b60008181526004602081815260408084206008810180546001818101835591875284872001805473ffffffffffffffffffffffffffffffffffffffff191633908117909155600783018054830190558652600284528286208054349081900390915560038054820190558787529490935291909101549051600160a060020a03919091169282156108fc02929190818181858888f19350505050158015610599573d6000803e3d6000fd5b5050565b600083116105f5576040805160e560020a62461bcd02815260206004820152601e60248201527f46617265206d7573742062652067726561746572207468616e207a65726f0000604482015290519081900360640190fd5b600080546001019055610606610b9e565b60005481523360208083019190915260408051601f8a0183900483028101830190915288815290899089908190840183828082843760009201919091525050505060408083019190915280516020601f8801819004810282018101909252868152908790879081908401838280828437600092018290525060608601949094525050506080820185905260a082018490526001610120830181905260c0830184905260e0830182905281548252600460209081526040928390208451815581850151928101805473ffffffffffffffffffffffffffffffffffffffff1916600160a060020a0390941693909317909255918301518051849361070f926002850192910190610bfd565b506060820151805161072b916003840191602090910190610bfd565b506080820151600482015560a0820151600582015560c0820151600682015560e082015160078201556101008201518051610770916008840191602090910190610c7b565b5061012091909101516009909101805460ff19169115159190911790555050505050505050565b60046020908152600091825260409182902080546001808301546002808501805488516101009582161595909502600019011691909104601f81018790048702840187019097528683529295600160a060020a03909116949192918301828280156108435780601f1061081857610100808354040283529160200191610843565b820191906000526020600020905b81548152906001019060200180831161082657829003601f168201915b5050505060038301805460408051602060026001851615610100026000190190941693909304601f81018490048402820184019092528181529495949350908301828280156108d35780601f106108a8576101008083540402835291602001916108d3565b820191906000526020600020905b8154815290600101906020018083116108b657829003601f168201915b505050600484015460058501546006860154600787015460099097015495969295919450925060ff1689565b60005460609082111561095c576040805160e560020a62461bcd02815260206004820152600f60248201527f496e76616c696420726964652049440000000000000000000000000000000000604482015290519081900360640190fd5b600082815260046020908152604091829020600801805483518184028101840190945280845290918301828280156109bd57602002820191906000526020600020905b8154600160a060020a0316815260019091019060200180831161099f575b50505050509050919050565b60026020526000908152604090205481565b60005481565b600154600160a060020a03163314610a69576040805160e560020a62461bcd02815260206004820152602a60248201527f4f6e6c7920636f6e7472616374206f776e65722063616e2063616c6c2074686960448201527f732066756e6374696f6e00000000000000000000000000000000000000000000606482015290519081900360840190fd5b600154600354604051600160a060020a039092169181156108fc0291906000818181858888f19350505050158015610aa5573d6000803e3d6000fd5b506000600355565b60035481565b600054811115610b0d576040805160e560020a62461bcd02815260206004820152600f60248201527f496e76616c696420726964652049440000000000000000000000000000000000604482015290519081900360640190fd5b6000818152600460205260409020600981015460ff161515610b79576040805160e560020a62461bcd02815260206004820152601260248201527f52696465206973206e6f74206163746976650000000000000000000000000000604482015290519081900360640190fd5b600901805460ff1916905550565b336000908152600260205260409020805434019055565b61014060405190810160405280600081526020016000600160a060020a03168152602001606081526020016060815260200160008152602001600081526020016000815260200160008152602001606081526020016000151581525090565b828054600181600116156101000203166002900490600052602060002090601f016020900481019282601f10610c3e57805160ff1916838001178555610c6b565b82800160010185558215610c6b579182015b82811115610c6b578251825591602001919060010190610c50565b50610c77929150610ce9565b5090565b828054828255906000526020600020908101928215610cdd579160200282015b82811115610cdd578251825473ffffffffffffffffffffffffffffffffffffffff1916600160a060020a03909116178255602090920191600190910190610c9b565b50610c77929150610d06565b610d0391905b80821115610c775760008155600101610cef565b90565b610d0391905b80821115610c7757805473ffffffffffffffffffffffffffffffffffffffff19168155600101610d0c56fea165627a7a72305820774272ea826d91897dfff947c86578e36b868a3cf55b8214b4a1dcd64ab932f70029",
  "source": "// SPDX-License-Identifier: MIT\n//pragma solidity >=0.4.22 <0.9.0;\npragma solidity ^0.5.0;\ncontract RideContract {\n    uint public rideCount;\n    address payable owner ;\n    mapping(address => uint256) public clientBalances;\n    uint256 public ownerBalance;\n\n    struct Ride {\n        uint id; \n        address payable driver; \n        string startPoint; //departure\n        string endPoint;    //destination\n        uint256 fare;\n        uint256 startTime;\n        uint numOfSeats; \n        uint numOfPassengers; \n        address payable[] passengers;\n        bool isActive;\n    }\n  \n\n\n    mapping(uint => Ride) public rides;\n    \n    modifier onlyOwner() {\n        require(msg.sender == owner, \"Only contract owner can call this function\");\n        _;\n    }\n\n    function clientDeposit() external payable {\n        clientBalances[msg.sender] += msg.value;\n    }\n\n    function withdrawEarnings() external onlyOwner {\n        \n       owner.transfer(ownerBalance);\n        ownerBalance = 0;\n    }\n\n    constructor() public {\n        // createRide(\"Start Point\", \"End Point\", 100); // Tạo một chuyến xe mẫu khi khởi tạo\n        rideCount = 0;\n        owner = msg.sender;\n       \n    }\n\n    function createRide(string calldata _startPoint, string calldata _endPoint, uint256 _fare, uint256 _startTime, uint _numOfSeats) external {\n        require(_fare > 0, \"Fare must be greater than zero\");\n        rideCount++; // Tăng số lượng chuyến xe\n\n        // Tạo một chuyến xe mới\n        Ride memory newRide;\n        newRide.id = rideCount;\n        newRide.driver = msg.sender;\n        newRide.startPoint = _startPoint;\n        newRide.endPoint = _endPoint;\n        newRide.fare = _fare;\n        newRide.startTime = _startTime;\n        newRide.isActive = true;\n        newRide.numOfSeats = _numOfSeats; \n        newRide.passengers ;\n        newRide.numOfPassengers = 0;\n        // Lưu trữ chuyến xe vào mapping\n        rides[rideCount] = newRide;\n    }\n    \n\n    function joinRide(uint256 _rideId) external payable {\n        require(_rideId <= rideCount, \"Invalid ride ID\");\n        require(msg.value == rides[_rideId].fare*1e18, \"Incorrect fare amount\");\n\n        rides[_rideId].passengers.push(msg.sender);\n        rides[_rideId].numOfPassengers ++ ;\n        clientBalances[msg.sender] -=   msg.value;\n        ownerBalance += msg.value;\n        (rides[_rideId].driver).transfer(msg.value);\n       \n    }\n\n    function completeRide(uint256 _rideId) external  {\n        require(_rideId <= rideCount, \"Invalid ride ID\");\n\n        Ride storage ride = rides[_rideId];\n        require(ride.isActive, \"Ride is not active\");\n\n        // Distribute fare to driver and passengers\n        // uint256 totalFare = ride.fare * (ride.passengers.length + 1);\n        // uint256 farePerPassenger = totalFare / (ride.passengers.length + 1);\n        \n        //(ride.driver).transfer(farePerPassenger);\n        // for (uint256 i = 0; i < ride.passengers.length; i++) {\n        //     (ride.passengers[i]).transfer(farePerPassenger);\n        // }\n\n        // Deactivate ride\n        ride.isActive = false;\n\n    }\n    function getPassengers(uint rideId) external view returns (address payable[] memory) {\n        require(rideId <= rideCount, \"Invalid ride ID\");\n        return rides[rideId].passengers;\n    }\n}\n",
  "sourcePath": "/Users/dattran/Documents/eth-carpooling/contracts/RideContract.sol",
  "compiler": {
    "name": "solc",
    "version": "0.5.0+commit.1d4f565a.Emscripten.clang"
  },
  "schemaVersion": "3.0.1",
  "updatedAt": "2024-03-26T07:50:15.747Z",
  "devdoc": {
    "methods": {}
  },
  "userdoc": {
    "methods": {}
  }
}