{
  "contractName": "Ride",
  "abi": [
    {
      "constant": true,
      "inputs": [],
      "name": "startPoint",
      "outputs": [
        {
          "name": "",
          "type": "string"
        }
      ],
      "payable": false,
      "stateMutability": "view",
      "type": "function"
    },
    {
      "constant": true,
      "inputs": [],
      "name": "numOfPassengers",
      "outputs": [
        {
          "name": "",
          "type": "uint256"
        }
      ],
      "payable": false,
      "stateMutability": "view",
      "type": "function"
    },
    {
      "constant": true,
      "inputs": [],
      "name": "driver",
      "outputs": [
        {
          "name": "",
          "type": "address"
        }
      ],
      "payable": false,
      "stateMutability": "view",
      "type": "function"
    },
    {
      "constant": true,
      "inputs": [],
      "name": "startTime",
      "outputs": [
        {
          "name": "",
          "type": "uint256"
        }
      ],
      "payable": false,
      "stateMutability": "view",
      "type": "function"
    },
    {
      "constant": true,
      "inputs": [],
      "name": "endPoint",
      "outputs": [
        {
          "name": "",
          "type": "string"
        }
      ],
      "payable": false,
      "stateMutability": "view",
      "type": "function"
    },
    {
      "constant": true,
      "inputs": [],
      "name": "fare",
      "outputs": [
        {
          "name": "",
          "type": "uint256"
        }
      ],
      "payable": false,
      "stateMutability": "view",
      "type": "function"
    },
    {
      "constant": true,
      "inputs": [
        {
          "name": "",
          "type": "address"
        }
      ],
      "name": "passengerBalances",
      "outputs": [
        {
          "name": "",
          "type": "uint256"
        }
      ],
      "payable": false,
      "stateMutability": "view",
      "type": "function"
    },
    {
      "inputs": [
        {
          "name": "_driver",
          "type": "address"
        },
        {
          "name": "_startPoint",
          "type": "string"
        },
        {
          "name": "_endPoint",
          "type": "string"
        },
        {
          "name": "_fare",
          "type": "uint256"
        },
        {
          "name": "_startTime",
          "type": "uint256"
        }
      ],
      "payable": false,
      "stateMutability": "nonpayable",
      "type": "constructor"
    },
    {
      "constant": false,
      "inputs": [],
      "name": "joinRide",
      "outputs": [],
      "payable": true,
      "stateMutability": "payable",
      "type": "function"
    }
  ],
  "bytecode": "0x608060405234801561001057600080fd5b506040516105ca3803806105ca833981018060405260a081101561003357600080fd5b81516020830180519193928301929164010000000081111561005457600080fd5b8201602081018481111561006757600080fd5b815164010000000081118282018710171561008157600080fd5b5050929190602001805164010000000081111561009d57600080fd5b820160208101848111156100b057600080fd5b81516401000000008111828201871017156100ca57600080fd5b505060208281015160409093015160008054600160a060020a031916600160a060020a038a16179055865192955092935061010a91600191870190610135565b50825161011e906002906020860190610135565b5060039190915560045550506000600555506101d0565b828054600181600116156101000203166002900490600052602060002090601f016020900481019282601f1061017657805160ff19168380011785556101a3565b828001600101855582156101a3579182015b828111156101a3578251825591602001919060010190610188565b506101af9291506101b3565b5090565b6101cd91905b808211156101af57600081556001016101b9565b90565b6103eb806101df6000396000f3fe60806040526004361061008d5763ffffffff7c01000000000000000000000000000000000000000000000000000000006000350416631b12d14a811461009257806345bafc631461011c5780636ecc5d621461014357806378e9792514610181578063866bda6e1461019657806399e51e1c146101a0578063adeb0382146101b5578063ba841fe6146101ca575b600080fd5b34801561009e57600080fd5b506100a761020a565b6040805160208082528351818301528351919283929083019185019080838360005b838110156100e15781810151838201526020016100c9565b50505050905090810190601f16801561010e5780820380516001836020036101000a031916815260200191505b509250505060405180910390f35b34801561012857600080fd5b50610131610297565b60408051918252519081900360200190f35b34801561014f57600080fd5b5061015861029d565b6040805173ffffffffffffffffffffffffffffffffffffffff9092168252519081900360200190f35b34801561018d57600080fd5b506101316102b9565b61019e6102bf565b005b3480156101ac57600080fd5b506100a761034f565b3480156101c157600080fd5b506101316103a7565b3480156101d657600080fd5b50610131600480360360208110156101ed57600080fd5b503573ffffffffffffffffffffffffffffffffffffffff166103ad565b60018054604080516020600284861615610100026000190190941693909304601f8101849004840282018401909252818152929183018282801561028f5780601f106102645761010080835404028352916020019161028f565b820191906000526020600020905b81548152906001019060200180831161027257829003601f168201915b505050505081565b60055481565b60005473ffffffffffffffffffffffffffffffffffffffff1681565b60045481565b600354341461032f57604080517f08c379a000000000000000000000000000000000000000000000000000000000815260206004820152601560248201527f496e636f7272656374206661726520616d6f756e740000000000000000000000604482015290519081900360640190fd5b336000908152600660205260409020805434019055600580546001019055565b6002805460408051602060018416156101000260001901909316849004601f8101849004840282018401909252818152929183018282801561028f5780601f106102645761010080835404028352916020019161028f565b60035481565b6006602052600090815260409020548156fea165627a7a7230582082b233267add0f8076d27501947df05364385f862d6330377101912a1f96caf40029",
  "source": "// SPDX-License-Identifier: MIT\n//pragma solidity >=0.4.22 <0.9.0;\npragma solidity ^0.5.0;\ncontract RideContract {\n    uint public rideCount;\n    mapping(uint => address) public rideContracts;\n\n    // Khai báo sự kiện để thông báo khi một chuyến xe mới được tạo\n    event RideCreated(address indexed rideAddress, uint indexed rideId);\n\n    function createRide(string calldata _startPoint, string calldata _endPoint, uint256 _fare, uint256 _startTime) external {\n        require(_fare > 0, \"Fare must be greater than zero\");\n        rideCount++; // Tăng số lượng chuyến xe\n\n        // Tạo một hợp đồng mới cho chuyến xe\n        Ride ride = new Ride(msg.sender, _startPoint, _endPoint, _fare, _startTime);\n        rideContracts[rideCount] = address(ride);\n\n        // Phát ra sự kiện RideCreated để thông báo rằng một chuyến xe mới đã được tạo\n        emit RideCreated(address(ride), rideCount);\n    }\n\n}\n\ncontract Ride {\n    address payable public driver;\n    string public startPoint;\n    string public endPoint;\n    uint256 public fare;\n    uint256 public startTime;\n    uint public numOfPassengers;\n    mapping(address => uint256) public passengerBalances;\n\n    constructor(address payable _driver, string memory _startPoint, string memory _endPoint, uint256 _fare, uint256 _startTime) public {\n        driver = _driver;\n        startPoint = _startPoint;\n        endPoint = _endPoint;\n        fare = _fare;\n        startTime = _startTime;\n        numOfPassengers = 0;\n    }\n\n    function joinRide() external payable {\n        require(msg.value == fare, \"Incorrect fare amount\");\n        passengerBalances[msg.sender] += msg.value;\n        numOfPassengers++;\n    }\n}\n",
  "sourcePath": "/Users/dattran/OneDrive - Hanoi University of Science and Technology/Documents/IT3931 Project II/project-II-blockchain-carpooling-system/contracts/RideContract.sol",
  "compiler": {
    "name": "solc",
    "version": "0.5.0+commit.1d4f565a.Emscripten.clang"
  },
  "schemaVersion": "3.0.1",
  "updatedAt": "2024-04-04T15:31:20.385Z",
  "devdoc": {
    "methods": {}
  },
  "userdoc": {
    "methods": {}
  }
}