{
  "contractName": "RideContract",
  "abi": [
    {
      "constant": true,
      "inputs": [
        {
          "name": "",
          "type": "uint256"
        }
      ],
      "name": "rides",
      "outputs": [
        {
          "name": "id",
          "type": "uint256"
        },
        {
          "name": "driver",
          "type": "address"
        },
        {
          "name": "startPoint",
          "type": "string"
        },
        {
          "name": "endPoint",
          "type": "string"
        },
        {
          "name": "fare",
          "type": "uint256"
        },
        {
          "name": "startTime",
          "type": "uint256"
        }
      ],
      "payable": false,
      "stateMutability": "view",
      "type": "function",
      "signature": "0x5205f112"
    },
    {
      "constant": true,
      "inputs": [],
      "name": "rideCount",
      "outputs": [
        {
          "name": "",
          "type": "uint256"
        }
      ],
      "payable": false,
      "stateMutability": "view",
      "type": "function",
      "signature": "0xb47c1883"
    },
    {
      "inputs": [],
      "payable": false,
      "stateMutability": "nonpayable",
      "type": "constructor",
      "signature": "constructor"
    },
    {
      "constant": false,
      "inputs": [
        {
          "name": "_startPoint",
          "type": "string"
        },
        {
          "name": "_endPoint",
          "type": "string"
        },
        {
          "name": "_fare",
          "type": "uint256"
        }
      ],
      "name": "createRide",
      "outputs": [],
      "payable": false,
      "stateMutability": "nonpayable",
      "type": "function",
      "signature": "0x8da547ee"
    }
  ],
  "bytecode": "0x60806040526000805534801561001457600080fd5b5061009a6040805190810160405280600b81526020017f537461727420506f696e740000000000000000000000000000000000000000008152506040805190810160405280600981526020017f456e6420506f696e740000000000000000000000000000000000000000000000815250606461009f640100000000026401000000009004565b6102af565b60008081548092919060010191905055506100b86101bd565b60c06040519081016040528060005481526020013373ffffffffffffffffffffffffffffffffffffffff1681526020018581526020018481526020018381526020014281525090508060016000805481526020019081526020016000206000820151816000015560208201518160010160006101000a81548173ffffffffffffffffffffffffffffffffffffffff021916908373ffffffffffffffffffffffffffffffffffffffff160217905550604082015181600201908051906020019061018292919061020a565b50606082015181600301908051906020019061019f92919061020a565b506080820151816004015560a0820151816005015590505050505050565b60c06040519081016040528060008152602001600073ffffffffffffffffffffffffffffffffffffffff168152602001606081526020016060815260200160008152602001600081525090565b828054600181600116156101000203166002900490600052602060002090601f016020900481019282601f1061024b57805160ff1916838001178555610279565b82800160010185558215610279579182015b8281111561027857825182559160200191906001019061025d565b5b509050610286919061028a565b5090565b6102ac91905b808211156102a8576000816000905550600101610290565b5090565b90565b610726806102be6000396000f3fe608060405260043610610057576000357c0100000000000000000000000000000000000000000000000000000000900463ffffffff1680635205f1121461005c5780638da547ee146101c4578063b47c18831461032d575b600080fd5b34801561006857600080fd5b506100956004803603602081101561007f57600080fd5b8101908080359060200190929190505050610358565b604051808781526020018673ffffffffffffffffffffffffffffffffffffffff1673ffffffffffffffffffffffffffffffffffffffff1681526020018060200180602001858152602001848152602001838103835287818151815260200191508051906020019080838360005b8381101561011d578082015181840152602081019050610102565b50505050905090810190601f16801561014a5780820380516001836020036101000a031916815260200191505b50838103825286818151815260200191508051906020019080838360005b83811015610183578082015181840152602081019050610168565b50505050905090810190601f1680156101b05780820380516001836020036101000a031916815260200191505b509850505050505050505060405180910390f35b3480156101d057600080fd5b5061032b600480360360608110156101e757600080fd5b810190808035906020019064010000000081111561020457600080fd5b82018360208201111561021657600080fd5b8035906020019184600183028401116401000000008311171561023857600080fd5b91908080601f016020809104026020016040519081016040528093929190818152602001838380828437600081840152601f19601f8201169050808301925050505050505091929192908035906020019064010000000081111561029b57600080fd5b8201836020820111156102ad57600080fd5b803590602001918460018302840111640100000000831117156102cf57600080fd5b91908080601f016020809104026020016040519081016040528093929190818152602001838380828437600081840152601f19601f820116905080830192505050505050509192919290803590602001909291905050506104e4565b005b34801561033957600080fd5b50610342610602565b6040518082815260200191505060405180910390f35b60016020528060005260406000206000915090508060000154908060010160009054906101000a900473ffffffffffffffffffffffffffffffffffffffff1690806002018054600181600116156101000203166002900480601f0160208091040260200160405190810160405280929190818152602001828054600181600116156101000203166002900480156104305780601f1061040557610100808354040283529160200191610430565b820191906000526020600020905b81548152906001019060200180831161041357829003601f168201915b505050505090806003018054600181600116156101000203166002900480601f0160208091040260200160405190810160405280929190818152602001828054600181600116156101000203166002900480156104ce5780601f106104a3576101008083540402835291602001916104ce565b820191906000526020600020905b8154815290600101906020018083116104b157829003601f168201915b5050505050908060040154908060050154905086565b60008081548092919060010191905055506104fd610608565b60c06040519081016040528060005481526020013373ffffffffffffffffffffffffffffffffffffffff1681526020018581526020018481526020018381526020014281525090508060016000805481526020019081526020016000206000820151816000015560208201518160010160006101000a81548173ffffffffffffffffffffffffffffffffffffffff021916908373ffffffffffffffffffffffffffffffffffffffff16021790555060408201518160020190805190602001906105c7929190610655565b5060608201518160030190805190602001906105e4929190610655565b506080820151816004015560a0820151816005015590505050505050565b60005481565b60c06040519081016040528060008152602001600073ffffffffffffffffffffffffffffffffffffffff168152602001606081526020016060815260200160008152602001600081525090565b828054600181600116156101000203166002900490600052602060002090601f016020900481019282601f1061069657805160ff19168380011785556106c4565b828001600101855582156106c4579182015b828111156106c35782518255916020019190600101906106a8565b5b5090506106d191906106d5565b5090565b6106f791905b808211156106f35760008160009055506001016106db565b5090565b9056fea165627a7a723058202e735ddc900446b9efec2e25320880ebf7f54651c5328716c414d5ab090e9b9e0029",
  "source": "// SPDX-License-Identifier: MIT\npragma solidity >=0.4.22 <0.9.0;\n\ncontract RideContract {\n    uint public rideCount = 0;\n    struct Ride {\n        uint id; \n        address driver;\n        string startPoint;\n        string endPoint;\n        uint256 fare;\n        uint256 startTime;\n    }\n  \n   \n    mapping(uint => Ride) public rides;\n    constructor() public {\n            createRide(\"Start Point\", \"End Point\", 100); // Tạo một chuyến xe mẫu khi khởi tạo\n        }\n\n    function createRide(string memory _startPoint, string memory _endPoint, uint256 _fare) public {\n        rideCount++; // Tăng số lượng chuyến xe\n\n        // Tạo một chuyến xe mới\n        Ride memory newRide = Ride(rideCount, msg.sender, _startPoint, _endPoint, _fare, block.timestamp);\n\n        // Lưu trữ chuyến xe vào mapping\n        rides[rideCount] = newRide;\n    }\n    \n}\n",
  "sourcePath": "/Users/dattran/Documents/eth-carpooling/contracts/RideContract.sol",
  "compiler": {
    "name": "solc",
    "version": "0.5.0+commit.1d4f565a.Emscripten.clang"
  },
  "schemaVersion": "3.0.1",
  "updatedAt": "2024-03-23T01:01:26.084Z",
  "devdoc": {
    "methods": {}
  },
  "userdoc": {
    "methods": {}
  }
}