{
  "contractName": "RideContract",
  "abi": [
    {
      "constant": true,
      "inputs": [
        {
          "name": "",
          "type": "uint256"
        }
      ],
      "name": "rides",
      "outputs": [
        {
          "name": "id",
          "type": "uint256"
        },
        {
          "name": "driver",
          "type": "address"
        },
        {
          "name": "startPoint",
          "type": "string"
        },
        {
          "name": "endPoint",
          "type": "string"
        },
        {
          "name": "fare",
          "type": "uint256"
        },
        {
          "name": "startTime",
          "type": "uint256"
        },
        {
          "name": "isActive",
          "type": "bool"
        }
      ],
      "payable": false,
      "stateMutability": "view",
      "type": "function",
      "signature": "0x5205f112"
    },
    {
      "constant": true,
      "inputs": [
        {
          "name": "",
          "type": "address"
        }
      ],
      "name": "clientBalances",
      "outputs": [
        {
          "name": "",
          "type": "uint256"
        }
      ],
      "payable": false,
      "stateMutability": "view",
      "type": "function",
      "signature": "0x8c6e9d1c"
    },
    {
      "constant": true,
      "inputs": [],
      "name": "rideCount",
      "outputs": [
        {
          "name": "",
          "type": "uint256"
        }
      ],
      "payable": false,
      "stateMutability": "view",
      "type": "function",
      "signature": "0xb47c1883"
    },
    {
      "constant": true,
      "inputs": [],
      "name": "ownerBalance",
      "outputs": [
        {
          "name": "",
          "type": "uint256"
        }
      ],
      "payable": false,
      "stateMutability": "view",
      "type": "function",
      "signature": "0xbedcf003"
    },
    {
      "inputs": [],
      "payable": false,
      "stateMutability": "nonpayable",
      "type": "constructor",
      "signature": "constructor"
    },
    {
      "constant": false,
      "inputs": [],
      "name": "clientDeposit",
      "outputs": [],
      "payable": true,
      "stateMutability": "payable",
      "type": "function",
      "signature": "0xf07ff641"
    },
    {
      "constant": false,
      "inputs": [],
      "name": "withdrawEarnings",
      "outputs": [],
      "payable": false,
      "stateMutability": "nonpayable",
      "type": "function",
      "signature": "0xb73c6ce9"
    },
    {
      "constant": false,
      "inputs": [
        {
          "name": "_startPoint",
          "type": "string"
        },
        {
          "name": "_endPoint",
          "type": "string"
        },
        {
          "name": "_fare",
          "type": "uint256"
        },
        {
          "name": "_startTime",
          "type": "uint256"
        }
      ],
      "name": "createRide",
      "outputs": [],
      "payable": false,
      "stateMutability": "nonpayable",
      "type": "function",
      "signature": "0xf5e6a7fb"
    },
    {
      "constant": false,
      "inputs": [
        {
          "name": "_rideId",
          "type": "uint256"
        }
      ],
      "name": "joinRide",
      "outputs": [],
      "payable": true,
      "stateMutability": "payable",
      "type": "function",
      "signature": "0x01f32206"
    },
    {
      "constant": false,
      "inputs": [
        {
          "name": "_rideId",
          "type": "uint256"
        }
      ],
      "name": "completeRide",
      "outputs": [],
      "payable": false,
      "stateMutability": "nonpayable",
      "type": "function",
      "signature": "0xc416dd0b"
    }
  ],
  "bytecode": "0x608060405234801561001057600080fd5b506000805560018054600160a060020a03191633179055610cb6806100366000396000f3fe6080604052600436106100985763ffffffff7c010000000000000000000000000000000000000000000000000000000060003504166301f32206811461009d5780635205f112146100bc5780638c6e9d1c146101fd578063b47c188314610242578063b73c6ce914610257578063bedcf0031461026c578063c416dd0b14610281578063f07ff641146102ab578063f5e6a7fb146102b3575b600080fd5b6100ba600480360360208110156100b357600080fd5b5035610388565b005b3480156100c857600080fd5b506100e6600480360360208110156100df57600080fd5b50356104ab565b6040518088815260200187600160a060020a0316600160a060020a03168152602001806020018060200186815260200185815260200184151515158152602001838103835288818151815260200191508051906020019080838360005b8381101561015b578181015183820152602001610143565b50505050905090810190601f1680156101885780820380516001836020036101000a031916815260200191505b50838103825287518152875160209182019189019080838360005b838110156101bb5781810151838201526020016101a3565b50505050905090810190601f1680156101e85780820380516001836020036101000a031916815260200191505b50995050505050505050505060405180910390f35b34801561020957600080fd5b506102306004803603602081101561022057600080fd5b5035600160a060020a0316610608565b60408051918252519081900360200190f35b34801561024e57600080fd5b5061023061061a565b34801561026357600080fd5b506100ba610620565b34801561027857600080fd5b506102306106ec565b34801561028d57600080fd5b506100ba600480360360208110156102a457600080fd5b50356106f2565b6100ba610919565b3480156102bf57600080fd5b506100ba600480360360808110156102d657600080fd5b8101906020810181356401000000008111156102f157600080fd5b82018360208201111561030357600080fd5b8035906020019184600183028401116401000000008311171561032557600080fd5b91939092909160208101903564010000000081111561034357600080fd5b82018360208201111561035557600080fd5b8035906020019184600183028401116401000000008311171561037757600080fd5b919350915080359060200135610930565b60005481106103e1576040805160e560020a62461bcd02815260206004820152600f60248201527f496e76616c696420726964652049440000000000000000000000000000000000604482015290519081900360640190fd5b60008181526004602081905260409091200154341461044a576040805160e560020a62461bcd02815260206004820152601560248201527f496e636f7272656374206661726520616d6f756e740000000000000000000000604482015290519081900360640190fd5b6000908152600460209081526040808320600601805460018101825590845282842001805473ffffffffffffffffffffffffffffffffffffffff19163390811790915583526002909152902080543490819003909155600380549091019055565b60046020908152600091825260409182902080546001808301546002808501805488516101009582161595909502600019011691909104601f81018790048702840187019097528683529295600160a060020a03909116949192918301828280156105575780601f1061052c57610100808354040283529160200191610557565b820191906000526020600020905b81548152906001019060200180831161053a57829003601f168201915b5050505060038301805460408051602060026001851615610100026000190190941693909304601f81018490048402820184019092528181529495949350908301828280156105e75780601f106105bc576101008083540402835291602001916105e7565b820191906000526020600020905b8154815290600101906020018083116105ca57829003601f168201915b50505050600483015460058401546007909401549293909290915060ff1687565b60026020526000908152604090205481565b60005481565b600154600160a060020a031633146106a8576040805160e560020a62461bcd02815260206004820152602a60248201527f4f6e6c7920636f6e7472616374206f776e65722063616e2063616c6c2074686960448201527f732066756e6374696f6e00000000000000000000000000000000000000000000606482015290519081900360840190fd5b600154600354604051600160a060020a039092169181156108fc0291906000818181858888f193505050501580156106e4573d6000803e3d6000fd5b506000600355565b60035481565b600154600160a060020a0316331461077a576040805160e560020a62461bcd02815260206004820152602a60248201527f4f6e6c7920636f6e7472616374206f776e65722063616e2063616c6c2074686960448201527f732066756e6374696f6e00000000000000000000000000000000000000000000606482015290519081900360840190fd5b60005481106107d3576040805160e560020a62461bcd02815260206004820152600f60248201527f496e76616c696420726964652049440000000000000000000000000000000000604482015290519081900360640190fd5b6000818152600460205260409020600781015460ff16151561083f576040805160e560020a62461bcd02815260206004820152601260248201527f52696465206973206e6f74206163746976650000000000000000000000000000604482015290519081900360640190fd5b600681015460048201546001909101908102906000908281151561085f57fe5b6001850154604051929091049250600160a060020a03169082156108fc029083906000818181858888f1935050505015801561089f573d6000803e3d6000fd5b5060005b600684015481101561090857600684018054829081106108bf57fe5b6000918252602082200154604051600160a060020a039091169184156108fc02918591818181858888f193505050501580156108ff573d6000803e3d6000fd5b506001016108a3565b505050600701805460ff1916905550565b336000908152600260205260409020805434019055565b60008211610988576040805160e560020a62461bcd02815260206004820152601e60248201527f46617265206d7573742062652067726561746572207468616e207a65726f0000604482015290519081900360640190fd5b600080546001019055610999610aff565b3360208083019190915260408051601f890183900483028101830190915287815290889088908190840183828082843760009201919091525050505060408083019190915280516020601f8701819004810282018101909252858152908690869081908401838280828437600092018290525060608601949094525050506080820184905260a08201839052600160e0830181905281548252600460209081526040928390208451815581850151928101805473ffffffffffffffffffffffffffffffffffffffff1916600160a060020a03909416939093179092559183015180518493610a8e926002850192910190610b50565b5060608201518051610aaa916003840191602090910190610b50565b506080820151600482015560a0820151600582015560c08201518051610ada916006840191602090910190610bce565b5060e091909101516007909101805460ff191691151591909117905550505050505050565b61010060405190810160405280600081526020016000600160a060020a0316815260200160608152602001606081526020016000815260200160008152602001606081526020016000151581525090565b828054600181600116156101000203166002900490600052602060002090601f016020900481019282601f10610b9157805160ff1916838001178555610bbe565b82800160010185558215610bbe579182015b82811115610bbe578251825591602001919060010190610ba3565b50610bca929150610c3c565b5090565b828054828255906000526020600020908101928215610c30579160200282015b82811115610c30578251825473ffffffffffffffffffffffffffffffffffffffff1916600160a060020a03909116178255602090920191600190910190610bee565b50610bca929150610c59565b610c5691905b80821115610bca5760008155600101610c42565b90565b610c5691905b80821115610bca57805473ffffffffffffffffffffffffffffffffffffffff19168155600101610c5f56fea165627a7a723058201829923b17ae445905578d17160a8e8286b7e6ef691c390906046bf5c693b2860029",
  "source": "// SPDX-License-Identifier: MIT\n//pragma solidity >=0.4.22 <0.9.0;\npragma solidity ^0.5.0;\ncontract RideContract {\n    uint public rideCount;\n    address payable owner ;\n    mapping(address => uint256) public clientBalances;\n    uint256 public ownerBalance;\n\n    struct Ride {\n        uint id; \n        address payable driver; \n        string startPoint; //departure\n        string endPoint;    //destination\n        uint256 fare;\n        uint256 startTime;\n        address payable[] passengers;\n        bool isActive;\n    }\n  \n\n\n    mapping(uint => Ride) public rides;\n    \n    modifier onlyOwner() {\n        require(msg.sender == owner, \"Only contract owner can call this function\");\n        _;\n    }\n\n    function clientDeposit() external payable {\n        clientBalances[msg.sender] += msg.value;\n    }\n\n    function withdrawEarnings() external onlyOwner {\n        \n       owner.transfer(ownerBalance);\n        ownerBalance = 0;\n    }\n\n    constructor() public {\n        // createRide(\"Start Point\", \"End Point\", 100); // Tạo một chuyến xe mẫu khi khởi tạo\n        rideCount = 0;\n        owner = msg.sender;\n       \n    }\n\n    function createRide(string calldata _startPoint, string calldata _endPoint, uint256 _fare, uint256 _startTime) external {\n        require(_fare > 0, \"Fare must be greater than zero\");\n        rideCount++; // Tăng số lượng chuyến xe\n\n        // Tạo một chuyến xe mới\n        Ride memory newRide;\n        newRide.driver = msg.sender;\n        newRide.startPoint = _startPoint;\n        newRide.endPoint = _endPoint;\n        newRide.fare = _fare;\n        newRide.startTime = _startTime;\n        newRide.isActive = true;\n\n        // Lưu trữ chuyến xe vào mapping\n        rides[rideCount] = newRide;\n    }\n\n    function joinRide(uint256 _rideId) external payable {\n        require(_rideId < rideCount, \"Invalid ride ID\");\n        require(msg.value == rides[_rideId].fare, \"Incorrect fare amount\");\n\n        rides[_rideId].passengers.push(msg.sender);\n        clientBalances[msg.sender] -= msg.value;\n        ownerBalance += msg.value;\n    }\n\n    function completeRide(uint256 _rideId) external onlyOwner {\n        require(_rideId < rideCount, \"Invalid ride ID\");\n\n        Ride storage ride = rides[_rideId];\n        require(ride.isActive, \"Ride is not active\");\n\n        // Distribute fare to driver and passengers\n        uint256 totalFare = ride.fare * (ride.passengers.length + 1);\n        uint256 farePerPassenger = totalFare / (ride.passengers.length + 1);\n        \n        (ride.driver).transfer(farePerPassenger);\n        for (uint256 i = 0; i < ride.passengers.length; i++) {\n            (ride.passengers[i]).transfer(farePerPassenger);\n        }\n\n        // Deactivate ride\n        ride.isActive = false;\n\n    }\n    \n}\n",
  "sourcePath": "/Users/dattran/Documents/eth-carpooling/contracts/RideContract.sol",
  "compiler": {
    "name": "solc",
    "version": "0.5.0+commit.1d4f565a.Emscripten.clang"
  },
  "schemaVersion": "3.0.1",
  "updatedAt": "2024-03-24T04:08:26.040Z",
  "devdoc": {
    "methods": {}
  },
  "userdoc": {
    "methods": {}
  }
}